{
  "contractName": "BShiksha",
  "abi": [
    {
      "anonymous": false,
      "inputs": [
        {
          "indexed": false,
          "internalType": "uint256",
          "name": "id",
          "type": "uint256"
        },
        {
          "indexed": false,
          "internalType": "string",
          "name": "hash",
          "type": "string"
        },
        {
          "indexed": false,
          "internalType": "string",
          "name": "description",
          "type": "string"
        },
        {
          "indexed": false,
          "internalType": "uint256",
          "name": "viewCost",
          "type": "uint256"
        },
        {
          "indexed": false,
          "internalType": "address payable",
          "name": "author",
          "type": "address"
        }
      ],
      "name": "PostCreated",
      "type": "event"
    },
    {
      "anonymous": false,
      "inputs": [
        {
          "indexed": true,
          "internalType": "address payable",
          "name": "author",
          "type": "address"
        },
        {
          "indexed": false,
          "internalType": "uint256",
          "name": "amount",
          "type": "uint256"
        }
      ],
      "name": "TransactionCompleted",
      "type": "event"
    },
    {
      "stateMutability": "payable",
      "type": "fallback",
      "payable": true
    },
    {
      "inputs": [],
      "name": "PostCount",
      "outputs": [
        {
          "internalType": "uint256",
          "name": "",
          "type": "uint256"
        }
      ],
      "stateMutability": "view",
      "type": "function",
      "constant": true
    },
    {
      "inputs": [
        {
          "internalType": "uint256",
          "name": "",
          "type": "uint256"
        }
      ],
      "name": "Posts",
      "outputs": [
        {
          "internalType": "uint256",
          "name": "id",
          "type": "uint256"
        },
        {
          "internalType": "string",
          "name": "hash",
          "type": "string"
        },
        {
          "internalType": "string",
          "name": "description",
          "type": "string"
        },
        {
          "internalType": "uint256",
          "name": "viewCost",
          "type": "uint256"
        },
        {
          "internalType": "address payable",
          "name": "author",
          "type": "address"
        }
      ],
      "stateMutability": "view",
      "type": "function",
      "constant": true
    },
    {
      "inputs": [
        {
          "internalType": "uint256",
          "name": "",
          "type": "uint256"
        }
      ],
      "name": "posts",
      "outputs": [
        {
          "internalType": "uint256",
          "name": "id",
          "type": "uint256"
        },
        {
          "internalType": "string",
          "name": "hash",
          "type": "string"
        },
        {
          "internalType": "string",
          "name": "description",
          "type": "string"
        },
        {
          "internalType": "uint256",
          "name": "viewCost",
          "type": "uint256"
        },
        {
          "internalType": "address payable",
          "name": "author",
          "type": "address"
        }
      ],
      "stateMutability": "view",
      "type": "function",
      "constant": true
    },
    {
      "stateMutability": "payable",
      "type": "receive",
      "payable": true
    },
    {
      "inputs": [
        {
          "internalType": "string",
          "name": "_PostHash",
          "type": "string"
        },
        {
          "internalType": "string",
          "name": "_description",
          "type": "string"
        },
        {
          "internalType": "uint256",
          "name": "_viewCost",
          "type": "uint256"
        }
      ],
      "name": "uploadPost",
      "outputs": [
        {
          "internalType": "uint256",
          "name": "",
          "type": "uint256"
        }
      ],
      "stateMutability": "nonpayable",
      "type": "function"
    },
    {
      "inputs": [
        {
          "internalType": "uint256",
          "name": "postId",
          "type": "uint256"
        }
      ],
      "name": "callPost",
      "outputs": [
        {
          "internalType": "uint256",
          "name": "id",
          "type": "uint256"
        },
        {
          "internalType": "string",
          "name": "hash",
          "type": "string"
        },
        {
          "internalType": "string",
          "name": "description",
          "type": "string"
        },
        {
          "internalType": "uint256",
          "name": "viewCost",
          "type": "uint256"
        },
        {
          "internalType": "address payable",
          "name": "author",
          "type": "address"
        }
      ],
      "stateMutability": "view",
      "type": "function",
      "constant": true
    },
    {
      "inputs": [
        {
          "internalType": "uint256",
          "name": "postId",
          "type": "uint256"
        }
      ],
      "name": "transactPost",
      "outputs": [
        {
          "internalType": "address payable",
          "name": "author",
          "type": "address"
        }
      ],
      "stateMutability": "payable",
      "type": "function",
      "payable": true
    }
  ],
  "bytecode": "0x60806040526000805534801561001457600080fd5b50610f2e806100246000396000f3fe6080604052600436106100595760003560e01c80630b1e7f83146100625780634367d0c2146100a35780634bff4bbe146100d35780634fafef1a146101145780637881734614610155578063a2d1eceb1461019257610060565b3661006057005b005b34801561006e57600080fd5b5061008960048036038101906100849190610b1c565b6101bd565b60405161009a959493929190610c61565b60405180910390f35b6100bd60048036038101906100b89190610b1c565b610333565b6040516100ca9190610c0b565b60405180910390f35b3480156100df57600080fd5b506100fa60048036038101906100f59190610b1c565b6103ed565b60405161010b959493929190610c61565b60405180910390f35b34801561012057600080fd5b5061013b60048036038101906101369190610b1c565b6105d2565b60405161014c959493929190610c61565b60405180910390f35b34801561016157600080fd5b5061017c60048036038101906101779190610a9d565b610738565b6040516101899190610c46565b60405180910390f35b34801561019e57600080fd5b506101a76108c6565b6040516101b49190610c46565b60405180910390f35b600281815481106101cd57600080fd5b90600052602060002090600502016000915090508060000154908060010180546101f690610dc8565b80601f016020809104026020016040519081016040528092919081815260200182805461022290610dc8565b801561026f5780601f106102445761010080835404028352916020019161026f565b820191906000526020600020905b81548152906001019060200180831161025257829003601f168201915b50505050509080600201805461028490610dc8565b80601f01602080910402602001604051908101604052809291908181526020018280546102b090610dc8565b80156102fd5780601f106102d2576101008083540402835291602001916102fd565b820191906000526020600020905b8154815290600101906020018083116102e057829003601f168201915b5050505050908060030154908060040160009054906101000a900473ffffffffffffffffffffffffffffffffffffffff16905085565b60006001600083815260200190815260200160002060030154341461035757600080fd5b6001600083815260200190815260200160002060040160009054906101000a900473ffffffffffffffffffffffffffffffffffffffff1690508073ffffffffffffffffffffffffffffffffffffffff167f0d3646d05be16a84e33bde90126ccd5aaf2d33df56af440ce4a079f214cc194b346040516103d69190610c46565b60405180910390a26103e881346108cc565b919050565b60006060806000806000600160008881526020019081526020016000206040518060a00160405290816000820154815260200160018201805461042f90610dc8565b80601f016020809104026020016040519081016040528092919081815260200182805461045b90610dc8565b80156104a85780601f1061047d576101008083540402835291602001916104a8565b820191906000526020600020905b81548152906001019060200180831161048b57829003601f168201915b505050505081526020016002820180546104c190610dc8565b80601f01602080910402602001604051908101604052809291908181526020018280546104ed90610dc8565b801561053a5780601f1061050f5761010080835404028352916020019161053a565b820191906000526020600020905b81548152906001019060200180831161051d57829003601f168201915b50505050508152602001600382015481526020016004820160009054906101000a900473ffffffffffffffffffffffffffffffffffffffff1673ffffffffffffffffffffffffffffffffffffffff1673ffffffffffffffffffffffffffffffffffffffff1681525050905080600001518160200151826040015183606001518460800151955095509550955095505091939590929450565b60016020528060005260406000206000915090508060000154908060010180546105fb90610dc8565b80601f016020809104026020016040519081016040528092919081815260200182805461062790610dc8565b80156106745780601f1061064957610100808354040283529160200191610674565b820191906000526020600020905b81548152906001019060200180831161065757829003601f168201915b50505050509080600201805461068990610dc8565b80601f01602080910402602001604051908101604052809291908181526020018280546106b590610dc8565b80156107025780601f106106d757610100808354040283529160200191610702565b820191906000526020600020905b8154815290600101906020018083116106e557829003601f168201915b5050505050908060030154908060040160009054906101000a900473ffffffffffffffffffffffffffffffffffffffff16905085565b60008084511161074757600080fd5b600083511161075557600080fd5b6000821015801561076e5750670de0b6b3a76400008211155b61077757600080fd5b60008081548092919061078990610dfa565b91905055506040518060a0016040528060005481526020018581526020018481526020018381526020013373ffffffffffffffffffffffffffffffffffffffff16815250600160008054815260200190815260200160002060008201518160000155602082015181600101908051906020019061080792919061097d565b50604082015181600201908051906020019061082492919061097d565b506060820151816003015560808201518160040160006101000a81548173ffffffffffffffffffffffffffffffffffffffff021916908373ffffffffffffffffffffffffffffffffffffffff1602179055509050507f0e2769bd597cd7048e25b64a846e1254d4cb84b13c4aba4ad4a891baf7a399c6600054858585336040516108b2959493929190610c61565b60405180910390a160005490509392505050565b60005481565b60008273ffffffffffffffffffffffffffffffffffffffff16826040516108f290610bf6565b60006040518083038185875af1925050503d806000811461092f576040519150601f19603f3d011682016040523d82523d6000602084013e610934565b606091505b5050905080610978576040517f08c379a000000000000000000000000000000000000000000000000000000000815260040161096f90610c26565b60405180910390fd5b505050565b82805461098990610dc8565b90600052602060002090601f0160209004810192826109ab57600085556109f2565b82601f106109c457805160ff19168380011785556109f2565b828001600101855582156109f2579182015b828111156109f15782518255916020019190600101906109d6565b5b5090506109ff9190610a03565b5090565b5b80821115610a1c576000816000905550600101610a04565b5090565b6000610a33610a2e84610cf3565b610cc2565b905082815260208101848484011115610a4b57600080fd5b610a56848285610d86565b509392505050565b600082601f830112610a6f57600080fd5b8135610a7f848260208601610a20565b91505092915050565b600081359050610a9781610ee1565b92915050565b600080600060608486031215610ab257600080fd5b600084013567ffffffffffffffff811115610acc57600080fd5b610ad886828701610a5e565b935050602084013567ffffffffffffffff811115610af557600080fd5b610b0186828701610a5e565b9250506040610b1286828701610a88565b9150509250925092565b600060208284031215610b2e57600080fd5b6000610b3c84828501610a88565b91505092915050565b610b4e81610d4a565b82525050565b6000610b5f82610d23565b610b698185610d39565b9350610b79818560208601610d95565b610b8281610ed0565b840191505092915050565b6000610b9a601483610d39565b91507f4661696c656420746f2073656e642045746865720000000000000000000000006000830152602082019050919050565b6000610bda600083610d2e565b9150600082019050919050565b610bf081610d7c565b82525050565b6000610c0182610bcd565b9150819050919050565b6000602082019050610c206000830184610b45565b92915050565b60006020820190508181036000830152610c3f81610b8d565b9050919050565b6000602082019050610c5b6000830184610be7565b92915050565b600060a082019050610c766000830188610be7565b8181036020830152610c888187610b54565b90508181036040830152610c9c8186610b54565b9050610cab6060830185610be7565b610cb86080830184610b45565b9695505050505050565b6000604051905081810181811067ffffffffffffffff82111715610ce957610ce8610ea1565b5b8060405250919050565b600067ffffffffffffffff821115610d0e57610d0d610ea1565b5b601f19601f8301169050602081019050919050565b600081519050919050565b600081905092915050565b600082825260208201905092915050565b6000610d5582610d5c565b9050919050565b600073ffffffffffffffffffffffffffffffffffffffff82169050919050565b6000819050919050565b82818337600083830152505050565b60005b83811015610db3578082015181840152602081019050610d98565b83811115610dc2576000848401525b50505050565b60006002820490506001821680610de057607f821691505b60208210811415610df457610df3610e72565b5b50919050565b6000610e0582610d7c565b91507fffffffffffffffffffffffffffffffffffffffffffffffffffffffffffffffff821415610e3857610e37610e43565b5b600182019050919050565b7f4e487b7100000000000000000000000000000000000000000000000000000000600052601160045260246000fd5b7f4e487b7100000000000000000000000000000000000000000000000000000000600052602260045260246000fd5b7f4e487b7100000000000000000000000000000000000000000000000000000000600052604160045260246000fd5b6000601f19601f8301169050919050565b610eea81610d7c565b8114610ef557600080fd5b5056fea26469706673582212209d5577a50f90d5cbceb4515ab9b0074596b2cf9fa0ffca3347bc8443986fd3a364736f6c63430008000033",
  "immutableReferences": {},
  "source": "//SPDX-License-Identifier: MIT\r\npragma solidity ^0.8.0;\r\n\r\ncontract BShiksha {\r\n    receive() external payable {}\r\n    fallback() external payable {}\r\n\r\n    uint256 public PostCount = 0;\r\n    mapping(uint256 => Post) public Posts;\r\n\r\n    struct Post {\r\n        uint256 id;\r\n        string hash;\r\n        string description;\r\n        uint256 viewCost;\r\n        address payable author;\r\n    }\r\n\r\n    Post[] public posts;\r\n\r\n    event PostCreated(\r\n        uint256 id,\r\n        string hash,\r\n        string description,\r\n        uint256 viewCost,\r\n        address payable author\r\n    );\r\n    event TransactionCompleted(\r\n        address payable indexed author,\r\n        uint256 amount\r\n    );\r\n\r\n    function uploadPost (\r\n        string memory _PostHash,\r\n        string memory _description,\r\n        uint256 _viewCost\r\n    ) public returns (uint256) {\r\n        require(bytes(_PostHash).length > 0);\r\n        require(bytes(_description).length > 0);\r\n        require(_viewCost >= 0 && _viewCost <= 1000000000000000000);\r\n        PostCount++;\r\n        Posts[PostCount] = Post(\r\n            PostCount,\r\n            _PostHash,\r\n            _description,\r\n            _viewCost,\r\n            payable(msg.sender)\r\n        );\r\n\r\n        emit PostCreated(\r\n            PostCount,\r\n            _PostHash,\r\n            _description,\r\n            _viewCost,\r\n            payable(msg.sender)\r\n        );\r\n\r\n        return PostCount;\r\n    }\r\n\r\n    function callPost(uint256 postId) public view returns (\r\n        uint256 id,\r\n        string memory hash,\r\n        string memory description,\r\n        uint256 viewCost,\r\n        address payable author\r\n        ) {\r\n            Post memory post = Posts[postId];\r\n            return (\r\n                post.id,\r\n                post.hash,\r\n                post.description,\r\n                post.viewCost, \r\n                post.author\r\n            );\r\n        }\r\n\r\n    function transactPost(uint256 postId) public payable returns(\r\n        address payable author\r\n    )\r\n    {\r\n        require(msg.value == Posts[postId].viewCost);\r\n        author = Posts[postId].author;\r\n        emit TransactionCompleted(author, msg.value);\r\n        sendViaCall(payable(address(author)), msg.value);\r\n        return author;\r\n    }\r\n   \r\n   function sendViaCall(address payable _to, uint256 _amount) internal {\r\n        (bool sent, ) = _to.call{value: _amount}(\"\");\r\n        require(sent, \"Failed to send Ether\");\r\n    }\r\n}",
  "sourcePath": "D:\\coding\\blockchain\\new\\bshiksha\\contracts\\NewPost.sol",
  "compiler": {
    "name": "solc",
    "version": "0.8.0+commit.c7dfd78e.Emscripten.clang"
  },
  "schemaVersion": "3.4.16",
  "updatedAt": "2024-04-26T23:03:26.493Z",
  "networkType": "ethereum",
  "devdoc": {
    "kind": "dev",
    "methods": {},
    "version": 1
  },
  "userdoc": {
    "kind": "user",
    "methods": {},
    "version": 1
  }
}