{
  "contractName": "BShiksha",
  "abi": [
    {
      "anonymous": false,
      "inputs": [
        {
          "indexed": false,
          "internalType": "uint256",
          "name": "id",
          "type": "uint256"
        },
        {
          "indexed": false,
          "internalType": "string",
          "name": "title",
          "type": "string"
        },
        {
          "indexed": false,
          "internalType": "string",
          "name": "hash",
          "type": "string"
        },
        {
          "indexed": false,
          "internalType": "string",
          "name": "description",
          "type": "string"
        },
        {
          "indexed": false,
          "internalType": "uint256",
          "name": "tipAmount",
          "type": "uint256"
        },
        {
          "indexed": false,
          "internalType": "uint256",
          "name": "viewCost",
          "type": "uint256"
        },
        {
          "indexed": false,
          "internalType": "address payable",
          "name": "author",
          "type": "address"
        }
      ],
      "name": "PostCreated",
      "type": "event"
    },
    {
      "anonymous": false,
      "inputs": [
        {
          "indexed": false,
          "internalType": "uint256",
          "name": "id",
          "type": "uint256"
        },
        {
          "indexed": false,
          "internalType": "string",
          "name": "title",
          "type": "string"
        },
        {
          "indexed": false,
          "internalType": "string",
          "name": "hash",
          "type": "string"
        },
        {
          "indexed": false,
          "internalType": "string",
          "name": "description",
          "type": "string"
        },
        {
          "indexed": false,
          "internalType": "uint256",
          "name": "tipAmount",
          "type": "uint256"
        },
        {
          "indexed": false,
          "internalType": "uint256",
          "name": "viewCost",
          "type": "uint256"
        },
        {
          "indexed": false,
          "internalType": "address payable",
          "name": "author",
          "type": "address"
        }
      ],
      "name": "PostTipped",
      "type": "event"
    },
    {
      "anonymous": false,
      "inputs": [
        {
          "indexed": false,
          "internalType": "uint256",
          "name": "id",
          "type": "uint256"
        },
        {
          "indexed": false,
          "internalType": "string",
          "name": "title",
          "type": "string"
        },
        {
          "indexed": false,
          "internalType": "string",
          "name": "hash",
          "type": "string"
        },
        {
          "indexed": false,
          "internalType": "string",
          "name": "description",
          "type": "string"
        },
        {
          "indexed": false,
          "internalType": "uint256",
          "name": "tipAmount",
          "type": "uint256"
        },
        {
          "indexed": false,
          "internalType": "uint256",
          "name": "viewCost",
          "type": "uint256"
        },
        {
          "indexed": false,
          "internalType": "address payable",
          "name": "author",
          "type": "address"
        }
      ],
      "name": "PostViewed",
      "type": "event"
    },
    {
      "anonymous": false,
      "inputs": [
        {
          "indexed": false,
          "internalType": "string",
          "name": "userName",
          "type": "string"
        },
        {
          "indexed": false,
          "internalType": "string",
          "name": "userEmail",
          "type": "string"
        },
        {
          "indexed": false,
          "internalType": "bool",
          "name": "isProfessor",
          "type": "bool"
        },
        {
          "indexed": false,
          "internalType": "string",
          "name": "universityName",
          "type": "string"
        },
        {
          "indexed": false,
          "internalType": "address payable",
          "name": "walletId",
          "type": "address"
        }
      ],
      "name": "UserSignedUp",
      "type": "event"
    },
    {
      "inputs": [],
      "name": "PostCount",
      "outputs": [
        {
          "internalType": "uint256",
          "name": "",
          "type": "uint256"
        }
      ],
      "stateMutability": "view",
      "type": "function",
      "constant": true
    },
    {
      "inputs": [
        {
          "internalType": "uint256",
          "name": "",
          "type": "uint256"
        }
      ],
      "name": "Posts",
      "outputs": [
        {
          "internalType": "uint256",
          "name": "id",
          "type": "uint256"
        },
        {
          "internalType": "string",
          "name": "title",
          "type": "string"
        },
        {
          "internalType": "string",
          "name": "hash",
          "type": "string"
        },
        {
          "internalType": "string",
          "name": "description",
          "type": "string"
        },
        {
          "internalType": "uint256",
          "name": "tipAmount",
          "type": "uint256"
        },
        {
          "internalType": "uint256",
          "name": "viewCost",
          "type": "uint256"
        },
        {
          "internalType": "address payable",
          "name": "author",
          "type": "address"
        }
      ],
      "stateMutability": "view",
      "type": "function",
      "constant": true
    },
    {
      "inputs": [
        {
          "internalType": "uint256",
          "name": "",
          "type": "uint256"
        }
      ],
      "name": "posts",
      "outputs": [
        {
          "internalType": "uint256",
          "name": "id",
          "type": "uint256"
        },
        {
          "internalType": "string",
          "name": "title",
          "type": "string"
        },
        {
          "internalType": "string",
          "name": "hash",
          "type": "string"
        },
        {
          "internalType": "string",
          "name": "description",
          "type": "string"
        },
        {
          "internalType": "uint256",
          "name": "tipAmount",
          "type": "uint256"
        },
        {
          "internalType": "uint256",
          "name": "viewCost",
          "type": "uint256"
        },
        {
          "internalType": "address payable",
          "name": "author",
          "type": "address"
        }
      ],
      "stateMutability": "view",
      "type": "function",
      "constant": true
    },
    {
      "inputs": [
        {
          "internalType": "address",
          "name": "",
          "type": "address"
        }
      ],
      "name": "users",
      "outputs": [
        {
          "internalType": "string",
          "name": "userName",
          "type": "string"
        },
        {
          "internalType": "string",
          "name": "userEmail",
          "type": "string"
        },
        {
          "internalType": "bool",
          "name": "isProfessor",
          "type": "bool"
        },
        {
          "internalType": "string",
          "name": "universityName",
          "type": "string"
        },
        {
          "internalType": "address payable",
          "name": "walletId",
          "type": "address"
        }
      ],
      "stateMutability": "view",
      "type": "function",
      "constant": true
    },
    {
      "inputs": [
        {
          "internalType": "uint256",
          "name": "_postId",
          "type": "uint256"
        },
        {
          "internalType": "string",
          "name": "_postTitle",
          "type": "string"
        },
        {
          "internalType": "string",
          "name": "_postHash",
          "type": "string"
        },
        {
          "internalType": "string",
          "name": "_postDescription",
          "type": "string"
        },
        {
          "internalType": "uint256",
          "name": "_viewCost",
          "type": "uint256"
        }
      ],
      "name": "uploadPost",
      "outputs": [
        {
          "internalType": "uint256",
          "name": "",
          "type": "uint256"
        }
      ],
      "stateMutability": "nonpayable",
      "type": "function"
    },
    {
      "inputs": [
        {
          "internalType": "uint256",
          "name": "_id",
          "type": "uint256"
        }
      ],
      "name": "tipPostOwner",
      "outputs": [],
      "stateMutability": "payable",
      "type": "function",
      "payable": true
    },
    {
      "inputs": [
        {
          "internalType": "uint256",
          "name": "postId",
          "type": "uint256"
        }
      ],
      "name": "getPost",
      "outputs": [
        {
          "internalType": "uint256",
          "name": "id",
          "type": "uint256"
        },
        {
          "internalType": "string",
          "name": "title",
          "type": "string"
        },
        {
          "internalType": "string",
          "name": "hash",
          "type": "string"
        },
        {
          "internalType": "string",
          "name": "description",
          "type": "string"
        },
        {
          "internalType": "uint256",
          "name": "tipAmount",
          "type": "uint256"
        },
        {
          "internalType": "uint256",
          "name": "viewCost",
          "type": "uint256"
        },
        {
          "internalType": "address payable",
          "name": "author",
          "type": "address"
        }
      ],
      "stateMutability": "view",
      "type": "function",
      "constant": true
    },
    {
      "inputs": [
        {
          "internalType": "uint256",
          "name": "_postId",
          "type": "uint256"
        }
      ],
      "name": "viewPost",
      "outputs": [],
      "stateMutability": "payable",
      "type": "function",
      "payable": true
    },
    {
      "inputs": [
        {
          "internalType": "address",
          "name": "_walletId",
          "type": "address"
        }
      ],
      "name": "getUser",
      "outputs": [
        {
          "internalType": "string",
          "name": "userName",
          "type": "string"
        },
        {
          "internalType": "string",
          "name": "userEmail",
          "type": "string"
        },
        {
          "internalType": "bool",
          "name": "isProfessor",
          "type": "bool"
        },
        {
          "internalType": "string",
          "name": "universityName",
          "type": "string"
        },
        {
          "internalType": "address payable",
          "name": "walletId",
          "type": "address"
        }
      ],
      "stateMutability": "view",
      "type": "function",
      "constant": true
    },
    {
      "inputs": [
        {
          "internalType": "string",
          "name": "_userName",
          "type": "string"
        },
        {
          "internalType": "string",
          "name": "_userEmail",
          "type": "string"
        },
        {
          "internalType": "bool",
          "name": "_isProfessor",
          "type": "bool"
        },
        {
          "internalType": "string",
          "name": "_universityName",
          "type": "string"
        }
      ],
      "name": "signUpUser",
      "outputs": [],
      "stateMutability": "nonpayable",
      "type": "function"
    }
  ],
  "bytecode": "0x6080604052600060015534801561001557600080fd5b50612405806100256000396000f3fe6080604052600436106100915760003560e01c80636f77926b116100595780636f77926b146101b8578063a2d1eceb146101f9578063a7b0c26a14610224578063a87430ba1461024d578063d6313c061461028e57610091565b806303c0f7d2146100965780630b1e7f83146100b257806340731c24146100f55780634de416e7146101385780634fafef1a14610175575b600080fd5b6100b060048036038101906100ab9190611aaf565b6102aa565b005b3480156100be57600080fd5b506100d960048036038101906100d49190611aaf565b610601565b6040516100ec9796959493929190611fc8565b60405180910390f35b34801561010157600080fd5b5061011c60048036038101906101179190611aaf565b61080b565b60405161012f9796959493929190611fc8565b60405180910390f35b34801561014457600080fd5b5061015f600480360381019061015a9190611ad8565b610a9f565b60405161016c9190611f29565b60405180910390f35b34801561018157600080fd5b5061019c60048036038101906101979190611aaf565b610c9b565b6040516101af9796959493929190611fc8565b60405180910390f35b3480156101c457600080fd5b506101df60048036038101906101da91906119db565b610e95565b6040516101f0959493929190611e21565b60405180910390f35b34801561020557600080fd5b5061020e61120f565b60405161021b9190611f29565b60405180910390f35b34801561023057600080fd5b5061024b60048036038101906102469190611a04565b611215565b005b34801561025957600080fd5b50610274600480360381019061026f91906119db565b611468565b604051610285959493929190611e21565b60405180910390f35b6102a860048036038101906102a39190611aaf565b611663565b005b600081101580156102bd57506001548111155b6102c657600080fd5b6000600260008381526020019081526020016000206040518060e00160405290816000820154815260200160018201805461030090612271565b80601f016020809104026020016040519081016040528092919081815260200182805461032c90612271565b80156103795780601f1061034e57610100808354040283529160200191610379565b820191906000526020600020905b81548152906001019060200180831161035c57829003601f168201915b5050505050815260200160028201805461039290612271565b80601f01602080910402602001604051908101604052809291908181526020018280546103be90612271565b801561040b5780601f106103e05761010080835404028352916020019161040b565b820191906000526020600020905b8154815290600101906020018083116103ee57829003601f168201915b5050505050815260200160038201805461042490612271565b80601f016020809104026020016040519081016040528092919081815260200182805461045090612271565b801561049d5780601f106104725761010080835404028352916020019161049d565b820191906000526020600020905b81548152906001019060200180831161048057829003601f168201915b5050505050815260200160048201548152602001600582015481526020016006820160009054906101000a900473ffffffffffffffffffffffffffffffffffffffff1673ffffffffffffffffffffffffffffffffffffffff1673ffffffffffffffffffffffffffffffffffffffff168152505090508060c0015173ffffffffffffffffffffffffffffffffffffffff163373ffffffffffffffffffffffffffffffffffffffff16141561055057506105fe565b8060a00151341015610597576040517f08c379a000000000000000000000000000000000000000000000000000000000815260040161058e90611ea9565b60405180910390fd5b6105a58160c00151346117e0565b7f034dc2d2ca5bdf717536388a6ad72597d7a27c4a2283649f0c188c79a0957d91828260200151836040015184606001518560800151348760c001516040516105f49796959493929190611fc8565b60405180910390a1505b50565b6003818154811061061157600080fd5b906000526020600020906007020160009150905080600001549080600101805461063a90612271565b80601f016020809104026020016040519081016040528092919081815260200182805461066690612271565b80156106b35780601f10610688576101008083540402835291602001916106b3565b820191906000526020600020905b81548152906001019060200180831161069657829003601f168201915b5050505050908060020180546106c890612271565b80601f01602080910402602001604051908101604052809291908181526020018280546106f490612271565b80156107415780601f1061071657610100808354040283529160200191610741565b820191906000526020600020905b81548152906001019060200180831161072457829003601f168201915b50505050509080600301805461075690612271565b80601f016020809104026020016040519081016040528092919081815260200182805461078290612271565b80156107cf5780601f106107a4576101008083540402835291602001916107cf565b820191906000526020600020905b8154815290600101906020018083116107b257829003601f168201915b5050505050908060040154908060050154908060060160009054906101000a900473ffffffffffffffffffffffffffffffffffffffff16905087565b60006060806060600080600080600260008a81526020019081526020016000206040518060e00160405290816000820154815260200160018201805461085090612271565b80601f016020809104026020016040519081016040528092919081815260200182805461087c90612271565b80156108c95780601f1061089e576101008083540402835291602001916108c9565b820191906000526020600020905b8154815290600101906020018083116108ac57829003601f168201915b505050505081526020016002820180546108e290612271565b80601f016020809104026020016040519081016040528092919081815260200182805461090e90612271565b801561095b5780601f106109305761010080835404028352916020019161095b565b820191906000526020600020905b81548152906001019060200180831161093e57829003601f168201915b5050505050815260200160038201805461097490612271565b80601f01602080910402602001604051908101604052809291908181526020018280546109a090612271565b80156109ed5780601f106109c2576101008083540402835291602001916109ed565b820191906000526020600020905b8154815290600101906020018083116109d057829003601f168201915b5050505050815260200160048201548152602001600582015481526020016006820160009054906101000a900473ffffffffffffffffffffffffffffffffffffffff1673ffffffffffffffffffffffffffffffffffffffff1673ffffffffffffffffffffffffffffffffffffffff16815250509050806000015181602001518260400151836060015184608001518560a001518660c00151975097509750975097509750975050919395979092949650565b600080845111610aae57600080fd5b6000835111610abc57600080fd5b60008210158015610ad657506802b5e3af16b18800008211155b610b15576040517f08c379a0000000000000000000000000000000000000000000000000000000008152600401610b0c90611ec9565b60405180910390fd5b60016000815480929190610b28906122a3565b91905055506040518060e00160405280878152602001868152602001858152602001848152602001600081526020018381526020013373ffffffffffffffffffffffffffffffffffffffff1681525060026000888152602001908152602001600020600082015181600001556020820151816001019080519060200190610bb0929190611891565b506040820151816002019080519060200190610bcd929190611891565b506060820151816003019080519060200190610bea929190611891565b506080820151816004015560a0820151816005015560c08201518160060160006101000a81548173ffffffffffffffffffffffffffffffffffffffff021916908373ffffffffffffffffffffffffffffffffffffffff1602179055509050507f4f42357ee7b75fb57983e74a99615ff960e8965d9263ff34af5e6bbe805114828686868660008733604051610c859796959493929190611f44565b60405180910390a1600154905095945050505050565b6002602052806000526040600020600091509050806000015490806001018054610cc490612271565b80601f0160208091040260200160405190810160405280929190818152602001828054610cf090612271565b8015610d3d5780601f10610d1257610100808354040283529160200191610d3d565b820191906000526020600020905b815481529060010190602001808311610d2057829003601f168201915b505050505090806002018054610d5290612271565b80601f0160208091040260200160405190810160405280929190818152602001828054610d7e90612271565b8015610dcb5780601f10610da057610100808354040283529160200191610dcb565b820191906000526020600020905b815481529060010190602001808311610dae57829003601f168201915b505050505090806003018054610de090612271565b80601f0160208091040260200160405190810160405280929190818152602001828054610e0c90612271565b8015610e595780601f10610e2e57610100808354040283529160200191610e59565b820191906000526020600020905b815481529060010190602001808311610e3c57829003601f168201915b5050505050908060040154908060050154908060060160009054906101000a900473ffffffffffffffffffffffffffffffffffffffff16905087565b6060806000606060008073ffffffffffffffffffffffffffffffffffffffff166000808873ffffffffffffffffffffffffffffffffffffffff1673ffffffffffffffffffffffffffffffffffffffff16815260200190815260200160002060040160009054906101000a900473ffffffffffffffffffffffffffffffffffffffff1673ffffffffffffffffffffffffffffffffffffffff161415610f6e576040517f08c379a0000000000000000000000000000000000000000000000000000000008152600401610f6590611f09565b60405180910390fd5b60008060008873ffffffffffffffffffffffffffffffffffffffff1673ffffffffffffffffffffffffffffffffffffffff1681526020019081526020016000206040518060a0016040529081600082018054610fc990612271565b80601f0160208091040260200160405190810160405280929190818152602001828054610ff590612271565b80156110425780601f1061101757610100808354040283529160200191611042565b820191906000526020600020905b81548152906001019060200180831161102557829003601f168201915b5050505050815260200160018201805461105b90612271565b80601f016020809104026020016040519081016040528092919081815260200182805461108790612271565b80156110d45780601f106110a9576101008083540402835291602001916110d4565b820191906000526020600020905b8154815290600101906020018083116110b757829003601f168201915b505050505081526020016002820160009054906101000a900460ff1615151515815260200160038201805461110890612271565b80601f016020809104026020016040519081016040528092919081815260200182805461113490612271565b80156111815780601f1061115657610100808354040283529160200191611181565b820191906000526020600020905b81548152906001019060200180831161116457829003601f168201915b505050505081526020016004820160009054906101000a900473ffffffffffffffffffffffffffffffffffffffff1673ffffffffffffffffffffffffffffffffffffffff1673ffffffffffffffffffffffffffffffffffffffff1681525050905080600001518160200151826040015183606001518460800151955095509550955095505091939590929450565b60015481565b600073ffffffffffffffffffffffffffffffffffffffff166000803373ffffffffffffffffffffffffffffffffffffffff1673ffffffffffffffffffffffffffffffffffffffff16815260200190815260200160002060040160009054906101000a900473ffffffffffffffffffffffffffffffffffffffff1673ffffffffffffffffffffffffffffffffffffffff16146112e5576040517f08c379a00000000000000000000000000000000000000000000000000000000081526004016112dc90611ee9565b60405180910390fd5b6040518060a0016040528085815260200184815260200183151581526020018281526020013373ffffffffffffffffffffffffffffffffffffffff168152506000803373ffffffffffffffffffffffffffffffffffffffff1673ffffffffffffffffffffffffffffffffffffffff168152602001908152602001600020600082015181600001908051906020019061137e929190611891565b50602082015181600101908051906020019061139b929190611891565b5060408201518160020160006101000a81548160ff02191690831515021790555060608201518160030190805190602001906113d8929190611891565b5060808201518160040160006101000a81548173ffffffffffffffffffffffffffffffffffffffff021916908373ffffffffffffffffffffffffffffffffffffffff1602179055509050507fdd3c553ab9875abd1ac8f977d700e4081431605a11587a93ceebd4da49e3ca7d848484843360405161145a959493929190611e21565b60405180910390a150505050565b600060205280600052604060002060009150905080600001805461148b90612271565b80601f01602080910402602001604051908101604052809291908181526020018280546114b790612271565b80156115045780601f106114d957610100808354040283529160200191611504565b820191906000526020600020905b8154815290600101906020018083116114e757829003601f168201915b50505050509080600101805461151990612271565b80601f016020809104026020016040519081016040528092919081815260200182805461154590612271565b80156115925780601f1061156757610100808354040283529160200191611592565b820191906000526020600020905b81548152906001019060200180831161157557829003601f168201915b5050505050908060020160009054906101000a900460ff16908060030180546115ba90612271565b80601f01602080910402602001604051908101604052809291908181526020018280546115e690612271565b80156116335780601f1061160857610100808354040283529160200191611633565b820191906000526020600020905b81548152906001019060200180831161161657829003601f168201915b5050505050908060040160009054906101000a900473ffffffffffffffffffffffffffffffffffffffff16905085565b6000811015801561167657506001548111155b61167f57600080fd5b60006002600083815260200190815260200160002060060160009054906101000a900473ffffffffffffffffffffffffffffffffffffffff1690508073ffffffffffffffffffffffffffffffffffffffff166108fc349081150290604051600060405180830381858888f19350505050158015611700573d6000803e3d6000fd5b5034600260008481526020019081526020016000206004016000828254611727919061216d565b925050819055507f4cc6fc4d0f7a1c30341dd42d0b86597c13a3f0df5e035b8b2ad6fc1cb689272f8260026000858152602001908152602001600020600101600260008681526020019081526020016000206002016002600087815260200190815260200160002060030160026000888152602001908152602001600020600401546002600089815260200190815260200160002060050154876040516117d4979695949392919061204c565b60405180910390a15050565b60008273ffffffffffffffffffffffffffffffffffffffff168260405161180690611e0c565b60006040518083038185875af1925050503d8060008114611843576040519150601f19603f3d011682016040523d82523d6000602084013e611848565b606091505b505090508061188c576040517f08c379a000000000000000000000000000000000000000000000000000000000815260040161188390611e89565b60405180910390fd5b505050565b82805461189d90612271565b90600052602060002090601f0160209004810192826118bf5760008555611906565b82601f106118d857805160ff1916838001178555611906565b82800160010185558215611906579182015b828111156119055782518255916020019190600101906118ea565b5b5090506119139190611917565b5090565b5b80821115611930576000816000905550600101611918565b5090565b600061194761194284612101565b6120d0565b90508281526020810184848401111561195f57600080fd5b61196a84828561222f565b509392505050565b6000813590506119818161238a565b92915050565b600081359050611996816123a1565b92915050565b600082601f8301126119ad57600080fd5b81356119bd848260208601611934565b91505092915050565b6000813590506119d5816123b8565b92915050565b6000602082840312156119ed57600080fd5b60006119fb84828501611972565b91505092915050565b60008060008060808587031215611a1a57600080fd5b600085013567ffffffffffffffff811115611a3457600080fd5b611a408782880161199c565b945050602085013567ffffffffffffffff811115611a5d57600080fd5b611a698782880161199c565b9350506040611a7a87828801611987565b925050606085013567ffffffffffffffff811115611a9757600080fd5b611aa38782880161199c565b91505092959194509250565b600060208284031215611ac157600080fd5b6000611acf848285016119c6565b91505092915050565b600080600080600060a08688031215611af057600080fd5b6000611afe888289016119c6565b955050602086013567ffffffffffffffff811115611b1b57600080fd5b611b278882890161199c565b945050604086013567ffffffffffffffff811115611b4457600080fd5b611b508882890161199c565b935050606086013567ffffffffffffffff811115611b6d57600080fd5b611b798882890161199c565b9250506080611b8a888289016119c6565b9150509295509295909350565b611ba0816121d5565b82525050565b611baf816121e7565b82525050565b611bbe8161221d565b82525050565b6000611bcf82612146565b611bd9818561215c565b9350611be981856020860161223e565b611bf281612379565b840191505092915050565b60008154611c0a81612271565b611c14818661215c565b94506001821660008114611c2f5760018114611c4157611c74565b60ff1983168652602086019350611c74565b611c4a85612131565b60005b83811015611c6c57815481890152600182019150602081019050611c4d565b808801955050505b50505092915050565b6000611c8a60148361215c565b91507f4661696c656420746f2073656e642045746865720000000000000000000000006000830152602082019050919050565b6000611cca60258361215c565b91507f496e73756666696369656e74207061796d656e7420746f20766965772074686560008301527f20706f73740000000000000000000000000000000000000000000000000000006020830152604082019050919050565b6000611d3060128361215c565b91507f5365742056616c756520302d35302045544800000000000000000000000000006000830152602082019050919050565b6000611d7060138361215c565b91507f5573657220616c726561647920657869737473000000000000000000000000006000830152602082019050919050565b6000611db0600083612151565b9150600082019050919050565b6000611dca60158361215c565b91507f5573657220646f6573206e6f74206578697374212100000000000000000000006000830152602082019050919050565b611e0681612213565b82525050565b6000611e1782611da3565b9150819050919050565b600060a0820190508181036000830152611e3b8188611bc4565b90508181036020830152611e4f8187611bc4565b9050611e5e6040830186611ba6565b8181036060830152611e708185611bc4565b9050611e7f6080830184611b97565b9695505050505050565b60006020820190508181036000830152611ea281611c7d565b9050919050565b60006020820190508181036000830152611ec281611cbd565b9050919050565b60006020820190508181036000830152611ee281611d23565b9050919050565b60006020820190508181036000830152611f0281611d63565b9050919050565b60006020820190508181036000830152611f2281611dbd565b9050919050565b6000602082019050611f3e6000830184611dfd565b92915050565b600060e082019050611f59600083018a611dfd565b8181036020830152611f6b8189611bc4565b90508181036040830152611f7f8188611bc4565b90508181036060830152611f938187611bc4565b9050611fa26080830186611bb5565b611faf60a0830185611dfd565b611fbc60c0830184611b97565b98975050505050505050565b600060e082019050611fdd600083018a611dfd565b8181036020830152611fef8189611bc4565b905081810360408301526120038188611bc4565b905081810360608301526120178187611bc4565b90506120266080830186611dfd565b61203360a0830185611dfd565b61204060c0830184611b97565b98975050505050505050565b600060e082019050612061600083018a611dfd565b81810360208301526120738189611bfd565b905081810360408301526120878188611bfd565b9050818103606083015261209b8187611bfd565b90506120aa6080830186611dfd565b6120b760a0830185611dfd565b6120c460c0830184611b97565b98975050505050505050565b6000604051905081810181811067ffffffffffffffff821117156120f7576120f661234a565b5b8060405250919050565b600067ffffffffffffffff82111561211c5761211b61234a565b5b601f19601f8301169050602081019050919050565b60008190508160005260206000209050919050565b600081519050919050565b600081905092915050565b600082825260208201905092915050565b600061217882612213565b915061218383612213565b9250827fffffffffffffffffffffffffffffffffffffffffffffffffffffffffffffffff038211156121b8576121b76122ec565b5b828201905092915050565b60006121ce826121f3565b9050919050565b60006121e0826121f3565b9050919050565b60008115159050919050565b600073ffffffffffffffffffffffffffffffffffffffff82169050919050565b6000819050919050565b600061222882612213565b9050919050565b82818337600083830152505050565b60005b8381101561225c578082015181840152602081019050612241565b8381111561226b576000848401525b50505050565b6000600282049050600182168061228957607f821691505b6020821081141561229d5761229c61231b565b5b50919050565b60006122ae82612213565b91507fffffffffffffffffffffffffffffffffffffffffffffffffffffffffffffffff8214156122e1576122e06122ec565b5b600182019050919050565b7f4e487b7100000000000000000000000000000000000000000000000000000000600052601160045260246000fd5b7f4e487b7100000000000000000000000000000000000000000000000000000000600052602260045260246000fd5b7f4e487b7100000000000000000000000000000000000000000000000000000000600052604160045260246000fd5b6000601f19601f8301169050919050565b612393816121c3565b811461239e57600080fd5b50565b6123aa816121e7565b81146123b557600080fd5b50565b6123c181612213565b81146123cc57600080fd5b5056fea264697066735822122057aa3a44122132dcc129c81bca2947475ee2247acc592d3e1f774c7b9d8b132464736f6c63430008000033",
  "immutableReferences": {},
  "source": "// SPDX-License-Identifier: MIT\r\npragma solidity ^0.8.0;\r\n\r\ncontract BShiksha {\r\n    mapping(address => User) public users;\r\n\r\n    struct User {\r\n        string userName;\r\n        string userEmail;\r\n        bool isProfessor;\r\n        string universityName;\r\n        address payable walletId;\r\n    }\r\n\r\n    uint256 public PostCount = 0;\r\n    mapping(uint256 => Post) public Posts;\r\n\r\n    struct Post {\r\n        uint256 id;\r\n        string title;\r\n        string hash;\r\n        string description;\r\n        uint256 tipAmount;\r\n        uint256 viewCost;\r\n        address payable author;\r\n    }\r\n\r\n    Post[] public posts;\r\n\r\n    event UserSignedUp(\r\n        string userName,\r\n        string userEmail,\r\n        bool isProfessor,\r\n        string universityName,\r\n        address payable walletId\r\n    );\r\n\r\n    event PostCreated(\r\n        uint256 id,\r\n        string title,\r\n        string hash,\r\n        string description,\r\n        uint256 tipAmount,\r\n        uint256 viewCost,\r\n        address payable author\r\n    );\r\n\r\n    event PostTipped(\r\n        uint256 id,\r\n        string title,\r\n        string hash,\r\n        string description,\r\n        uint256 tipAmount,\r\n        uint256 viewCost,\r\n        address payable author\r\n    );\r\n\r\n    event PostViewed(\r\n        uint256 id,\r\n        string title,\r\n        string hash,\r\n        string description,\r\n        uint256 tipAmount,\r\n        uint256 viewCost,\r\n        address payable author\r\n    );\r\n\r\n    function uploadPost (\r\n        uint256 _postId,\r\n        string memory _postTitle,\r\n        string memory _postHash,\r\n        string memory _postDescription,\r\n        uint256 _viewCost\r\n    ) public returns (uint256) {\r\n        require(bytes(_postHash).length > 0);\r\n        require(bytes(_postDescription).length > 0);\r\n        require(_viewCost  >= 0 && _viewCost  <= 50 * 1e18, \"Set Value 0-50 ETH\");\r\n\r\n        PostCount++;\r\n\r\n        Posts[_postId] = Post(\r\n            _postId,\r\n            _postTitle,\r\n            _postHash,\r\n            _postDescription,\r\n            0,\r\n            _viewCost,\r\n            payable(msg.sender)\r\n        );\r\n\r\n        emit PostCreated(\r\n            _postId,\r\n            _postTitle,\r\n            _postHash,\r\n            _postDescription,\r\n            0,\r\n            _viewCost,\r\n            payable(msg.sender)\r\n        );\r\n\r\n        return PostCount;\r\n    }\r\n\r\n    function tipPostOwner(uint256 _id) public payable {\r\n        require(_id >= 0 && _id <= PostCount);\r\n        address payable _author = Posts[_id].author;\r\n        _author.transfer(msg.value);\r\n        Posts[_id].tipAmount += msg.value;\r\n        emit PostTipped(\r\n            _id,\r\n            Posts[_id].title,\r\n            Posts[_id].hash,\r\n            Posts[_id].description,\r\n            Posts[_id].tipAmount,\r\n            Posts[_id].viewCost,\r\n            _author\r\n        );\r\n    }\r\n\r\n    function getPost(uint256 postId) public view returns (uint256 id, string memory title, string memory hash, string memory description, uint256 tipAmount, uint256 viewCost, address payable author) {\r\n        Post memory post = Posts[postId];\r\n        return (post.id, post.title, post.hash, post.description, post.tipAmount, post.viewCost, post.author);\r\n    }\r\n\r\n    function viewPost(uint256 _postId) public payable {\r\n        require(_postId >= 0 && _postId <= PostCount);\r\n        Post memory post = Posts[_postId];\r\n        if(msg.sender == post.author) {\r\n            return;\r\n        }\r\n        require(msg.value >= post.viewCost, \"Insufficient payment to view the post\");\r\n        sendViaCall(payable(address(post.author)), msg.value);\r\n        emit PostViewed(\r\n            _postId,\r\n            post.title,\r\n            post.hash,\r\n            post.description,\r\n            post.tipAmount,\r\n            msg.value, \r\n            post.author\r\n        );\r\n    }\r\n\r\n    function sendViaCall(address payable _to, uint256 _amount) internal {\r\n        (bool sent, ) = _to.call{value: _amount}(\"\");\r\n        require(sent, \"Failed to send Ether\");\r\n    }\r\n\r\n    function getUser(\r\n        address _walletId\r\n    )\r\n        public\r\n        view\r\n        returns (\r\n            string memory userName,\r\n            string memory userEmail,\r\n            bool isProfessor,\r\n            string memory universityName,\r\n            address payable walletId\r\n        )\r\n    {\r\n        require(\r\n            users[_walletId].walletId != address(0),\r\n            \"User does not exist!!\"\r\n        );\r\n        User memory user = users[_walletId];\r\n        return (\r\n            user.userName,\r\n            user.userEmail,\r\n            user.isProfessor,\r\n            user.universityName,\r\n            user.walletId\r\n        );\r\n    }\r\n\r\n    function signUpUser(\r\n        string memory _userName,\r\n        string memory _userEmail,\r\n        bool _isProfessor,\r\n        string memory _universityName\r\n    ) public {\r\n        require(\r\n            users[msg.sender].walletId == address(0),\r\n            \"User already exists\"\r\n        );\r\n\r\n        users[msg.sender] = User({\r\n            userName: _userName,\r\n            userEmail: _userEmail,\r\n            isProfessor: _isProfessor,\r\n            universityName: _universityName,\r\n            walletId: payable(msg.sender)\r\n        });\r\n\r\n        emit UserSignedUp(\r\n        _userName,\r\n        _userEmail,\r\n        _isProfessor,\r\n        _universityName,\r\n        payable(msg.sender)\r\n    );\r\n    }\r\n}",
  "sourcePath": "D:\\coding\\blockchain\\new\\New folder\\bshiksha\\contracts\\NewPost.sol",
  "compiler": {
    "name": "solc",
    "version": "0.8.0+commit.c7dfd78e.Emscripten.clang"
  },
  "schemaVersion": "3.4.16",
  "updatedAt": "2024-05-02T21:14:27.519Z",
  "networkType": "ethereum",
  "devdoc": {
    "kind": "dev",
    "methods": {},
    "version": 1
  },
  "userdoc": {
    "kind": "user",
    "methods": {},
    "version": 1
  }
}