{
  "contractName": "BShiksha",
  "abi": [
    {
      "anonymous": false,
      "inputs": [
        {
          "indexed": false,
          "internalType": "uint256",
          "name": "id",
          "type": "uint256"
        },
        {
          "indexed": false,
          "internalType": "string",
          "name": "hash",
          "type": "string"
        },
        {
          "indexed": false,
          "internalType": "string",
          "name": "description",
          "type": "string"
        },
        {
          "indexed": false,
          "internalType": "uint256",
          "name": "tipAmount",
          "type": "uint256"
        },
        {
          "indexed": false,
          "internalType": "uint256",
          "name": "viewCost",
          "type": "uint256"
        },
        {
          "indexed": false,
          "internalType": "address payable",
          "name": "author",
          "type": "address"
        }
      ],
      "name": "PostCreated",
      "type": "event"
    },
    {
      "anonymous": false,
      "inputs": [
        {
          "indexed": false,
          "internalType": "uint256",
          "name": "id",
          "type": "uint256"
        },
        {
          "indexed": false,
          "internalType": "string",
          "name": "hash",
          "type": "string"
        },
        {
          "indexed": false,
          "internalType": "string",
          "name": "description",
          "type": "string"
        },
        {
          "indexed": false,
          "internalType": "uint256",
          "name": "tipAmount",
          "type": "uint256"
        },
        {
          "indexed": false,
          "internalType": "uint256",
          "name": "viewCost",
          "type": "uint256"
        },
        {
          "indexed": false,
          "internalType": "address payable",
          "name": "author",
          "type": "address"
        }
      ],
      "name": "PostTipped",
      "type": "event"
    },
    {
      "anonymous": false,
      "inputs": [
        {
          "indexed": false,
          "internalType": "uint256",
          "name": "id",
          "type": "uint256"
        },
        {
          "indexed": false,
          "internalType": "string",
          "name": "hash",
          "type": "string"
        },
        {
          "indexed": false,
          "internalType": "string",
          "name": "description",
          "type": "string"
        },
        {
          "indexed": false,
          "internalType": "uint256",
          "name": "tipAmount",
          "type": "uint256"
        },
        {
          "indexed": false,
          "internalType": "uint256",
          "name": "viewCost",
          "type": "uint256"
        },
        {
          "indexed": false,
          "internalType": "address payable",
          "name": "author",
          "type": "address"
        }
      ],
      "name": "PostViewed",
      "type": "event"
    },
    {
      "inputs": [],
      "name": "PostCount",
      "outputs": [
        {
          "internalType": "uint256",
          "name": "",
          "type": "uint256"
        }
      ],
      "stateMutability": "view",
      "type": "function",
      "constant": true
    },
    {
      "inputs": [
        {
          "internalType": "uint256",
          "name": "",
          "type": "uint256"
        }
      ],
      "name": "Posts",
      "outputs": [
        {
          "internalType": "uint256",
          "name": "id",
          "type": "uint256"
        },
        {
          "internalType": "string",
          "name": "hash",
          "type": "string"
        },
        {
          "internalType": "string",
          "name": "description",
          "type": "string"
        },
        {
          "internalType": "uint256",
          "name": "tipAmount",
          "type": "uint256"
        },
        {
          "internalType": "uint256",
          "name": "viewCost",
          "type": "uint256"
        },
        {
          "internalType": "address payable",
          "name": "author",
          "type": "address"
        }
      ],
      "stateMutability": "view",
      "type": "function",
      "constant": true
    },
    {
      "inputs": [
        {
          "internalType": "uint256",
          "name": "",
          "type": "uint256"
        }
      ],
      "name": "posts",
      "outputs": [
        {
          "internalType": "uint256",
          "name": "id",
          "type": "uint256"
        },
        {
          "internalType": "string",
          "name": "hash",
          "type": "string"
        },
        {
          "internalType": "string",
          "name": "description",
          "type": "string"
        },
        {
          "internalType": "uint256",
          "name": "tipAmount",
          "type": "uint256"
        },
        {
          "internalType": "uint256",
          "name": "viewCost",
          "type": "uint256"
        },
        {
          "internalType": "address payable",
          "name": "author",
          "type": "address"
        }
      ],
      "stateMutability": "view",
      "type": "function",
      "constant": true
    },
    {
      "inputs": [
        {
          "internalType": "address",
          "name": "",
          "type": "address"
        }
      ],
      "name": "userRoles",
      "outputs": [
        {
          "internalType": "enum BShiksha.Role",
          "name": "",
          "type": "uint8"
        }
      ],
      "stateMutability": "view",
      "type": "function",
      "constant": true
    },
    {
      "inputs": [
        {
          "internalType": "string",
          "name": "_userType",
          "type": "string"
        }
      ],
      "name": "assignUserRoles",
      "outputs": [
        {
          "internalType": "enum BShiksha.Role",
          "name": "",
          "type": "uint8"
        }
      ],
      "stateMutability": "pure",
      "type": "function",
      "constant": true
    },
    {
      "inputs": [
        {
          "internalType": "string",
          "name": "_PostHash",
          "type": "string"
        },
        {
          "internalType": "string",
          "name": "_description",
          "type": "string"
        },
        {
          "internalType": "uint256",
          "name": "_viewCost",
          "type": "uint256"
        }
      ],
      "name": "uploadPost",
      "outputs": [
        {
          "internalType": "uint256",
          "name": "",
          "type": "uint256"
        }
      ],
      "stateMutability": "nonpayable",
      "type": "function"
    },
    {
      "inputs": [
        {
          "internalType": "uint256",
          "name": "_id",
          "type": "uint256"
        }
      ],
      "name": "tipPostOwner",
      "outputs": [],
      "stateMutability": "payable",
      "type": "function",
      "payable": true
    },
    {
      "inputs": [
        {
          "internalType": "uint256",
          "name": "postId",
          "type": "uint256"
        }
      ],
      "name": "getPost",
      "outputs": [
        {
          "internalType": "uint256",
          "name": "id",
          "type": "uint256"
        },
        {
          "internalType": "string",
          "name": "hash",
          "type": "string"
        },
        {
          "internalType": "string",
          "name": "description",
          "type": "string"
        },
        {
          "internalType": "uint256",
          "name": "tipAmount",
          "type": "uint256"
        },
        {
          "internalType": "uint256",
          "name": "viewCost",
          "type": "uint256"
        },
        {
          "internalType": "address payable",
          "name": "author",
          "type": "address"
        }
      ],
      "stateMutability": "view",
      "type": "function",
      "constant": true
    },
    {
      "inputs": [
        {
          "internalType": "uint256",
          "name": "_postId",
          "type": "uint256"
        }
      ],
      "name": "viewPost",
      "outputs": [],
      "stateMutability": "payable",
      "type": "function",
      "payable": true
    }
  ],
  "bytecode": "0x6080604052600060015534801561001557600080fd5b50611a4d806100256000396000f3fe6080604052600436106100865760003560e01c806358114a2d1161005957806358114a2d1461016d57806374d5e100146101aa57806378817346146101e7578063a2d1eceb14610224578063d6313c061461024f57610086565b806303c0f7d21461008b5780630b1e7f83146100a757806340731c24146100e95780634fafef1a1461012b575b600080fd5b6100a560048036038101906100a09190611169565b61026b565b005b3480156100b357600080fd5b506100ce60048036038101906100c99190611169565b6104ea565b6040516100e0969594939291906115ea565b60405180910390f35b3480156100f557600080fd5b50610110600480360381019061010b9190611169565b610666565b604051610122969594939291906115ea565b60405180910390f35b34801561013757600080fd5b50610152600480360381019061014d9190611169565b61085d565b604051610164969594939291906115ea565b60405180910390f35b34801561017957600080fd5b50610194600480360381019061018f91906110a9565b6109c9565b6040516101a191906114c5565b60405180910390f35b3480156101b657600080fd5b506101d160048036038101906101cc9190611080565b610a36565b6040516101de91906114c5565b60405180910390f35b3480156101f357600080fd5b5061020e600480360381019061020991906110ea565b610a56565b60405161021b9190611560565b60405180910390f35b34801561023057600080fd5b50610239610d2f565b6040516102469190611560565b60405180910390f35b61026960048036038101906102649190611169565b610d35565b005b60008111801561027d57506001548111155b61028657600080fd5b6000600260008381526020019081526020016000206040518060c0016040529081600082015481526020016001820180546102c09061188d565b80601f01602080910402602001604051908101604052809291908181526020018280546102ec9061188d565b80156103395780601f1061030e57610100808354040283529160200191610339565b820191906000526020600020905b81548152906001019060200180831161031c57829003601f168201915b505050505081526020016002820180546103529061188d565b80601f016020809104026020016040519081016040528092919081815260200182805461037e9061188d565b80156103cb5780601f106103a0576101008083540402835291602001916103cb565b820191906000526020600020905b8154815290600101906020018083116103ae57829003601f168201915b5050505050815260200160038201548152602001600482015481526020016005820160009054906101000a900473ffffffffffffffffffffffffffffffffffffffff1673ffffffffffffffffffffffffffffffffffffffff1673ffffffffffffffffffffffffffffffffffffffff168152505090508060800151341015610487576040517f08c379a000000000000000000000000000000000000000000000000000000000815260040161047e90611520565b60405180910390fd5b6104958160a0015134610e9a565b7fa66971644db93c1ee0222b8a1339ec43ae2b2bde38db5e569e3ddc4b287dbc0c82826020015183604001518460600151348660a001516040516104de969594939291906115ea565b60405180910390a15050565b600381815481106104fa57600080fd5b90600052602060002090600602016000915090508060000154908060010180546105239061188d565b80601f016020809104026020016040519081016040528092919081815260200182805461054f9061188d565b801561059c5780601f106105715761010080835404028352916020019161059c565b820191906000526020600020905b81548152906001019060200180831161057f57829003601f168201915b5050505050908060020180546105b19061188d565b80601f01602080910402602001604051908101604052809291908181526020018280546105dd9061188d565b801561062a5780601f106105ff5761010080835404028352916020019161062a565b820191906000526020600020905b81548152906001019060200180831161060d57829003601f168201915b5050505050908060030154908060040154908060050160009054906101000a900473ffffffffffffffffffffffffffffffffffffffff16905086565b6000606080600080600080600260008981526020019081526020016000206040518060c0016040529081600082015481526020016001820180546106a99061188d565b80601f01602080910402602001604051908101604052809291908181526020018280546106d59061188d565b80156107225780601f106106f757610100808354040283529160200191610722565b820191906000526020600020905b81548152906001019060200180831161070557829003601f168201915b5050505050815260200160028201805461073b9061188d565b80601f01602080910402602001604051908101604052809291908181526020018280546107679061188d565b80156107b45780601f10610789576101008083540402835291602001916107b4565b820191906000526020600020905b81548152906001019060200180831161079757829003601f168201915b5050505050815260200160038201548152602001600482015481526020016005820160009054906101000a900473ffffffffffffffffffffffffffffffffffffffff1673ffffffffffffffffffffffffffffffffffffffff1673ffffffffffffffffffffffffffffffffffffffff16815250509050806000015181602001518260400151836060015184608001518560a001519650965096509650965096505091939550919395565b60026020528060005260406000206000915090508060000154908060010180546108869061188d565b80601f01602080910402602001604051908101604052809291908181526020018280546108b29061188d565b80156108ff5780601f106108d4576101008083540402835291602001916108ff565b820191906000526020600020905b8154815290600101906020018083116108e257829003601f168201915b5050505050908060020180546109149061188d565b80601f01602080910402602001604051908101604052809291908181526020018280546109409061188d565b801561098d5780601f106109625761010080835404028352916020019161098d565b820191906000526020600020905b81548152906001019060200180831161097057829003601f168201915b5050505050908060030154908060040154908060050160009054906101000a900473ffffffffffffffffffffffffffffffffffffffff16905086565b600080826040516020016109dd9190611484565b604051602081830303815290604052805190602001209050604051602001610a04906114b0565b60405160208183030381529060405280519060200120811415610a2b576000915050610a31565b60019150505b919050565b60006020528060005260406000206000915054906101000a900460ff1681565b6000806001811115610a91577f4e487b7100000000000000000000000000000000000000000000000000000000600052602160045260246000fd5b6000803373ffffffffffffffffffffffffffffffffffffffff1673ffffffffffffffffffffffffffffffffffffffff16815260200190815260200160002060009054906101000a900460ff166001811115610b15577f4e487b7100000000000000000000000000000000000000000000000000000000600052602160045260246000fd5b14610b55576040517f08c379a0000000000000000000000000000000000000000000000000000000008152600401610b4c90611540565b60405180910390fd5b6000845111610b6357600080fd5b6000835111610b7157600080fd5b60008210158015610b8b57506802b5e3af16b18800008211155b610bca576040517f08c379a0000000000000000000000000000000000000000000000000000000008152600401610bc190611500565b60405180910390fd5b60016000815480929190610bdd906118bf565b91905055506040518060c001604052806001548152602001858152602001848152602001600081526020018381526020013373ffffffffffffffffffffffffffffffffffffffff16815250600260006001548152602001908152602001600020600082015181600001556020820151816001019080519060200190610c63929190610f4b565b506040820151816002019080519060200190610c80929190610f4b565b50606082015181600301556080820151816004015560a08201518160050160006101000a81548173ffffffffffffffffffffffffffffffffffffffff021916908373ffffffffffffffffffffffffffffffffffffffff1602179055509050507f8f18cd88b13c06184c3a67d9b79c75dc1e11607408671185f1abce809c68b649600154858560008633604051610d1b9695949392919061157b565b60405180910390a160015490509392505050565b60015481565b600081118015610d4757506001548111155b610d5057600080fd5b60006002600083815260200190815260200160002060050160009054906101000a900473ffffffffffffffffffffffffffffffffffffffff1690508073ffffffffffffffffffffffffffffffffffffffff166108fc349081150290604051600060405180830381858888f19350505050158015610dd1573d6000803e3d6000fd5b5034600260008481526020019081526020016000206003016000828254610df89190611770565b925050819055507f1f2ee66b193fcb0910db6c9747a0c479aaf007650b1f6085fbb42555e8006b308260026000858152602001908152602001600020600101600260008681526020019081526020016000206002016002600087815260200190815260200160002060030154600260008881526020019081526020016000206004015486604051610e8e96959493929190611659565b60405180910390a15050565b60008273ffffffffffffffffffffffffffffffffffffffff1682604051610ec09061149b565b60006040518083038185875af1925050503d8060008114610efd576040519150601f19603f3d011682016040523d82523d6000602084013e610f02565b606091505b5050905080610f46576040517f08c379a0000000000000000000000000000000000000000000000000000000008152600401610f3d906114e0565b60405180910390fd5b505050565b828054610f579061188d565b90600052602060002090601f016020900481019282610f795760008555610fc0565b82601f10610f9257805160ff1916838001178555610fc0565b82800160010185558215610fc0579182015b82811115610fbf578251825591602001919060010190610fa4565b5b509050610fcd9190610fd1565b5090565b5b80821115610fea576000816000905550600101610fd2565b5090565b6000611001610ffc846116f9565b6116c8565b90508281526020810184848401111561101957600080fd5b61102484828561184b565b509392505050565b60008135905061103b816119e9565b92915050565b600082601f83011261105257600080fd5b8135611062848260208601610fee565b91505092915050565b60008135905061107a81611a00565b92915050565b60006020828403121561109257600080fd5b60006110a08482850161102c565b91505092915050565b6000602082840312156110bb57600080fd5b600082013567ffffffffffffffff8111156110d557600080fd5b6110e184828501611041565b91505092915050565b6000806000606084860312156110ff57600080fd5b600084013567ffffffffffffffff81111561111957600080fd5b61112586828701611041565b935050602084013567ffffffffffffffff81111561114257600080fd5b61114e86828701611041565b925050604061115f8682870161106b565b9150509250925092565b60006020828403121561117b57600080fd5b60006111898482850161106b565b91505092915050565b61119b816117d8565b82525050565b6111aa81611827565b82525050565b6111b981611839565b82525050565b60006111ca8261173e565b6111d48185611754565b93506111e481856020860161185a565b6111ed816119c4565b840191505092915050565b60006112038261173e565b61120d8185611765565b935061121d81856020860161185a565b80840191505092915050565b600081546112368161188d565b6112408186611754565b9450600182166000811461125b576001811461126d576112a0565b60ff19831686526020860193506112a0565b61127685611729565b60005b8381101561129857815481890152600182019150602081019050611279565b808801955050505b50505092915050565b60006112b6601483611754565b91507f4661696c656420746f2073656e642045746865720000000000000000000000006000830152602082019050919050565b60006112f6603a83611754565b91507f4d6178696d756d2076696577696e6720636f7374206d7573742062652062657460008301527f7765656e20302e30332045544820616e6420302e3037204554480000000000006020830152604082019050919050565b600061135c602583611754565b91507f496e73756666696369656e74207061796d656e7420746f20766965772074686560008301527f20706f73740000000000000000000000000000000000000000000000000000006020830152604082019050919050565b60006113c2602583611754565b91507f4f6e6c7920666163756c7479206d656d626572732063616e206372656174652060008301527f706f7374730000000000000000000000000000000000000000000000000000006020830152604082019050919050565b6000611428600083611749565b9150600082019050919050565b6000611442600783611765565b91507f666163756c7479000000000000000000000000000000000000000000000000006000830152600782019050919050565b61147e8161181d565b82525050565b600061149082846111f8565b915081905092915050565b60006114a68261141b565b9150819050919050565b60006114bb82611435565b9150819050919050565b60006020820190506114da60008301846111a1565b92915050565b600060208201905081810360008301526114f9816112a9565b9050919050565b60006020820190508181036000830152611519816112e9565b9050919050565b600060208201905081810360008301526115398161134f565b9050919050565b60006020820190508181036000830152611559816113b5565b9050919050565b60006020820190506115756000830184611475565b92915050565b600060c0820190506115906000830189611475565b81810360208301526115a281886111bf565b905081810360408301526115b681876111bf565b90506115c560608301866111b0565b6115d26080830185611475565b6115df60a0830184611192565b979650505050505050565b600060c0820190506115ff6000830189611475565b818103602083015261161181886111bf565b9050818103604083015261162581876111bf565b90506116346060830186611475565b6116416080830185611475565b61164e60a0830184611192565b979650505050505050565b600060c08201905061166e6000830189611475565b81810360208301526116808188611229565b905081810360408301526116948187611229565b90506116a36060830186611475565b6116b06080830185611475565b6116bd60a0830184611192565b979650505050505050565b6000604051905081810181811067ffffffffffffffff821117156116ef576116ee611995565b5b8060405250919050565b600067ffffffffffffffff82111561171457611713611995565b5b601f19601f8301169050602081019050919050565b60008190508160005260206000209050919050565b600081519050919050565b600081905092915050565b600082825260208201905092915050565b600081905092915050565b600061177b8261181d565b91506117868361181d565b9250827fffffffffffffffffffffffffffffffffffffffffffffffffffffffffffffffff038211156117bb576117ba611908565b5b828201905092915050565b60006117d1826117fd565b9050919050565b60006117e3826117fd565b9050919050565b60008190506117f8826119d5565b919050565b600073ffffffffffffffffffffffffffffffffffffffff82169050919050565b6000819050919050565b6000611832826117ea565b9050919050565b60006118448261181d565b9050919050565b82818337600083830152505050565b60005b8381101561187857808201518184015260208101905061185d565b83811115611887576000848401525b50505050565b600060028204905060018216806118a557607f821691505b602082108114156118b9576118b8611966565b5b50919050565b60006118ca8261181d565b91507fffffffffffffffffffffffffffffffffffffffffffffffffffffffffffffffff8214156118fd576118fc611908565b5b600182019050919050565b7f4e487b7100000000000000000000000000000000000000000000000000000000600052601160045260246000fd5b7f4e487b7100000000000000000000000000000000000000000000000000000000600052602160045260246000fd5b7f4e487b7100000000000000000000000000000000000000000000000000000000600052602260045260246000fd5b7f4e487b7100000000000000000000000000000000000000000000000000000000600052604160045260246000fd5b6000601f19601f8301169050919050565b600281106119e6576119e5611937565b5b50565b6119f2816117c6565b81146119fd57600080fd5b50565b611a098161181d565b8114611a1457600080fd5b5056fea26469706673582212209a3591ad484e6ec619ae1a2e591c696cc9f7c778fe52cd887a5b80822c10cbe464736f6c63430008000033",
  "immutableReferences": {},
  "source": "// SPDX-License-Identifier: MIT\r\npragma solidity ^0.8.0;\r\n\r\ncontract BShiksha {\r\n    // Enum to represent user roles\r\n    enum Role {\r\n        Faculty,\r\n        Viewer\r\n    }\r\n\r\n    // Mapping to store user addresses and their roles\r\n    mapping(address => Role) public userRoles;\r\n\r\n    function assignUserRoles(string memory _userType) public pure returns (Role) {\r\n        // Convert user type to lowercase for case-insensitive comparison\r\n        bytes32 userType = keccak256(abi.encodePacked(_userType));\r\n\r\n        // Assign roles based on user type\r\n        if (userType == keccak256(abi.encodePacked(\"faculty\"))) {\r\n            return Role.Faculty;\r\n        } else {\r\n            return Role.Viewer;\r\n        }\r\n    }\r\n\r\n    // Stores Posts\r\n    uint256 public PostCount = 0;\r\n    mapping(uint256 => Post) public Posts;\r\n\r\n    struct Post {\r\n        uint256 id;\r\n        string hash;\r\n        string description;\r\n        uint256 tipAmount;\r\n        uint256 viewCost;\r\n        address payable author;\r\n    }\r\n\r\n    // Array to store all posts\r\n    Post[] public posts;\r\n\r\n    // Modifier to restrict functions to faculty members only\r\n    modifier onlyFacultyMember() {\r\n        require(\r\n            userRoles[msg.sender] == Role.Faculty,\r\n            \"Only faculty members can create posts\"\r\n        );\r\n        _;\r\n    }\r\n\r\n    // creating an event for Post uploading\r\n    event PostCreated(\r\n        uint256 id,\r\n        string hash,\r\n        string description,\r\n        uint256 tipAmount,\r\n        uint256 viewCost,\r\n        address payable author\r\n    );\r\n\r\n    // creating an event for Post tipping\r\n    event PostTipped(\r\n        uint256 id,\r\n        string hash,\r\n        string description,\r\n        uint256 tipAmount,\r\n        uint256 viewCost,\r\n        address payable author\r\n    );\r\n\r\n    event PostViewed(\r\n        uint256 id,\r\n        string hash,\r\n        string description,\r\n        uint256 tipAmount,\r\n        uint256 viewCost,\r\n        address payable author\r\n    );\r\n\r\n    // create Posts\r\n    function uploadPost (\r\n        string memory _PostHash,\r\n        string memory _description,\r\n        uint256 _viewCost\r\n    ) public onlyFacultyMember returns (uint256) {\r\n        // Makes sure Post hash exists\r\n        require(bytes(_PostHash).length > 0);\r\n\r\n        // Makes sure Post description exists\r\n        require(bytes(_description).length > 0);\r\n\r\n        // uint256 value = 18 - _exp;\r\n        // _viewCost = (_viewCost * 1e18) / value;\r\n\r\n        // Make sure minViewCost is valid\r\n        // require(_minViewCost >=10000000 gwei && _minViewCost <= 1000000000 gwei, \"Payment amount must be between 0000000 GWEI and 1000000000 GWEI\");\r\n        require(_viewCost  >= 0 && _viewCost  <= 50 * 1e18 , \"Maximum viewing cost must be between 0.03 ETH and 0.07 ETH\");\r\n\r\n        // Increment Post count\r\n        PostCount++;\r\n\r\n        // Add Post to contract\r\n        Posts[PostCount] = Post(\r\n            PostCount,\r\n            _PostHash,\r\n            _description,\r\n            0,\r\n            _viewCost,\r\n            payable(msg.sender)\r\n        );\r\n\r\n\r\n        // Trigger the event\r\n        emit PostCreated(\r\n            PostCount,\r\n            _PostHash,\r\n            _description,\r\n            0,\r\n            _viewCost,\r\n            payable(msg.sender)\r\n        );\r\n\r\n        return PostCount;\r\n    }\r\n\r\n    // Tip Posts\r\n    function tipPostOwner(uint256 _id) public payable {\r\n        // Validating the Post\r\n        require(_id > 0 && _id <= PostCount);\r\n\r\n        // Fetching the author of Post/post\r\n        address payable _author = Posts[_id].author;\r\n\r\n        // Paying the author\r\n        _author.transfer(msg.value);\r\n\r\n        // Increment the tip amount\r\n        Posts[_id].tipAmount += msg.value;\r\n\r\n        // Trigger event when a Post is tipped\r\n        emit PostTipped(\r\n            _id,\r\n            Posts[_id].hash,\r\n            Posts[_id].description,\r\n            Posts[_id].tipAmount,\r\n            Posts[_id].viewCost,\r\n            _author\r\n        );\r\n    }\r\n\r\n    function getPost(uint256 postId) public view returns (uint256 id, string memory hash, string memory description, uint256 tipAmount, uint256 viewCost, address payable author) {\r\n        Post memory post = Posts[postId];\r\n        return (post.id, post.hash, post.description, post.tipAmount, post.viewCost, post.author);\r\n    }\r\n\r\n    function viewPost(uint256 _postId) public payable {\r\n        // Validating the Post\r\n        require(_postId > 0 && _postId <= PostCount);\r\n\r\n        // Fetching the post\r\n        Post memory post = Posts[_postId];\r\n\r\n        // Ensuring payment is enough to view the post\r\n        require(msg.value >= post.viewCost, \"Insufficient payment to view the post\");\r\n\r\n        // Paying the author\r\n        // post.author.transfer(msg.value);\r\n        sendViaCall(payable(address(post.author)), msg.value);\r\n\r\n        // Emit event for post view\r\n        emit PostViewed(\r\n            _postId,\r\n            post.hash,\r\n            post.description,\r\n            post.tipAmount,\r\n            msg.value, \r\n            post.author\r\n        );\r\n    }\r\n\r\n    function sendViaCall(address payable _to, uint256 _amount) internal {\r\n        (bool sent, ) = _to.call{value: _amount}(\"\");\r\n        require(sent, \"Failed to send Ether\");\r\n    }\r\n}\r\n",
  "sourcePath": "D:\\Btech_CSE\\Final_Year_Project\\Final Project\\Development\\bshiksha\\contracts\\NewPost.sol",
  "compiler": {
    "name": "solc",
    "version": "0.8.0+commit.c7dfd78e.Emscripten.clang"
  },
  "schemaVersion": "3.4.16",
  "updatedAt": "2024-04-27T19:36:52.252Z",
  "networkType": "ethereum",
  "devdoc": {
    "kind": "dev",
    "methods": {},
    "version": 1
  },
  "userdoc": {
    "kind": "user",
    "methods": {},
    "version": 1
  }
}