{
  "contractName": "BShiksha",
  "abi": [
    {
      "anonymous": false,
      "inputs": [
        {
          "indexed": false,
          "internalType": "uint256",
          "name": "id",
          "type": "uint256"
        },
        {
          "indexed": false,
          "internalType": "string",
          "name": "hash",
          "type": "string"
        },
        {
          "indexed": false,
          "internalType": "string",
          "name": "description",
          "type": "string"
        },
        {
          "indexed": false,
          "internalType": "uint256",
          "name": "tipAmount",
          "type": "uint256"
        },
        {
          "indexed": false,
          "internalType": "uint256",
          "name": "viewCost",
          "type": "uint256"
        },
        {
          "indexed": false,
          "internalType": "address payable",
          "name": "author",
          "type": "address"
        }
      ],
      "name": "PostCreated",
      "type": "event"
    },
    {
      "anonymous": false,
      "inputs": [
        {
          "indexed": false,
          "internalType": "uint256",
          "name": "id",
          "type": "uint256"
        },
        {
          "indexed": false,
          "internalType": "string",
          "name": "hash",
          "type": "string"
        },
        {
          "indexed": false,
          "internalType": "string",
          "name": "description",
          "type": "string"
        },
        {
          "indexed": false,
          "internalType": "uint256",
          "name": "tipAmount",
          "type": "uint256"
        },
        {
          "indexed": false,
          "internalType": "uint256",
          "name": "viewCost",
          "type": "uint256"
        },
        {
          "indexed": false,
          "internalType": "address payable",
          "name": "author",
          "type": "address"
        }
      ],
      "name": "PostTipped",
      "type": "event"
    },
    {
      "anonymous": false,
      "inputs": [
        {
          "indexed": false,
          "internalType": "uint256",
          "name": "id",
          "type": "uint256"
        },
        {
          "indexed": false,
          "internalType": "string",
          "name": "hash",
          "type": "string"
        },
        {
          "indexed": false,
          "internalType": "string",
          "name": "description",
          "type": "string"
        },
        {
          "indexed": false,
          "internalType": "uint256",
          "name": "tipAmount",
          "type": "uint256"
        },
        {
          "indexed": false,
          "internalType": "uint256",
          "name": "viewCost",
          "type": "uint256"
        },
        {
          "indexed": false,
          "internalType": "address payable",
          "name": "author",
          "type": "address"
        }
      ],
      "name": "PostViewed",
      "type": "event"
    },
    {
      "anonymous": false,
      "inputs": [
        {
          "indexed": false,
          "internalType": "string",
          "name": "userName",
          "type": "string"
        },
        {
          "indexed": false,
          "internalType": "string",
          "name": "userEmail",
          "type": "string"
        },
        {
          "indexed": false,
          "internalType": "bool",
          "name": "isProfessor",
          "type": "bool"
        },
        {
          "indexed": false,
          "internalType": "string",
          "name": "universityName",
          "type": "string"
        },
        {
          "indexed": false,
          "internalType": "address payable",
          "name": "walletId",
          "type": "address"
        }
      ],
      "name": "UserSignedUp",
      "type": "event"
    },
    {
      "inputs": [],
      "name": "PostCount",
      "outputs": [
        {
          "internalType": "uint256",
          "name": "",
          "type": "uint256"
        }
      ],
      "stateMutability": "view",
      "type": "function",
      "constant": true
    },
    {
      "inputs": [
        {
          "internalType": "uint256",
          "name": "",
          "type": "uint256"
        }
      ],
      "name": "Posts",
      "outputs": [
        {
          "internalType": "uint256",
          "name": "id",
          "type": "uint256"
        },
        {
          "internalType": "string",
          "name": "hash",
          "type": "string"
        },
        {
          "internalType": "string",
          "name": "description",
          "type": "string"
        },
        {
          "internalType": "uint256",
          "name": "tipAmount",
          "type": "uint256"
        },
        {
          "internalType": "uint256",
          "name": "viewCost",
          "type": "uint256"
        },
        {
          "internalType": "address payable",
          "name": "author",
          "type": "address"
        }
      ],
      "stateMutability": "view",
      "type": "function",
      "constant": true
    },
    {
      "inputs": [
        {
          "internalType": "uint256",
          "name": "",
          "type": "uint256"
        }
      ],
      "name": "posts",
      "outputs": [
        {
          "internalType": "uint256",
          "name": "id",
          "type": "uint256"
        },
        {
          "internalType": "string",
          "name": "hash",
          "type": "string"
        },
        {
          "internalType": "string",
          "name": "description",
          "type": "string"
        },
        {
          "internalType": "uint256",
          "name": "tipAmount",
          "type": "uint256"
        },
        {
          "internalType": "uint256",
          "name": "viewCost",
          "type": "uint256"
        },
        {
          "internalType": "address payable",
          "name": "author",
          "type": "address"
        }
      ],
      "stateMutability": "view",
      "type": "function",
      "constant": true
    },
    {
      "inputs": [
        {
          "internalType": "address",
          "name": "",
          "type": "address"
        }
      ],
      "name": "users",
      "outputs": [
        {
          "internalType": "string",
          "name": "userName",
          "type": "string"
        },
        {
          "internalType": "string",
          "name": "userEmail",
          "type": "string"
        },
        {
          "internalType": "bool",
          "name": "isProfessor",
          "type": "bool"
        },
        {
          "internalType": "string",
          "name": "universityName",
          "type": "string"
        },
        {
          "internalType": "address payable",
          "name": "walletId",
          "type": "address"
        }
      ],
      "stateMutability": "view",
      "type": "function",
      "constant": true
    },
    {
      "inputs": [
        {
          "internalType": "uint256",
          "name": "_postId",
          "type": "uint256"
        },
        {
          "internalType": "string",
          "name": "_PostHash",
          "type": "string"
        },
        {
          "internalType": "string",
          "name": "_description",
          "type": "string"
        },
        {
          "internalType": "uint256",
          "name": "_viewCost",
          "type": "uint256"
        }
      ],
      "name": "uploadPost",
      "outputs": [
        {
          "internalType": "uint256",
          "name": "",
          "type": "uint256"
        }
      ],
      "stateMutability": "nonpayable",
      "type": "function"
    },
    {
      "inputs": [
        {
          "internalType": "uint256",
          "name": "_id",
          "type": "uint256"
        }
      ],
      "name": "tipPostOwner",
      "outputs": [],
      "stateMutability": "payable",
      "type": "function",
      "payable": true
    },
    {
      "inputs": [
        {
          "internalType": "uint256",
          "name": "postId",
          "type": "uint256"
        }
      ],
      "name": "getPost",
      "outputs": [
        {
          "internalType": "uint256",
          "name": "id",
          "type": "uint256"
        },
        {
          "internalType": "string",
          "name": "hash",
          "type": "string"
        },
        {
          "internalType": "string",
          "name": "description",
          "type": "string"
        },
        {
          "internalType": "uint256",
          "name": "tipAmount",
          "type": "uint256"
        },
        {
          "internalType": "uint256",
          "name": "viewCost",
          "type": "uint256"
        },
        {
          "internalType": "address payable",
          "name": "author",
          "type": "address"
        }
      ],
      "stateMutability": "view",
      "type": "function",
      "constant": true
    },
    {
      "inputs": [
        {
          "internalType": "uint256",
          "name": "_postId",
          "type": "uint256"
        }
      ],
      "name": "viewPost",
      "outputs": [],
      "stateMutability": "payable",
      "type": "function",
      "payable": true
    },
    {
      "inputs": [
        {
          "internalType": "address",
          "name": "_walletId",
          "type": "address"
        }
      ],
      "name": "getUser",
      "outputs": [
        {
          "internalType": "string",
          "name": "userName",
          "type": "string"
        },
        {
          "internalType": "string",
          "name": "userEmail",
          "type": "string"
        },
        {
          "internalType": "bool",
          "name": "isProfessor",
          "type": "bool"
        },
        {
          "internalType": "string",
          "name": "universityName",
          "type": "string"
        },
        {
          "internalType": "address payable",
          "name": "walletId",
          "type": "address"
        }
      ],
      "stateMutability": "view",
      "type": "function",
      "constant": true
    },
    {
      "inputs": [
        {
          "internalType": "string",
          "name": "_userName",
          "type": "string"
        },
        {
          "internalType": "string",
          "name": "_userEmail",
          "type": "string"
        },
        {
          "internalType": "bool",
          "name": "_isProfessor",
          "type": "bool"
        },
        {
          "internalType": "string",
          "name": "_universityName",
          "type": "string"
        }
      ],
      "name": "signUpUser",
      "outputs": [],
      "stateMutability": "nonpayable",
      "type": "function"
    }
  ],
  "bytecode": "0x6080604052600060015534801561001557600080fd5b506120ca806100256000396000f3fe6080604052600436106100915760003560e01c80636f77926b116100595780636f77926b146101b5578063a2d1eceb146101f6578063a7b0c26a14610221578063a87430ba1461024a578063d6313c061461028b57610091565b806303c0f7d2146100965780630b1e7f83146100b25780633132613c146100f457806340731c24146101315780634fafef1a14610173575b600080fd5b6100b060048036038101906100ab91906117df565b6102a7565b005b3480156100be57600080fd5b506100d960048036038101906100d491906117df565b610527565b6040516100eb96959493929190611cb7565b60405180910390f35b34801561010057600080fd5b5061011b60048036038101906101169190611808565b6106a3565b6040516101289190611c2d565b60405180910390f35b34801561013d57600080fd5b50610158600480360381019061015391906117df565b610879565b60405161016a96959493929190611cb7565b60405180910390f35b34801561017f57600080fd5b5061019a600480360381019061019591906117df565b610a70565b6040516101ac96959493929190611cb7565b60405180910390f35b3480156101c157600080fd5b506101dc60048036038101906101d7919061170b565b610bdc565b6040516101ed959493929190611b25565b60405180910390f35b34801561020257600080fd5b5061020b610f56565b6040516102189190611c2d565b60405180910390f35b34801561022d57600080fd5b5061024860048036038101906102439190611734565b610f5c565b005b34801561025657600080fd5b50610271600480360381019061026c919061170b565b6111af565b604051610282959493929190611b25565b60405180910390f35b6102a560048036038101906102a091906117df565b6113aa565b005b600081101580156102ba57506001548111155b6102c357600080fd5b6000600260008381526020019081526020016000206040518060c0016040529081600082015481526020016001820180546102fd90611f36565b80601f016020809104026020016040519081016040528092919081815260200182805461032990611f36565b80156103765780601f1061034b57610100808354040283529160200191610376565b820191906000526020600020905b81548152906001019060200180831161035957829003601f168201915b5050505050815260200160028201805461038f90611f36565b80601f01602080910402602001604051908101604052809291908181526020018280546103bb90611f36565b80156104085780601f106103dd57610100808354040283529160200191610408565b820191906000526020600020905b8154815290600101906020018083116103eb57829003601f168201915b5050505050815260200160038201548152602001600482015481526020016005820160009054906101000a900473ffffffffffffffffffffffffffffffffffffffff1673ffffffffffffffffffffffffffffffffffffffff1673ffffffffffffffffffffffffffffffffffffffff1681525050905080608001513410156104c4576040517f08c379a00000000000000000000000000000000000000000000000000000000081526004016104bb90611bad565b60405180910390fd5b6104d28160a0015134611510565b7fa66971644db93c1ee0222b8a1339ec43ae2b2bde38db5e569e3ddc4b287dbc0c82826020015183604001518460600151348660a0015160405161051b96959493929190611cb7565b60405180910390a15050565b6003818154811061053757600080fd5b906000526020600020906006020160009150905080600001549080600101805461056090611f36565b80601f016020809104026020016040519081016040528092919081815260200182805461058c90611f36565b80156105d95780601f106105ae576101008083540402835291602001916105d9565b820191906000526020600020905b8154815290600101906020018083116105bc57829003601f168201915b5050505050908060020180546105ee90611f36565b80601f016020809104026020016040519081016040528092919081815260200182805461061a90611f36565b80156106675780601f1061063c57610100808354040283529160200191610667565b820191906000526020600020905b81548152906001019060200180831161064a57829003601f168201915b5050505050908060030154908060040154908060050160009054906101000a900473ffffffffffffffffffffffffffffffffffffffff16905086565b6000808451116106b257600080fd5b60008351116106c057600080fd5b600082101580156106da57506802b5e3af16b18800008211155b610719576040517f08c379a000000000000000000000000000000000000000000000000000000000815260040161071090611bcd565b60405180910390fd5b6001600081548092919061072c90611f68565b91905055506040518060c00160405280868152602001858152602001848152602001600081526020018381526020013373ffffffffffffffffffffffffffffffffffffffff16815250600260008781526020019081526020016000206000820151816000015560208201518160010190805190602001906107ae9291906115c1565b5060408201518160020190805190602001906107cb9291906115c1565b50606082015181600301556080820151816004015560a08201518160050160006101000a81548173ffffffffffffffffffffffffffffffffffffffff021916908373ffffffffffffffffffffffffffffffffffffffff1602179055509050507f8f18cd88b13c06184c3a67d9b79c75dc1e11607408671185f1abce809c68b6498585856000863360405161086496959493929190611c48565b60405180910390a16001549050949350505050565b6000606080600080600080600260008981526020019081526020016000206040518060c0016040529081600082015481526020016001820180546108bc90611f36565b80601f01602080910402602001604051908101604052809291908181526020018280546108e890611f36565b80156109355780601f1061090a57610100808354040283529160200191610935565b820191906000526020600020905b81548152906001019060200180831161091857829003601f168201915b5050505050815260200160028201805461094e90611f36565b80601f016020809104026020016040519081016040528092919081815260200182805461097a90611f36565b80156109c75780601f1061099c576101008083540402835291602001916109c7565b820191906000526020600020905b8154815290600101906020018083116109aa57829003601f168201915b5050505050815260200160038201548152602001600482015481526020016005820160009054906101000a900473ffffffffffffffffffffffffffffffffffffffff1673ffffffffffffffffffffffffffffffffffffffff1673ffffffffffffffffffffffffffffffffffffffff16815250509050806000015181602001518260400151836060015184608001518560a001519650965096509650965096505091939550919395565b6002602052806000526040600020600091509050806000015490806001018054610a9990611f36565b80601f0160208091040260200160405190810160405280929190818152602001828054610ac590611f36565b8015610b125780601f10610ae757610100808354040283529160200191610b12565b820191906000526020600020905b815481529060010190602001808311610af557829003601f168201915b505050505090806002018054610b2790611f36565b80601f0160208091040260200160405190810160405280929190818152602001828054610b5390611f36565b8015610ba05780601f10610b7557610100808354040283529160200191610ba0565b820191906000526020600020905b815481529060010190602001808311610b8357829003601f168201915b5050505050908060030154908060040154908060050160009054906101000a900473ffffffffffffffffffffffffffffffffffffffff16905086565b6060806000606060008073ffffffffffffffffffffffffffffffffffffffff166000808873ffffffffffffffffffffffffffffffffffffffff1673ffffffffffffffffffffffffffffffffffffffff16815260200190815260200160002060040160009054906101000a900473ffffffffffffffffffffffffffffffffffffffff1673ffffffffffffffffffffffffffffffffffffffff161415610cb5576040517f08c379a0000000000000000000000000000000000000000000000000000000008152600401610cac90611c0d565b60405180910390fd5b60008060008873ffffffffffffffffffffffffffffffffffffffff1673ffffffffffffffffffffffffffffffffffffffff1681526020019081526020016000206040518060a0016040529081600082018054610d1090611f36565b80601f0160208091040260200160405190810160405280929190818152602001828054610d3c90611f36565b8015610d895780601f10610d5e57610100808354040283529160200191610d89565b820191906000526020600020905b815481529060010190602001808311610d6c57829003601f168201915b50505050508152602001600182018054610da290611f36565b80601f0160208091040260200160405190810160405280929190818152602001828054610dce90611f36565b8015610e1b5780601f10610df057610100808354040283529160200191610e1b565b820191906000526020600020905b815481529060010190602001808311610dfe57829003601f168201915b505050505081526020016002820160009054906101000a900460ff16151515158152602001600382018054610e4f90611f36565b80601f0160208091040260200160405190810160405280929190818152602001828054610e7b90611f36565b8015610ec85780601f10610e9d57610100808354040283529160200191610ec8565b820191906000526020600020905b815481529060010190602001808311610eab57829003601f168201915b505050505081526020016004820160009054906101000a900473ffffffffffffffffffffffffffffffffffffffff1673ffffffffffffffffffffffffffffffffffffffff1673ffffffffffffffffffffffffffffffffffffffff1681525050905080600001518160200151826040015183606001518460800151955095509550955095505091939590929450565b60015481565b600073ffffffffffffffffffffffffffffffffffffffff166000803373ffffffffffffffffffffffffffffffffffffffff1673ffffffffffffffffffffffffffffffffffffffff16815260200190815260200160002060040160009054906101000a900473ffffffffffffffffffffffffffffffffffffffff1673ffffffffffffffffffffffffffffffffffffffff161461102c576040517f08c379a000000000000000000000000000000000000000000000000000000000815260040161102390611bed565b60405180910390fd5b6040518060a0016040528085815260200184815260200183151581526020018281526020013373ffffffffffffffffffffffffffffffffffffffff168152506000803373ffffffffffffffffffffffffffffffffffffffff1673ffffffffffffffffffffffffffffffffffffffff16815260200190815260200160002060008201518160000190805190602001906110c59291906115c1565b5060208201518160010190805190602001906110e29291906115c1565b5060408201518160020160006101000a81548160ff021916908315150217905550606082015181600301908051906020019061111f9291906115c1565b5060808201518160040160006101000a81548173ffffffffffffffffffffffffffffffffffffffff021916908373ffffffffffffffffffffffffffffffffffffffff1602179055509050507fdd3c553ab9875abd1ac8f977d700e4081431605a11587a93ceebd4da49e3ca7d84848484336040516111a1959493929190611b25565b60405180910390a150505050565b60006020528060005260406000206000915090508060000180546111d290611f36565b80601f01602080910402602001604051908101604052809291908181526020018280546111fe90611f36565b801561124b5780601f106112205761010080835404028352916020019161124b565b820191906000526020600020905b81548152906001019060200180831161122e57829003601f168201915b50505050509080600101805461126090611f36565b80601f016020809104026020016040519081016040528092919081815260200182805461128c90611f36565b80156112d95780601f106112ae576101008083540402835291602001916112d9565b820191906000526020600020905b8154815290600101906020018083116112bc57829003601f168201915b5050505050908060020160009054906101000a900460ff169080600301805461130190611f36565b80601f016020809104026020016040519081016040528092919081815260200182805461132d90611f36565b801561137a5780601f1061134f5761010080835404028352916020019161137a565b820191906000526020600020905b81548152906001019060200180831161135d57829003601f168201915b5050505050908060040160009054906101000a900473ffffffffffffffffffffffffffffffffffffffff16905085565b600081101580156113bd57506001548111155b6113c657600080fd5b60006002600083815260200190815260200160002060050160009054906101000a900473ffffffffffffffffffffffffffffffffffffffff1690508073ffffffffffffffffffffffffffffffffffffffff166108fc349081150290604051600060405180830381858888f19350505050158015611447573d6000803e3d6000fd5b503460026000848152602001908152602001600020600301600082825461146e9190611e32565b925050819055507f1f2ee66b193fcb0910db6c9747a0c479aaf007650b1f6085fbb42555e8006b30826002600085815260200190815260200160002060010160026000868152602001908152602001600020600201600260008781526020019081526020016000206003015460026000888152602001908152602001600020600401548660405161150496959493929190611d26565b60405180910390a15050565b60008273ffffffffffffffffffffffffffffffffffffffff168260405161153690611b10565b60006040518083038185875af1925050503d8060008114611573576040519150601f19603f3d011682016040523d82523d6000602084013e611578565b606091505b50509050806115bc576040517f08c379a00000000000000000000000000000000000000000000000000000000081526004016115b390611b8d565b60405180910390fd5b505050565b8280546115cd90611f36565b90600052602060002090601f0160209004810192826115ef5760008555611636565b82601f1061160857805160ff1916838001178555611636565b82800160010185558215611636579182015b8281111561163557825182559160200191906001019061161a565b5b5090506116439190611647565b5090565b5b80821115611660576000816000905550600101611648565b5090565b600061167761167284611dc6565b611d95565b90508281526020810184848401111561168f57600080fd5b61169a848285611ef4565b509392505050565b6000813590506116b18161204f565b92915050565b6000813590506116c681612066565b92915050565b600082601f8301126116dd57600080fd5b81356116ed848260208601611664565b91505092915050565b6000813590506117058161207d565b92915050565b60006020828403121561171d57600080fd5b600061172b848285016116a2565b91505092915050565b6000806000806080858703121561174a57600080fd5b600085013567ffffffffffffffff81111561176457600080fd5b611770878288016116cc565b945050602085013567ffffffffffffffff81111561178d57600080fd5b611799878288016116cc565b93505060406117aa878288016116b7565b925050606085013567ffffffffffffffff8111156117c757600080fd5b6117d3878288016116cc565b91505092959194509250565b6000602082840312156117f157600080fd5b60006117ff848285016116f6565b91505092915050565b6000806000806080858703121561181e57600080fd5b600061182c878288016116f6565b945050602085013567ffffffffffffffff81111561184957600080fd5b611855878288016116cc565b935050604085013567ffffffffffffffff81111561187257600080fd5b61187e878288016116cc565b925050606061188f878288016116f6565b91505092959194509250565b6118a481611e9a565b82525050565b6118b381611eac565b82525050565b6118c281611ee2565b82525050565b60006118d382611e0b565b6118dd8185611e21565b93506118ed818560208601611f03565b6118f68161203e565b840191505092915050565b6000815461190e81611f36565b6119188186611e21565b94506001821660008114611933576001811461194557611978565b60ff1983168652602086019350611978565b61194e85611df6565b60005b8381101561197057815481890152600182019150602081019050611951565b808801955050505b50505092915050565b600061198e601483611e21565b91507f4661696c656420746f2073656e642045746865720000000000000000000000006000830152602082019050919050565b60006119ce602583611e21565b91507f496e73756666696369656e74207061796d656e7420746f20766965772074686560008301527f20706f73740000000000000000000000000000000000000000000000000000006020830152604082019050919050565b6000611a34601283611e21565b91507f5365742056616c756520302d35302045544800000000000000000000000000006000830152602082019050919050565b6000611a74601383611e21565b91507f5573657220616c726561647920657869737473000000000000000000000000006000830152602082019050919050565b6000611ab4600083611e16565b9150600082019050919050565b6000611ace601583611e21565b91507f5573657220646f6573206e6f74206578697374212100000000000000000000006000830152602082019050919050565b611b0a81611ed8565b82525050565b6000611b1b82611aa7565b9150819050919050565b600060a0820190508181036000830152611b3f81886118c8565b90508181036020830152611b5381876118c8565b9050611b6260408301866118aa565b8181036060830152611b7481856118c8565b9050611b83608083018461189b565b9695505050505050565b60006020820190508181036000830152611ba681611981565b9050919050565b60006020820190508181036000830152611bc6816119c1565b9050919050565b60006020820190508181036000830152611be681611a27565b9050919050565b60006020820190508181036000830152611c0681611a67565b9050919050565b60006020820190508181036000830152611c2681611ac1565b9050919050565b6000602082019050611c426000830184611b01565b92915050565b600060c082019050611c5d6000830189611b01565b8181036020830152611c6f81886118c8565b90508181036040830152611c8381876118c8565b9050611c9260608301866118b9565b611c9f6080830185611b01565b611cac60a083018461189b565b979650505050505050565b600060c082019050611ccc6000830189611b01565b8181036020830152611cde81886118c8565b90508181036040830152611cf281876118c8565b9050611d016060830186611b01565b611d0e6080830185611b01565b611d1b60a083018461189b565b979650505050505050565b600060c082019050611d3b6000830189611b01565b8181036020830152611d4d8188611901565b90508181036040830152611d618187611901565b9050611d706060830186611b01565b611d7d6080830185611b01565b611d8a60a083018461189b565b979650505050505050565b6000604051905081810181811067ffffffffffffffff82111715611dbc57611dbb61200f565b5b8060405250919050565b600067ffffffffffffffff821115611de157611de061200f565b5b601f19601f8301169050602081019050919050565b60008190508160005260206000209050919050565b600081519050919050565b600081905092915050565b600082825260208201905092915050565b6000611e3d82611ed8565b9150611e4883611ed8565b9250827fffffffffffffffffffffffffffffffffffffffffffffffffffffffffffffffff03821115611e7d57611e7c611fb1565b5b828201905092915050565b6000611e9382611eb8565b9050919050565b6000611ea582611eb8565b9050919050565b60008115159050919050565b600073ffffffffffffffffffffffffffffffffffffffff82169050919050565b6000819050919050565b6000611eed82611ed8565b9050919050565b82818337600083830152505050565b60005b83811015611f21578082015181840152602081019050611f06565b83811115611f30576000848401525b50505050565b60006002820490506001821680611f4e57607f821691505b60208210811415611f6257611f61611fe0565b5b50919050565b6000611f7382611ed8565b91507fffffffffffffffffffffffffffffffffffffffffffffffffffffffffffffffff821415611fa657611fa5611fb1565b5b600182019050919050565b7f4e487b7100000000000000000000000000000000000000000000000000000000600052601160045260246000fd5b7f4e487b7100000000000000000000000000000000000000000000000000000000600052602260045260246000fd5b7f4e487b7100000000000000000000000000000000000000000000000000000000600052604160045260246000fd5b6000601f19601f8301169050919050565b61205881611e88565b811461206357600080fd5b50565b61206f81611eac565b811461207a57600080fd5b50565b61208681611ed8565b811461209157600080fd5b5056fea2646970667358221220a3f82e1e2c2071319713eb22af6145aa06a8ad76071bf071cf3c68eecd825d8364736f6c63430008000033",
  "immutableReferences": {},
  "source": "// SPDX-License-Identifier: MIT\r\npragma solidity ^0.8.0;\r\n\r\ncontract BShiksha {\r\n    mapping(address => User) public users;\r\n\r\n    struct User {\r\n        string userName;\r\n        string userEmail;\r\n        bool isProfessor;\r\n        string universityName;\r\n        address payable walletId;\r\n    }\r\n\r\n    uint256 public PostCount = 0;\r\n    mapping(uint256 => Post) public Posts;\r\n\r\n    struct Post {\r\n        uint256 id;\r\n        string hash;\r\n        string description;\r\n        uint256 tipAmount;\r\n        uint256 viewCost;\r\n        address payable author;\r\n    }\r\n\r\n    Post[] public posts;\r\n\r\n    event UserSignedUp(\r\n        string userName,\r\n        string userEmail,\r\n        bool isProfessor,\r\n        string universityName,\r\n        address payable walletId\r\n    );\r\n\r\n    event PostCreated(\r\n        uint256 id,\r\n        string hash,\r\n        string description,\r\n        uint256 tipAmount,\r\n        uint256 viewCost,\r\n        address payable author\r\n    );\r\n\r\n    event PostTipped(\r\n        uint256 id,\r\n        string hash,\r\n        string description,\r\n        uint256 tipAmount,\r\n        uint256 viewCost,\r\n        address payable author\r\n    );\r\n\r\n    event PostViewed(\r\n        uint256 id,\r\n        string hash,\r\n        string description,\r\n        uint256 tipAmount,\r\n        uint256 viewCost,\r\n        address payable author\r\n    );\r\n\r\n    function uploadPost (\r\n        uint256 _postId,\r\n        string memory _PostHash,\r\n        string memory _description,\r\n        uint256 _viewCost\r\n    ) public returns (uint256) {\r\n        require(bytes(_PostHash).length > 0);\r\n        require(bytes(_description).length > 0);\r\n        require(_viewCost  >= 0 && _viewCost  <= 50 * 1e18, \"Set Value 0-50 ETH\");\r\n\r\n        PostCount++;\r\n\r\n        Posts[_postId] = Post(\r\n            _postId,\r\n            _PostHash,\r\n            _description,\r\n            0,\r\n            _viewCost,\r\n            payable(msg.sender)\r\n        );\r\n\r\n        emit PostCreated(\r\n            _postId,\r\n            _PostHash,\r\n            _description,\r\n            0,\r\n            _viewCost,\r\n            payable(msg.sender)\r\n        );\r\n\r\n        return PostCount;\r\n    }\r\n\r\n    function tipPostOwner(uint256 _id) public payable {\r\n        require(_id >= 0 && _id <= PostCount);\r\n        address payable _author = Posts[_id].author;\r\n        _author.transfer(msg.value);\r\n        Posts[_id].tipAmount += msg.value;\r\n        emit PostTipped(\r\n            _id,\r\n            Posts[_id].hash,\r\n            Posts[_id].description,\r\n            Posts[_id].tipAmount,\r\n            Posts[_id].viewCost,\r\n            _author\r\n        );\r\n    }\r\n\r\n    function getPost(uint256 postId) public view returns (uint256 id, string memory hash, string memory description, uint256 tipAmount, uint256 viewCost, address payable author) {\r\n        Post memory post = Posts[postId];\r\n        return (post.id, post.hash, post.description, post.tipAmount, post.viewCost, post.author);\r\n    }\r\n\r\n    function viewPost(uint256 _postId) public payable {\r\n        require(_postId >= 0 && _postId <= PostCount);\r\n        Post memory post = Posts[_postId];\r\n        require(msg.value >= post.viewCost, \"Insufficient payment to view the post\");\r\n        sendViaCall(payable(address(post.author)), msg.value);\r\n        emit PostViewed(\r\n            _postId,\r\n            post.hash,\r\n            post.description,\r\n            post.tipAmount,\r\n            msg.value, \r\n            post.author\r\n        );\r\n    }\r\n\r\n    function sendViaCall(address payable _to, uint256 _amount) internal {\r\n        (bool sent, ) = _to.call{value: _amount}(\"\");\r\n        require(sent, \"Failed to send Ether\");\r\n    }\r\n\r\n    function getUser(\r\n        address _walletId\r\n    )\r\n        public\r\n        view\r\n        returns (\r\n            string memory userName,\r\n            string memory userEmail,\r\n            bool isProfessor,\r\n            string memory universityName,\r\n            address payable walletId\r\n        )\r\n    {\r\n        require(\r\n            users[_walletId].walletId != address(0),\r\n            \"User does not exist!!\"\r\n        );\r\n        User memory user = users[_walletId];\r\n        return (\r\n            user.userName,\r\n            user.userEmail,\r\n            user.isProfessor,\r\n            user.universityName,\r\n            user.walletId\r\n        );\r\n    }\r\n\r\n    function signUpUser(\r\n        string memory _userName,\r\n        string memory _userEmail,\r\n        bool _isProfessor,\r\n        string memory _universityName\r\n    ) public {\r\n        require(\r\n            users[msg.sender].walletId == address(0),\r\n            \"User already exists\"\r\n        );\r\n\r\n        users[msg.sender] = User({\r\n            userName: _userName,\r\n            userEmail: _userEmail,\r\n            isProfessor: _isProfessor,\r\n            universityName: _universityName,\r\n            walletId: payable(msg.sender)\r\n        });\r\n\r\n        emit UserSignedUp(\r\n        _userName,\r\n        _userEmail,\r\n        _isProfessor,\r\n        _universityName,\r\n        payable(msg.sender)\r\n    );\r\n    }\r\n}",
  "sourcePath": "D:\\coding\\blockchain\\new\\New folder\\bshiksha\\contracts\\NewPost.sol",
  "compiler": {
    "name": "solc",
    "version": "0.8.0+commit.c7dfd78e.Emscripten.clang"
  },
  "schemaVersion": "3.4.16",
  "updatedAt": "2024-05-02T07:51:28.211Z",
  "networkType": "ethereum",
  "devdoc": {
    "kind": "dev",
    "methods": {},
    "version": 1
  },
  "userdoc": {
    "kind": "user",
    "methods": {},
    "version": 1
  }
}