{
  "contractName": "BShiksha",
  "abi": [
    {
      "anonymous": false,
      "inputs": [
        {
          "indexed": true,
          "internalType": "uint256",
          "name": "postId",
          "type": "uint256"
        },
        {
          "indexed": false,
          "internalType": "string",
          "name": "commentCid",
          "type": "string"
        },
        {
          "indexed": false,
          "internalType": "address",
          "name": "commenter",
          "type": "address"
        }
      ],
      "name": "CommentAdded",
      "type": "event"
    },
    {
      "anonymous": false,
      "inputs": [
        {
          "indexed": false,
          "internalType": "uint256",
          "name": "id",
          "type": "uint256"
        },
        {
          "indexed": false,
          "internalType": "string",
          "name": "postCid",
          "type": "string"
        },
        {
          "indexed": false,
          "internalType": "uint256",
          "name": "tipAmount",
          "type": "uint256"
        },
        {
          "indexed": false,
          "internalType": "uint256",
          "name": "viewCost",
          "type": "uint256"
        },
        {
          "indexed": false,
          "internalType": "address payable",
          "name": "author",
          "type": "address"
        }
      ],
      "name": "PostCreated",
      "type": "event"
    },
    {
      "anonymous": false,
      "inputs": [
        {
          "indexed": false,
          "internalType": "uint256",
          "name": "id",
          "type": "uint256"
        },
        {
          "indexed": false,
          "internalType": "string",
          "name": "postCid",
          "type": "string"
        },
        {
          "indexed": false,
          "internalType": "uint256",
          "name": "tipAmount",
          "type": "uint256"
        },
        {
          "indexed": false,
          "internalType": "uint256",
          "name": "viewCost",
          "type": "uint256"
        },
        {
          "indexed": false,
          "internalType": "address payable",
          "name": "author",
          "type": "address"
        }
      ],
      "name": "PostTipped",
      "type": "event"
    },
    {
      "anonymous": false,
      "inputs": [
        {
          "indexed": false,
          "internalType": "uint256",
          "name": "id",
          "type": "uint256"
        },
        {
          "indexed": false,
          "internalType": "string",
          "name": "postCid",
          "type": "string"
        },
        {
          "indexed": false,
          "internalType": "uint256",
          "name": "tipAmount",
          "type": "uint256"
        },
        {
          "indexed": false,
          "internalType": "uint256",
          "name": "viewCost",
          "type": "uint256"
        },
        {
          "indexed": false,
          "internalType": "address payable",
          "name": "author",
          "type": "address"
        }
      ],
      "name": "PostViewed",
      "type": "event"
    },
    {
      "anonymous": false,
      "inputs": [
        {
          "indexed": false,
          "internalType": "string",
          "name": "userName",
          "type": "string"
        },
        {
          "indexed": false,
          "internalType": "string",
          "name": "userEmail",
          "type": "string"
        },
        {
          "indexed": false,
          "internalType": "bool",
          "name": "isProfessor",
          "type": "bool"
        },
        {
          "indexed": false,
          "internalType": "string",
          "name": "universityName",
          "type": "string"
        },
        {
          "indexed": false,
          "internalType": "address payable",
          "name": "walletId",
          "type": "address"
        }
      ],
      "name": "UserSignedUp",
      "type": "event"
    },
    {
      "inputs": [],
      "name": "PostCount",
      "outputs": [
        {
          "internalType": "uint256",
          "name": "",
          "type": "uint256"
        }
      ],
      "stateMutability": "view",
      "type": "function",
      "constant": true
    },
    {
      "inputs": [
        {
          "internalType": "uint256",
          "name": "",
          "type": "uint256"
        }
      ],
      "name": "Posts",
      "outputs": [
        {
          "internalType": "uint256",
          "name": "id",
          "type": "uint256"
        },
        {
          "internalType": "string",
          "name": "postCid",
          "type": "string"
        },
        {
          "internalType": "uint256",
          "name": "tipAmount",
          "type": "uint256"
        },
        {
          "internalType": "uint256",
          "name": "viewCost",
          "type": "uint256"
        },
        {
          "internalType": "address payable",
          "name": "author",
          "type": "address"
        }
      ],
      "stateMutability": "view",
      "type": "function",
      "constant": true
    },
    {
      "inputs": [
        {
          "internalType": "address",
          "name": "",
          "type": "address"
        }
      ],
      "name": "users",
      "outputs": [
        {
          "internalType": "string",
          "name": "userName",
          "type": "string"
        },
        {
          "internalType": "string",
          "name": "userEmail",
          "type": "string"
        },
        {
          "internalType": "bool",
          "name": "isProfessor",
          "type": "bool"
        },
        {
          "internalType": "string",
          "name": "universityName",
          "type": "string"
        },
        {
          "internalType": "address payable",
          "name": "walletId",
          "type": "address"
        }
      ],
      "stateMutability": "view",
      "type": "function",
      "constant": true
    },
    {
      "inputs": [
        {
          "internalType": "address",
          "name": "",
          "type": "address"
        },
        {
          "internalType": "uint256",
          "name": "",
          "type": "uint256"
        }
      ],
      "name": "walletIdToPostId",
      "outputs": [
        {
          "internalType": "uint256",
          "name": "",
          "type": "uint256"
        }
      ],
      "stateMutability": "view",
      "type": "function",
      "constant": true
    },
    {
      "inputs": [
        {
          "internalType": "string",
          "name": "_postCid",
          "type": "string"
        },
        {
          "internalType": "uint256",
          "name": "_viewCost",
          "type": "uint256"
        }
      ],
      "name": "uploadPost",
      "outputs": [],
      "stateMutability": "payable",
      "type": "function",
      "payable": true
    },
    {
      "inputs": [
        {
          "internalType": "uint256",
          "name": "postId",
          "type": "uint256"
        }
      ],
      "name": "getPost",
      "outputs": [
        {
          "internalType": "uint256",
          "name": "id",
          "type": "uint256"
        },
        {
          "internalType": "string",
          "name": "postCid",
          "type": "string"
        },
        {
          "internalType": "uint256",
          "name": "tipAmount",
          "type": "uint256"
        },
        {
          "internalType": "uint256",
          "name": "viewCost",
          "type": "uint256"
        },
        {
          "internalType": "address payable",
          "name": "author",
          "type": "address"
        }
      ],
      "stateMutability": "view",
      "type": "function",
      "constant": true
    },
    {
      "inputs": [
        {
          "internalType": "uint256",
          "name": "_postId",
          "type": "uint256"
        }
      ],
      "name": "viewPost",
      "outputs": [],
      "stateMutability": "payable",
      "type": "function",
      "payable": true
    },
    {
      "inputs": [
        {
          "internalType": "address",
          "name": "_walletId",
          "type": "address"
        }
      ],
      "name": "getUser",
      "outputs": [
        {
          "internalType": "string",
          "name": "userName",
          "type": "string"
        },
        {
          "internalType": "string",
          "name": "userEmail",
          "type": "string"
        },
        {
          "internalType": "bool",
          "name": "isProfessor",
          "type": "bool"
        },
        {
          "internalType": "string",
          "name": "universityName",
          "type": "string"
        },
        {
          "internalType": "address payable",
          "name": "walletId",
          "type": "address"
        }
      ],
      "stateMutability": "view",
      "type": "function",
      "constant": true
    },
    {
      "inputs": [
        {
          "internalType": "string",
          "name": "_userName",
          "type": "string"
        },
        {
          "internalType": "string",
          "name": "_userEmail",
          "type": "string"
        },
        {
          "internalType": "bool",
          "name": "_isProfessor",
          "type": "bool"
        },
        {
          "internalType": "string",
          "name": "_universityName",
          "type": "string"
        }
      ],
      "name": "signUpUser",
      "outputs": [],
      "stateMutability": "nonpayable",
      "type": "function"
    },
    {
      "inputs": [
        {
          "internalType": "address",
          "name": "_walletId",
          "type": "address"
        }
      ],
      "name": "fetchListOfPostIdsMadeByUser",
      "outputs": [
        {
          "internalType": "uint256[]",
          "name": "",
          "type": "uint256[]"
        }
      ],
      "stateMutability": "view",
      "type": "function",
      "constant": true
    },
    {
      "inputs": [
        {
          "internalType": "uint256",
          "name": "_postId",
          "type": "uint256"
        },
        {
          "internalType": "string",
          "name": "_commentCid",
          "type": "string"
        }
      ],
      "name": "uploadPostComment",
      "outputs": [],
      "stateMutability": "nonpayable",
      "type": "function"
    }
  ],
  "bytecode": "0x6080604052600060025534801561001557600080fd5b50612018806100256000396000f3fe60806040526004361061009c5760003560e01c806389b1c0291161006457806389b1c029146101bd5780638d51f8fe146101d9578063a2d1eceb14610216578063a7b0c26a14610241578063a87430ba1461026a578063c8ae75b7146102ab5761009c565b806303c0f7d2146100a157806340731c24146100bd5780634fafef1a146100fe5780636f0c4c371461013f5780636f77926b1461017c575b600080fd5b6100bb60048036038101906100b691906116b1565b6102d4565b005b3480156100c957600080fd5b506100e460048036038101906100df91906116b1565b610530565b6040516100f5959493929190611cbb565b60405180910390f35b34801561010a57600080fd5b50610125600480360381019061012091906116b1565b61068d565b604051610136959493929190611cbb565b60405180910390f35b34801561014b57600080fd5b506101666004803603810190610161919061154d565b61076b565b6040516101739190611a8c565b60405180910390f35b34801561018857600080fd5b506101a3600480360381019061019e919061154d565b610887565b6040516101b4959493929190611ade565b60405180910390f35b6101d760048036038101906101d2919061165d565b610c01565b005b3480156101e557600080fd5b5061020060048036038101906101fb9190611576565b610e3e565b60405161020d9190611c46565b60405180910390f35b34801561022257600080fd5b5061022b610e6f565b6040516102389190611c46565b60405180910390f35b34801561024d57600080fd5b50610268600480360381019061026391906115b2565b610e75565b005b34801561027657600080fd5b50610291600480360381019061028c919061154d565b6110c8565b6040516102a2959493929190611ade565b60405180910390f35b3480156102b757600080fd5b506102d260048036038101906102cd91906116da565b6112c3565b005b6000811180156102e657506002548111155b610325576040517f08c379a000000000000000000000000000000000000000000000000000000000815260040161031c90611b46565b60405180910390fd5b6000600360008381526020019081526020016000206040518060a00160405290816000820154815260200160018201805461035f90611e84565b80601f016020809104026020016040519081016040528092919081815260200182805461038b90611e84565b80156103d85780601f106103ad576101008083540402835291602001916103d8565b820191906000526020600020905b8154815290600101906020018083116103bb57829003601f168201915b5050505050815260200160028201548152602001600382015481526020016004820160009054906101000a900473ffffffffffffffffffffffffffffffffffffffff1673ffffffffffffffffffffffffffffffffffffffff1673ffffffffffffffffffffffffffffffffffffffff16815250509050806080015173ffffffffffffffffffffffffffffffffffffffff163373ffffffffffffffffffffffffffffffffffffffff16141561048b575061052d565b80606001513410156104d2576040517f08c379a00000000000000000000000000000000000000000000000000000000081526004016104c990611ba6565b60405180910390fd5b6104e0816080015134611352565b7f94352681d7d603d745dd0e431687124dd5a30f2bcdfcd3e2e8711995910d66a88282602001518360400151348560800151604051610523959493929190611cbb565b60405180910390a1505b50565b60006060600080600080600360008881526020019081526020016000206040518060a00160405290816000820154815260200160018201805461057290611e84565b80601f016020809104026020016040519081016040528092919081815260200182805461059e90611e84565b80156105eb5780601f106105c0576101008083540402835291602001916105eb565b820191906000526020600020905b8154815290600101906020018083116105ce57829003601f168201915b5050505050815260200160028201548152602001600382015481526020016004820160009054906101000a900473ffffffffffffffffffffffffffffffffffffffff1673ffffffffffffffffffffffffffffffffffffffff1673ffffffffffffffffffffffffffffffffffffffff1681525050905080600001518160200151826040015183606001518460800151955095509550955095505091939590929450565b60036020528060005260406000206000915090508060000154908060010180546106b690611e84565b80601f01602080910402602001604051908101604052809291908181526020018280546106e290611e84565b801561072f5780601f106107045761010080835404028352916020019161072f565b820191906000526020600020905b81548152906001019060200180831161071257829003601f168201915b5050505050908060020154908060030154908060040160009054906101000a900473ffffffffffffffffffffffffffffffffffffffff16905085565b60606000600160008473ffffffffffffffffffffffffffffffffffffffff1673ffffffffffffffffffffffffffffffffffffffff16815260200190815260200160002080549050116107f2576040517f08c379a00000000000000000000000000000000000000000000000000000000081526004016107e990611b86565b60405180910390fd5b600160008373ffffffffffffffffffffffffffffffffffffffff1673ffffffffffffffffffffffffffffffffffffffff16815260200190815260200160002080548060200260200160405190810160405280929190818152602001828054801561087b57602002820191906000526020600020905b815481526020019060010190808311610867575b50505050509050919050565b6060806000606060008073ffffffffffffffffffffffffffffffffffffffff166000808873ffffffffffffffffffffffffffffffffffffffff1673ffffffffffffffffffffffffffffffffffffffff16815260200190815260200160002060040160009054906101000a900473ffffffffffffffffffffffffffffffffffffffff1673ffffffffffffffffffffffffffffffffffffffff161415610960576040517f08c379a000000000000000000000000000000000000000000000000000000000815260040161095790611c26565b60405180910390fd5b60008060008873ffffffffffffffffffffffffffffffffffffffff1673ffffffffffffffffffffffffffffffffffffffff1681526020019081526020016000206040518060a00160405290816000820180546109bb90611e84565b80601f01602080910402602001604051908101604052809291908181526020018280546109e790611e84565b8015610a345780601f10610a0957610100808354040283529160200191610a34565b820191906000526020600020905b815481529060010190602001808311610a1757829003601f168201915b50505050508152602001600182018054610a4d90611e84565b80601f0160208091040260200160405190810160405280929190818152602001828054610a7990611e84565b8015610ac65780601f10610a9b57610100808354040283529160200191610ac6565b820191906000526020600020905b815481529060010190602001808311610aa957829003601f168201915b505050505081526020016002820160009054906101000a900460ff16151515158152602001600382018054610afa90611e84565b80601f0160208091040260200160405190810160405280929190818152602001828054610b2690611e84565b8015610b735780601f10610b4857610100808354040283529160200191610b73565b820191906000526020600020905b815481529060010190602001808311610b5657829003601f168201915b505050505081526020016004820160009054906101000a900473ffffffffffffffffffffffffffffffffffffffff1673ffffffffffffffffffffffffffffffffffffffff1673ffffffffffffffffffffffffffffffffffffffff1681525050905080600001518160200151826040015183606001518460800151955095509550955095505091939590929450565b6000825111610c45576040517f08c379a0000000000000000000000000000000000000000000000000000000008152600401610c3c90611bc6565b60405180910390fd5b60008110158015610c5f57506802b5e3af16b18800008111155b610c9e576040517f08c379a0000000000000000000000000000000000000000000000000000000008152600401610c9590611be6565b60405180910390fd5b60026000815480929190610cb190611eb6565b9190505550600060025490506040518060a00160405280828152602001848152602001600081526020018381526020013373ffffffffffffffffffffffffffffffffffffffff1681525060036000838152602001908152602001600020600082015181600001556020820151816001019080519060200190610d34929190611403565b50604082015181600201556060820151816003015560808201518160040160006101000a81548173ffffffffffffffffffffffffffffffffffffffff021916908373ffffffffffffffffffffffffffffffffffffffff160217905550905050600160003373ffffffffffffffffffffffffffffffffffffffff1673ffffffffffffffffffffffffffffffffffffffff1681526020019081526020016000208190806001815401808255809150506001900390600052602060002001600090919091909150557f60407612d370305dc6c1b08611e062b713b9c2e0c0dee29ff90a1325ba9ba24b818460008533604051610e31959493929190611c61565b60405180910390a1505050565b60016020528160005260406000208181548110610e5a57600080fd5b90600052602060002001600091509150505481565b60025481565b600073ffffffffffffffffffffffffffffffffffffffff166000803373ffffffffffffffffffffffffffffffffffffffff1673ffffffffffffffffffffffffffffffffffffffff16815260200190815260200160002060040160009054906101000a900473ffffffffffffffffffffffffffffffffffffffff1673ffffffffffffffffffffffffffffffffffffffff1614610f45576040517f08c379a0000000000000000000000000000000000000000000000000000000008152600401610f3c90611c06565b60405180910390fd5b6040518060a0016040528085815260200184815260200183151581526020018281526020013373ffffffffffffffffffffffffffffffffffffffff168152506000803373ffffffffffffffffffffffffffffffffffffffff1673ffffffffffffffffffffffffffffffffffffffff1681526020019081526020016000206000820151816000019080519060200190610fde929190611403565b506020820151816001019080519060200190610ffb929190611403565b5060408201518160020160006101000a81548160ff0219169083151502179055506060820151816003019080519060200190611038929190611403565b5060808201518160040160006101000a81548173ffffffffffffffffffffffffffffffffffffffff021916908373ffffffffffffffffffffffffffffffffffffffff1602179055509050507fdd3c553ab9875abd1ac8f977d700e4081431605a11587a93ceebd4da49e3ca7d84848484336040516110ba959493929190611ade565b60405180910390a150505050565b60006020528060005260406000206000915090508060000180546110eb90611e84565b80601f016020809104026020016040519081016040528092919081815260200182805461111790611e84565b80156111645780601f1061113957610100808354040283529160200191611164565b820191906000526020600020905b81548152906001019060200180831161114757829003601f168201915b50505050509080600101805461117990611e84565b80601f01602080910402602001604051908101604052809291908181526020018280546111a590611e84565b80156111f25780601f106111c7576101008083540402835291602001916111f2565b820191906000526020600020905b8154815290600101906020018083116111d557829003601f168201915b5050505050908060020160009054906101000a900460ff169080600301805461121a90611e84565b80601f016020809104026020016040519081016040528092919081815260200182805461124690611e84565b80156112935780601f1061126857610100808354040283529160200191611293565b820191906000526020600020905b81548152906001019060200180831161127657829003601f168201915b5050505050908060040160009054906101000a900473ffffffffffffffffffffffffffffffffffffffff16905085565b6000821180156112d557506002548211155b611314576040517f08c379a000000000000000000000000000000000000000000000000000000000815260040161130b90611b46565b60405180910390fd5b817f649efaca9a41689979b569b48d481695615d01c667f54cfe935b29fe5e04287c8233604051611346929190611aae565b60405180910390a25050565b60008273ffffffffffffffffffffffffffffffffffffffff168260405161137890611a77565b60006040518083038185875af1925050503d80600081146113b5576040519150601f19603f3d011682016040523d82523d6000602084013e6113ba565b606091505b50509050806113fe576040517f08c379a00000000000000000000000000000000000000000000000000000000081526004016113f590611b66565b60405180910390fd5b505050565b82805461140f90611e84565b90600052602060002090601f0160209004810192826114315760008555611478565b82601f1061144a57805160ff1916838001178555611478565b82800160010185558215611478579182015b8281111561147757825182559160200191906001019061145c565b5b5090506114859190611489565b5090565b5b808211156114a257600081600090555060010161148a565b5090565b60006114b96114b484611d46565b611d15565b9050828152602081018484840111156114d157600080fd5b6114dc848285611e42565b509392505050565b6000813590506114f381611f9d565b92915050565b60008135905061150881611fb4565b92915050565b600082601f83011261151f57600080fd5b813561152f8482602086016114a6565b91505092915050565b60008135905061154781611fcb565b92915050565b60006020828403121561155f57600080fd5b600061156d848285016114e4565b91505092915050565b6000806040838503121561158957600080fd5b6000611597858286016114e4565b92505060206115a885828601611538565b9150509250929050565b600080600080608085870312156115c857600080fd5b600085013567ffffffffffffffff8111156115e257600080fd5b6115ee8782880161150e565b945050602085013567ffffffffffffffff81111561160b57600080fd5b6116178782880161150e565b9350506040611628878288016114f9565b925050606085013567ffffffffffffffff81111561164557600080fd5b6116518782880161150e565b91505092959194509250565b6000806040838503121561167057600080fd5b600083013567ffffffffffffffff81111561168a57600080fd5b6116968582860161150e565b92505060206116a785828601611538565b9150509250929050565b6000602082840312156116c357600080fd5b60006116d184828501611538565b91505092915050565b600080604083850312156116ed57600080fd5b60006116fb85828601611538565b925050602083013567ffffffffffffffff81111561171857600080fd5b6117248582860161150e565b9150509250929050565b600061173a8383611a59565b60208301905092915050565b61174f81611de8565b82525050565b61175e81611dd6565b82525050565b600061176f82611d86565b6117798185611da9565b935061178483611d76565b8060005b838110156117b557815161179c888261172e565b97506117a783611d9c565b925050600181019050611788565b5085935050505092915050565b6117cb81611dfa565b82525050565b6117da81611e30565b82525050565b60006117eb82611d91565b6117f58185611dc5565b9350611805818560208601611e51565b61180e81611f8c565b840191505092915050565b6000611826600f83611dc5565b91507f496e76616c696420706f737420494400000000000000000000000000000000006000830152602082019050919050565b6000611866601483611dc5565b91507f4661696c656420746f2073656e642045746865720000000000000000000000006000830152602082019050919050565b60006118a6601883611dc5565b91507f57616c6c657420496420646f6573206e6f7420657869737400000000000000006000830152602082019050919050565b60006118e6602583611dc5565b91507f496e73756666696369656e74207061796d656e7420746f20766965772074686560008301527f20706f73740000000000000000000000000000000000000000000000000000006020830152604082019050919050565b600061194c601583611dc5565b91507f506f7374206861736820697320726571756972656400000000000000000000006000830152602082019050919050565b600061198c601283611dc5565b91507f5365742056616c756520302d35302045544800000000000000000000000000006000830152602082019050919050565b60006119cc601383611dc5565b91507f5573657220616c726561647920657869737473000000000000000000000000006000830152602082019050919050565b6000611a0c600083611dba565b9150600082019050919050565b6000611a26601583611dc5565b91507f5573657220646f6573206e6f74206578697374212100000000000000000000006000830152602082019050919050565b611a6281611e26565b82525050565b611a7181611e26565b82525050565b6000611a82826119ff565b9150819050919050565b60006020820190508181036000830152611aa68184611764565b905092915050565b60006040820190508181036000830152611ac881856117e0565b9050611ad76020830184611755565b9392505050565b600060a0820190508181036000830152611af881886117e0565b90508181036020830152611b0c81876117e0565b9050611b1b60408301866117c2565b8181036060830152611b2d81856117e0565b9050611b3c6080830184611746565b9695505050505050565b60006020820190508181036000830152611b5f81611819565b9050919050565b60006020820190508181036000830152611b7f81611859565b9050919050565b60006020820190508181036000830152611b9f81611899565b9050919050565b60006020820190508181036000830152611bbf816118d9565b9050919050565b60006020820190508181036000830152611bdf8161193f565b9050919050565b60006020820190508181036000830152611bff8161197f565b9050919050565b60006020820190508181036000830152611c1f816119bf565b9050919050565b60006020820190508181036000830152611c3f81611a19565b9050919050565b6000602082019050611c5b6000830184611a68565b92915050565b600060a082019050611c766000830188611a68565b8181036020830152611c8881876117e0565b9050611c9760408301866117d1565b611ca46060830185611a68565b611cb16080830184611746565b9695505050505050565b600060a082019050611cd06000830188611a68565b8181036020830152611ce281876117e0565b9050611cf16040830186611a68565b611cfe6060830185611a68565b611d0b6080830184611746565b9695505050505050565b6000604051905081810181811067ffffffffffffffff82111715611d3c57611d3b611f5d565b5b8060405250919050565b600067ffffffffffffffff821115611d6157611d60611f5d565b5b601f19601f8301169050602081019050919050565b6000819050602082019050919050565b600081519050919050565b600081519050919050565b6000602082019050919050565b600082825260208201905092915050565b600081905092915050565b600082825260208201905092915050565b6000611de182611e06565b9050919050565b6000611df382611e06565b9050919050565b60008115159050919050565b600073ffffffffffffffffffffffffffffffffffffffff82169050919050565b6000819050919050565b6000611e3b82611e26565b9050919050565b82818337600083830152505050565b60005b83811015611e6f578082015181840152602081019050611e54565b83811115611e7e576000848401525b50505050565b60006002820490506001821680611e9c57607f821691505b60208210811415611eb057611eaf611f2e565b5b50919050565b6000611ec182611e26565b91507fffffffffffffffffffffffffffffffffffffffffffffffffffffffffffffffff821415611ef457611ef3611eff565b5b600182019050919050565b7f4e487b7100000000000000000000000000000000000000000000000000000000600052601160045260246000fd5b7f4e487b7100000000000000000000000000000000000000000000000000000000600052602260045260246000fd5b7f4e487b7100000000000000000000000000000000000000000000000000000000600052604160045260246000fd5b6000601f19601f8301169050919050565b611fa681611dd6565b8114611fb157600080fd5b50565b611fbd81611dfa565b8114611fc857600080fd5b50565b611fd481611e26565b8114611fdf57600080fd5b5056fea2646970667358221220f51eed08077ec4d7bd03d5c83e910f0129e03236b1e68fdf74ab30becb86025564736f6c63430008000033",
  "immutableReferences": {},
  "source": "// SPDX-License-Identifier: MIT\r\npragma solidity ^0.8.0;\r\n\r\ncontract BShiksha {\r\n    mapping(address => User) public users;\r\n    mapping(address => uint256[]) public walletIdToPostId;\r\n\r\n    struct User {\r\n        string userName;\r\n        string userEmail;\r\n        bool isProfessor;\r\n        string universityName;\r\n        address payable walletId;\r\n    }\r\n\r\n    uint256 public PostCount = 0;\r\n    mapping(uint256 => Post) public Posts;\r\n\r\n    struct Post {\r\n        uint256 id;\r\n        string postCid;\r\n        uint256 tipAmount;\r\n        uint256 viewCost;\r\n        address payable author;\r\n    }\r\n\r\n    event UserSignedUp(\r\n        string userName,\r\n        string userEmail,\r\n        bool isProfessor,\r\n        string universityName,\r\n        address payable walletId\r\n    );\r\n\r\n    event PostCreated(\r\n        uint256 id,\r\n        string postCid,\r\n        uint256 tipAmount,\r\n        uint256 viewCost,\r\n        address payable author\r\n    );\r\n\r\n    event PostTipped(\r\n        uint256 id,\r\n        string postCid,\r\n        uint256 tipAmount,\r\n        uint256 viewCost,\r\n        address payable author\r\n    );\r\n\r\n    event PostViewed(\r\n        uint256 id,\r\n        string postCid,\r\n        uint256 tipAmount,\r\n        uint256 viewCost,\r\n        address payable author\r\n    );\r\n\r\n    event CommentAdded(\r\n        uint256 indexed postId,\r\n        string commentCid,\r\n        address commenter\r\n    );\r\n\r\n    function uploadPost(\r\n        string memory _postCid,\r\n        uint256 _viewCost\r\n    ) public payable {\r\n        require(bytes(_postCid).length > 0, \"Post hash is required\");\r\n        require(_viewCost >= 0 && _viewCost <= 50 * 1e18, \"Set Value 0-50 ETH\");\r\n\r\n        PostCount++;\r\n        uint256 postId = PostCount;\r\n\r\n        Posts[postId] = Post(\r\n            postId,\r\n            _postCid,\r\n            0,\r\n            _viewCost,\r\n            payable(msg.sender)\r\n        );\r\n\r\n        walletIdToPostId[msg.sender].push(postId);\r\n\r\n        emit PostCreated(postId, _postCid, 0, _viewCost, payable(msg.sender));\r\n    }\r\n\r\n    // function tipPostOwner(uint256 _id) public payable {\r\n    //     require(_id > 0 && _id <= PostCount, \"Invalid post ID\");\r\n    //     address payable _author = Posts[_id].author;\r\n    //     _author.transfer(msg.value);\r\n    //     Posts[_id].tipAmount += msg.value;\r\n    //     emit PostTipped(\r\n    //         _id,\r\n    //         Posts[_id].postCid,\r\n    //         Posts[_id].tipAmount,\r\n    //         Posts[_id].viewCost,\r\n    //         _author\r\n    //     );\r\n    // }\r\n\r\n    function getPost(\r\n        uint256 postId\r\n    )\r\n        public\r\n        view\r\n        returns (\r\n            uint256 id,\r\n            string memory postCid,\r\n            uint256 tipAmount,\r\n            uint256 viewCost,\r\n            address payable author\r\n        )\r\n    {\r\n        Post memory post = Posts[postId];\r\n        return (\r\n            post.id,\r\n            post.postCid,\r\n            post.tipAmount,\r\n            post.viewCost,\r\n            post.author\r\n        );\r\n    }\r\n\r\n    function viewPost(uint256 _postId) public payable {\r\n        require(_postId > 0 && _postId <= PostCount, \"Invalid post ID\");\r\n        Post memory post = Posts[_postId];\r\n        if (msg.sender == post.author) {\r\n            return;\r\n        }\r\n        require(\r\n            msg.value >= post.viewCost,\r\n            \"Insufficient payment to view the post\"\r\n        );\r\n        sendViaCall(payable(address(post.author)), msg.value);\r\n        emit PostViewed(\r\n            _postId,\r\n            post.postCid,\r\n            post.tipAmount,\r\n            msg.value,\r\n            post.author\r\n        );\r\n    }\r\n\r\n    function sendViaCall(address payable _to, uint256 _amount) internal {\r\n        (bool sent, ) = _to.call{value: _amount}(\"\");\r\n        require(sent, \"Failed to send Ether\");\r\n    }\r\n\r\n    function getUser(\r\n        address _walletId\r\n    )\r\n        public\r\n        view\r\n        returns (\r\n            string memory userName,\r\n            string memory userEmail,\r\n            bool isProfessor,\r\n            string memory universityName,\r\n            address payable walletId\r\n        )\r\n    {\r\n        require(\r\n            users[_walletId].walletId != address(0),\r\n            \"User does not exist!!\"\r\n        );\r\n        User memory user = users[_walletId];\r\n        return (\r\n            user.userName,\r\n            user.userEmail,\r\n            user.isProfessor,\r\n            user.universityName,\r\n            user.walletId\r\n        );\r\n    }\r\n\r\n    function signUpUser(\r\n        string memory _userName,\r\n        string memory _userEmail,\r\n        bool _isProfessor,\r\n        string memory _universityName\r\n    ) public {\r\n        require(\r\n            users[msg.sender].walletId == address(0),\r\n            \"User already exists\"\r\n        );\r\n\r\n        users[msg.sender] = User({\r\n            userName: _userName,\r\n            userEmail: _userEmail,\r\n            isProfessor: _isProfessor,\r\n            universityName: _universityName,\r\n            walletId: payable(msg.sender)\r\n        });\r\n\r\n        emit UserSignedUp(\r\n            _userName,\r\n            _userEmail,\r\n            _isProfessor,\r\n            _universityName,\r\n            payable(msg.sender)\r\n        );\r\n    }\r\n\r\n    function fetchListOfPostIdsMadeByUser(\r\n        address _walletId\r\n    ) public view returns (uint256[] memory) {\r\n        require(\r\n            walletIdToPostId[_walletId].length > 0,\r\n            \"Wallet Id does not exist\"\r\n        );\r\n        return walletIdToPostId[_walletId];\r\n    }\r\n\r\n    function uploadPostComment(\r\n        uint256 _postId,\r\n        string memory _commentCid\r\n    ) public {\r\n        require(_postId > 0 && _postId <= PostCount, \"Invalid post ID\");\r\n        emit CommentAdded(_postId, _commentCid, msg.sender);\r\n    }\r\n}\r\n",
  "sourcePath": "D:\\coding\\blockchain\\new\\New folder\\bshiksha\\contracts\\NewPost.sol",
  "compiler": {
    "name": "solc",
    "version": "0.8.0+commit.c7dfd78e.Emscripten.clang"
  },
  "schemaVersion": "3.4.16",
  "updatedAt": "2024-06-08T08:56:08.945Z",
  "networkType": "ethereum",
  "devdoc": {
    "kind": "dev",
    "methods": {},
    "version": 1
  },
  "userdoc": {
    "kind": "user",
    "methods": {},
    "version": 1
  }
}