{
  "contractName": "BShiksha",
  "abi": [
    {
      "anonymous": false,
      "inputs": [
        {
          "indexed": false,
          "internalType": "uint256",
          "name": "id",
          "type": "uint256"
        },
        {
          "indexed": false,
          "internalType": "string",
          "name": "postCid",
          "type": "string"
        },
        {
          "indexed": false,
          "internalType": "uint256",
          "name": "tipAmount",
          "type": "uint256"
        },
        {
          "indexed": false,
          "internalType": "uint256",
          "name": "viewCost",
          "type": "uint256"
        },
        {
          "indexed": false,
          "internalType": "address payable",
          "name": "author",
          "type": "address"
        }
      ],
      "name": "PostCreated",
      "type": "event"
    },
    {
      "anonymous": false,
      "inputs": [
        {
          "indexed": false,
          "internalType": "uint256",
          "name": "id",
          "type": "uint256"
        },
        {
          "indexed": false,
          "internalType": "string",
          "name": "postCid",
          "type": "string"
        },
        {
          "indexed": false,
          "internalType": "uint256",
          "name": "tipAmount",
          "type": "uint256"
        },
        {
          "indexed": false,
          "internalType": "uint256",
          "name": "viewCost",
          "type": "uint256"
        },
        {
          "indexed": false,
          "internalType": "address payable",
          "name": "author",
          "type": "address"
        }
      ],
      "name": "PostTipped",
      "type": "event"
    },
    {
      "anonymous": false,
      "inputs": [
        {
          "indexed": false,
          "internalType": "uint256",
          "name": "id",
          "type": "uint256"
        },
        {
          "indexed": false,
          "internalType": "string",
          "name": "postCid",
          "type": "string"
        },
        {
          "indexed": false,
          "internalType": "uint256",
          "name": "tipAmount",
          "type": "uint256"
        },
        {
          "indexed": false,
          "internalType": "uint256",
          "name": "viewCost",
          "type": "uint256"
        },
        {
          "indexed": false,
          "internalType": "address payable",
          "name": "author",
          "type": "address"
        }
      ],
      "name": "PostViewed",
      "type": "event"
    },
    {
      "anonymous": false,
      "inputs": [
        {
          "indexed": false,
          "internalType": "string",
          "name": "userName",
          "type": "string"
        },
        {
          "indexed": false,
          "internalType": "string",
          "name": "userEmail",
          "type": "string"
        },
        {
          "indexed": false,
          "internalType": "bool",
          "name": "isProfessor",
          "type": "bool"
        },
        {
          "indexed": false,
          "internalType": "string",
          "name": "universityName",
          "type": "string"
        },
        {
          "indexed": false,
          "internalType": "address payable",
          "name": "walletId",
          "type": "address"
        }
      ],
      "name": "UserSignedUp",
      "type": "event"
    },
    {
      "inputs": [],
      "name": "PostCount",
      "outputs": [
        {
          "internalType": "uint256",
          "name": "",
          "type": "uint256"
        }
      ],
      "stateMutability": "view",
      "type": "function",
      "constant": true
    },
    {
      "inputs": [
        {
          "internalType": "uint256",
          "name": "",
          "type": "uint256"
        }
      ],
      "name": "Posts",
      "outputs": [
        {
          "internalType": "uint256",
          "name": "id",
          "type": "uint256"
        },
        {
          "internalType": "string",
          "name": "postCid",
          "type": "string"
        },
        {
          "internalType": "uint256",
          "name": "tipAmount",
          "type": "uint256"
        },
        {
          "internalType": "uint256",
          "name": "viewCost",
          "type": "uint256"
        },
        {
          "internalType": "address payable",
          "name": "author",
          "type": "address"
        }
      ],
      "stateMutability": "view",
      "type": "function",
      "constant": true
    },
    {
      "inputs": [
        {
          "internalType": "address",
          "name": "",
          "type": "address"
        }
      ],
      "name": "users",
      "outputs": [
        {
          "internalType": "string",
          "name": "userName",
          "type": "string"
        },
        {
          "internalType": "string",
          "name": "userEmail",
          "type": "string"
        },
        {
          "internalType": "bool",
          "name": "isProfessor",
          "type": "bool"
        },
        {
          "internalType": "string",
          "name": "universityName",
          "type": "string"
        },
        {
          "internalType": "address payable",
          "name": "walletId",
          "type": "address"
        }
      ],
      "stateMutability": "view",
      "type": "function",
      "constant": true
    },
    {
      "inputs": [
        {
          "internalType": "address",
          "name": "",
          "type": "address"
        },
        {
          "internalType": "uint256",
          "name": "",
          "type": "uint256"
        }
      ],
      "name": "walletIdToPostId",
      "outputs": [
        {
          "internalType": "uint256",
          "name": "",
          "type": "uint256"
        }
      ],
      "stateMutability": "view",
      "type": "function",
      "constant": true
    },
    {
      "inputs": [
        {
          "internalType": "string",
          "name": "_postCid",
          "type": "string"
        },
        {
          "internalType": "uint256",
          "name": "_viewCost",
          "type": "uint256"
        }
      ],
      "name": "uploadPost",
      "outputs": [],
      "stateMutability": "payable",
      "type": "function",
      "payable": true
    },
    {
      "inputs": [
        {
          "internalType": "uint256",
          "name": "postId",
          "type": "uint256"
        }
      ],
      "name": "getPost",
      "outputs": [
        {
          "internalType": "uint256",
          "name": "id",
          "type": "uint256"
        },
        {
          "internalType": "string",
          "name": "postCid",
          "type": "string"
        },
        {
          "internalType": "uint256",
          "name": "tipAmount",
          "type": "uint256"
        },
        {
          "internalType": "uint256",
          "name": "viewCost",
          "type": "uint256"
        },
        {
          "internalType": "address payable",
          "name": "author",
          "type": "address"
        }
      ],
      "stateMutability": "view",
      "type": "function",
      "constant": true
    },
    {
      "inputs": [
        {
          "internalType": "uint256",
          "name": "_postId",
          "type": "uint256"
        }
      ],
      "name": "viewPost",
      "outputs": [],
      "stateMutability": "payable",
      "type": "function",
      "payable": true
    },
    {
      "inputs": [
        {
          "internalType": "address",
          "name": "_walletId",
          "type": "address"
        }
      ],
      "name": "getUser",
      "outputs": [
        {
          "internalType": "string",
          "name": "userName",
          "type": "string"
        },
        {
          "internalType": "string",
          "name": "userEmail",
          "type": "string"
        },
        {
          "internalType": "bool",
          "name": "isProfessor",
          "type": "bool"
        },
        {
          "internalType": "string",
          "name": "universityName",
          "type": "string"
        },
        {
          "internalType": "address payable",
          "name": "walletId",
          "type": "address"
        }
      ],
      "stateMutability": "view",
      "type": "function",
      "constant": true
    },
    {
      "inputs": [
        {
          "internalType": "string",
          "name": "_userName",
          "type": "string"
        },
        {
          "internalType": "string",
          "name": "_userEmail",
          "type": "string"
        },
        {
          "internalType": "bool",
          "name": "_isProfessor",
          "type": "bool"
        },
        {
          "internalType": "string",
          "name": "_universityName",
          "type": "string"
        }
      ],
      "name": "signUpUser",
      "outputs": [],
      "stateMutability": "nonpayable",
      "type": "function"
    },
    {
      "inputs": [
        {
          "internalType": "address",
          "name": "_walletId",
          "type": "address"
        }
      ],
      "name": "fetchListOfPostIdsMadeByUser",
      "outputs": [
        {
          "internalType": "uint256[]",
          "name": "",
          "type": "uint256[]"
        }
      ],
      "stateMutability": "view",
      "type": "function",
      "constant": true
    }
  ],
  "bytecode": "0x6080604052600060025534801561001557600080fd5b50611ec2806100256000396000f3fe6080604052600436106100915760003560e01c806389b1c0291161005957806389b1c029146101b25780638d51f8fe146101ce578063a2d1eceb1461020b578063a7b0c26a14610236578063a87430ba1461025f57610091565b806303c0f7d21461009657806340731c24146100b25780634fafef1a146100f35780636f0c4c37146101345780636f77926b14610171575b600080fd5b6100b060048036038101906100ab91906115ee565b6102a0565b005b3480156100be57600080fd5b506100d960048036038101906100d491906115ee565b6104fc565b6040516100ea959493929190611b65565b60405180910390f35b3480156100ff57600080fd5b5061011a600480360381019061011591906115ee565b610659565b60405161012b959493929190611b65565b60405180910390f35b34801561014057600080fd5b5061015b6004803603810190610156919061148a565b610737565b6040516101689190611966565b60405180910390f35b34801561017d57600080fd5b506101986004803603810190610193919061148a565b610853565b6040516101a9959493929190611988565b60405180910390f35b6101cc60048036038101906101c7919061159a565b610bcd565b005b3480156101da57600080fd5b506101f560048036038101906101f091906114b3565b610e0a565b6040516102029190611af0565b60405180910390f35b34801561021757600080fd5b50610220610e3b565b60405161022d9190611af0565b60405180910390f35b34801561024257600080fd5b5061025d600480360381019061025891906114ef565b610e41565b005b34801561026b57600080fd5b506102866004803603810190610281919061148a565b611094565b604051610297959493929190611988565b60405180910390f35b6000811180156102b257506002548111155b6102f1576040517f08c379a00000000000000000000000000000000000000000000000000000000081526004016102e8906119f0565b60405180910390fd5b6000600360008381526020019081526020016000206040518060a00160405290816000820154815260200160018201805461032b90611d2e565b80601f016020809104026020016040519081016040528092919081815260200182805461035790611d2e565b80156103a45780601f10610379576101008083540402835291602001916103a4565b820191906000526020600020905b81548152906001019060200180831161038757829003601f168201915b5050505050815260200160028201548152602001600382015481526020016004820160009054906101000a900473ffffffffffffffffffffffffffffffffffffffff1673ffffffffffffffffffffffffffffffffffffffff1673ffffffffffffffffffffffffffffffffffffffff16815250509050806080015173ffffffffffffffffffffffffffffffffffffffff163373ffffffffffffffffffffffffffffffffffffffff16141561045757506104f9565b806060015134101561049e576040517f08c379a000000000000000000000000000000000000000000000000000000000815260040161049590611a50565b60405180910390fd5b6104ac81608001513461128f565b7f94352681d7d603d745dd0e431687124dd5a30f2bcdfcd3e2e8711995910d66a882826020015183604001513485608001516040516104ef959493929190611b65565b60405180910390a1505b50565b60006060600080600080600360008881526020019081526020016000206040518060a00160405290816000820154815260200160018201805461053e90611d2e565b80601f016020809104026020016040519081016040528092919081815260200182805461056a90611d2e565b80156105b75780601f1061058c576101008083540402835291602001916105b7565b820191906000526020600020905b81548152906001019060200180831161059a57829003601f168201915b5050505050815260200160028201548152602001600382015481526020016004820160009054906101000a900473ffffffffffffffffffffffffffffffffffffffff1673ffffffffffffffffffffffffffffffffffffffff1673ffffffffffffffffffffffffffffffffffffffff1681525050905080600001518160200151826040015183606001518460800151955095509550955095505091939590929450565b600360205280600052604060002060009150905080600001549080600101805461068290611d2e565b80601f01602080910402602001604051908101604052809291908181526020018280546106ae90611d2e565b80156106fb5780601f106106d0576101008083540402835291602001916106fb565b820191906000526020600020905b8154815290600101906020018083116106de57829003601f168201915b5050505050908060020154908060030154908060040160009054906101000a900473ffffffffffffffffffffffffffffffffffffffff16905085565b60606000600160008473ffffffffffffffffffffffffffffffffffffffff1673ffffffffffffffffffffffffffffffffffffffff16815260200190815260200160002080549050116107be576040517f08c379a00000000000000000000000000000000000000000000000000000000081526004016107b590611a30565b60405180910390fd5b600160008373ffffffffffffffffffffffffffffffffffffffff1673ffffffffffffffffffffffffffffffffffffffff16815260200190815260200160002080548060200260200160405190810160405280929190818152602001828054801561084757602002820191906000526020600020905b815481526020019060010190808311610833575b50505050509050919050565b6060806000606060008073ffffffffffffffffffffffffffffffffffffffff166000808873ffffffffffffffffffffffffffffffffffffffff1673ffffffffffffffffffffffffffffffffffffffff16815260200190815260200160002060040160009054906101000a900473ffffffffffffffffffffffffffffffffffffffff1673ffffffffffffffffffffffffffffffffffffffff16141561092c576040517f08c379a000000000000000000000000000000000000000000000000000000000815260040161092390611ad0565b60405180910390fd5b60008060008873ffffffffffffffffffffffffffffffffffffffff1673ffffffffffffffffffffffffffffffffffffffff1681526020019081526020016000206040518060a001604052908160008201805461098790611d2e565b80601f01602080910402602001604051908101604052809291908181526020018280546109b390611d2e565b8015610a005780601f106109d557610100808354040283529160200191610a00565b820191906000526020600020905b8154815290600101906020018083116109e357829003601f168201915b50505050508152602001600182018054610a1990611d2e565b80601f0160208091040260200160405190810160405280929190818152602001828054610a4590611d2e565b8015610a925780601f10610a6757610100808354040283529160200191610a92565b820191906000526020600020905b815481529060010190602001808311610a7557829003601f168201915b505050505081526020016002820160009054906101000a900460ff16151515158152602001600382018054610ac690611d2e565b80601f0160208091040260200160405190810160405280929190818152602001828054610af290611d2e565b8015610b3f5780601f10610b1457610100808354040283529160200191610b3f565b820191906000526020600020905b815481529060010190602001808311610b2257829003601f168201915b505050505081526020016004820160009054906101000a900473ffffffffffffffffffffffffffffffffffffffff1673ffffffffffffffffffffffffffffffffffffffff1673ffffffffffffffffffffffffffffffffffffffff1681525050905080600001518160200151826040015183606001518460800151955095509550955095505091939590929450565b6000825111610c11576040517f08c379a0000000000000000000000000000000000000000000000000000000008152600401610c0890611a70565b60405180910390fd5b60008110158015610c2b57506802b5e3af16b18800008111155b610c6a576040517f08c379a0000000000000000000000000000000000000000000000000000000008152600401610c6190611a90565b60405180910390fd5b60026000815480929190610c7d90611d60565b9190505550600060025490506040518060a00160405280828152602001848152602001600081526020018381526020013373ffffffffffffffffffffffffffffffffffffffff1681525060036000838152602001908152602001600020600082015181600001556020820151816001019080519060200190610d00929190611340565b50604082015181600201556060820151816003015560808201518160040160006101000a81548173ffffffffffffffffffffffffffffffffffffffff021916908373ffffffffffffffffffffffffffffffffffffffff160217905550905050600160003373ffffffffffffffffffffffffffffffffffffffff1673ffffffffffffffffffffffffffffffffffffffff1681526020019081526020016000208190806001815401808255809150506001900390600052602060002001600090919091909150557f60407612d370305dc6c1b08611e062b713b9c2e0c0dee29ff90a1325ba9ba24b818460008533604051610dfd959493929190611b0b565b60405180910390a1505050565b60016020528160005260406000208181548110610e2657600080fd5b90600052602060002001600091509150505481565b60025481565b600073ffffffffffffffffffffffffffffffffffffffff166000803373ffffffffffffffffffffffffffffffffffffffff1673ffffffffffffffffffffffffffffffffffffffff16815260200190815260200160002060040160009054906101000a900473ffffffffffffffffffffffffffffffffffffffff1673ffffffffffffffffffffffffffffffffffffffff1614610f11576040517f08c379a0000000000000000000000000000000000000000000000000000000008152600401610f0890611ab0565b60405180910390fd5b6040518060a0016040528085815260200184815260200183151581526020018281526020013373ffffffffffffffffffffffffffffffffffffffff168152506000803373ffffffffffffffffffffffffffffffffffffffff1673ffffffffffffffffffffffffffffffffffffffff1681526020019081526020016000206000820151816000019080519060200190610faa929190611340565b506020820151816001019080519060200190610fc7929190611340565b5060408201518160020160006101000a81548160ff0219169083151502179055506060820151816003019080519060200190611004929190611340565b5060808201518160040160006101000a81548173ffffffffffffffffffffffffffffffffffffffff021916908373ffffffffffffffffffffffffffffffffffffffff1602179055509050507fdd3c553ab9875abd1ac8f977d700e4081431605a11587a93ceebd4da49e3ca7d8484848433604051611086959493929190611988565b60405180910390a150505050565b60006020528060005260406000206000915090508060000180546110b790611d2e565b80601f01602080910402602001604051908101604052809291908181526020018280546110e390611d2e565b80156111305780601f1061110557610100808354040283529160200191611130565b820191906000526020600020905b81548152906001019060200180831161111357829003601f168201915b50505050509080600101805461114590611d2e565b80601f016020809104026020016040519081016040528092919081815260200182805461117190611d2e565b80156111be5780601f10611193576101008083540402835291602001916111be565b820191906000526020600020905b8154815290600101906020018083116111a157829003601f168201915b5050505050908060020160009054906101000a900460ff16908060030180546111e690611d2e565b80601f016020809104026020016040519081016040528092919081815260200182805461121290611d2e565b801561125f5780601f106112345761010080835404028352916020019161125f565b820191906000526020600020905b81548152906001019060200180831161124257829003601f168201915b5050505050908060040160009054906101000a900473ffffffffffffffffffffffffffffffffffffffff16905085565b60008273ffffffffffffffffffffffffffffffffffffffff16826040516112b590611951565b60006040518083038185875af1925050503d80600081146112f2576040519150601f19603f3d011682016040523d82523d6000602084013e6112f7565b606091505b505090508061133b576040517f08c379a000000000000000000000000000000000000000000000000000000000815260040161133290611a10565b60405180910390fd5b505050565b82805461134c90611d2e565b90600052602060002090601f01602090048101928261136e57600085556113b5565b82601f1061138757805160ff19168380011785556113b5565b828001600101855582156113b5579182015b828111156113b4578251825591602001919060010190611399565b5b5090506113c291906113c6565b5090565b5b808211156113df5760008160009055506001016113c7565b5090565b60006113f66113f184611bf0565b611bbf565b90508281526020810184848401111561140e57600080fd5b611419848285611cec565b509392505050565b60008135905061143081611e47565b92915050565b60008135905061144581611e5e565b92915050565b600082601f83011261145c57600080fd5b813561146c8482602086016113e3565b91505092915050565b60008135905061148481611e75565b92915050565b60006020828403121561149c57600080fd5b60006114aa84828501611421565b91505092915050565b600080604083850312156114c657600080fd5b60006114d485828601611421565b92505060206114e585828601611475565b9150509250929050565b6000806000806080858703121561150557600080fd5b600085013567ffffffffffffffff81111561151f57600080fd5b61152b8782880161144b565b945050602085013567ffffffffffffffff81111561154857600080fd5b6115548782880161144b565b935050604061156587828801611436565b925050606085013567ffffffffffffffff81111561158257600080fd5b61158e8782880161144b565b91505092959194509250565b600080604083850312156115ad57600080fd5b600083013567ffffffffffffffff8111156115c757600080fd5b6115d38582860161144b565b92505060206115e485828601611475565b9150509250929050565b60006020828403121561160057600080fd5b600061160e84828501611475565b91505092915050565b60006116238383611933565b60208301905092915050565b61163881611c92565b82525050565b600061164982611c30565b6116538185611c53565b935061165e83611c20565b8060005b8381101561168f5781516116768882611617565b975061168183611c46565b925050600181019050611662565b5085935050505092915050565b6116a581611ca4565b82525050565b6116b481611cda565b82525050565b60006116c582611c3b565b6116cf8185611c6f565b93506116df818560208601611cfb565b6116e881611e36565b840191505092915050565b6000611700600f83611c6f565b91507f496e76616c696420706f737420494400000000000000000000000000000000006000830152602082019050919050565b6000611740601483611c6f565b91507f4661696c656420746f2073656e642045746865720000000000000000000000006000830152602082019050919050565b6000611780601883611c6f565b91507f57616c6c657420496420646f6573206e6f7420657869737400000000000000006000830152602082019050919050565b60006117c0602583611c6f565b91507f496e73756666696369656e74207061796d656e7420746f20766965772074686560008301527f20706f73740000000000000000000000000000000000000000000000000000006020830152604082019050919050565b6000611826601583611c6f565b91507f506f7374206861736820697320726571756972656400000000000000000000006000830152602082019050919050565b6000611866601283611c6f565b91507f5365742056616c756520302d35302045544800000000000000000000000000006000830152602082019050919050565b60006118a6601383611c6f565b91507f5573657220616c726561647920657869737473000000000000000000000000006000830152602082019050919050565b60006118e6600083611c64565b9150600082019050919050565b6000611900601583611c6f565b91507f5573657220646f6573206e6f74206578697374212100000000000000000000006000830152602082019050919050565b61193c81611cd0565b82525050565b61194b81611cd0565b82525050565b600061195c826118d9565b9150819050919050565b60006020820190508181036000830152611980818461163e565b905092915050565b600060a08201905081810360008301526119a281886116ba565b905081810360208301526119b681876116ba565b90506119c5604083018661169c565b81810360608301526119d781856116ba565b90506119e6608083018461162f565b9695505050505050565b60006020820190508181036000830152611a09816116f3565b9050919050565b60006020820190508181036000830152611a2981611733565b9050919050565b60006020820190508181036000830152611a4981611773565b9050919050565b60006020820190508181036000830152611a69816117b3565b9050919050565b60006020820190508181036000830152611a8981611819565b9050919050565b60006020820190508181036000830152611aa981611859565b9050919050565b60006020820190508181036000830152611ac981611899565b9050919050565b60006020820190508181036000830152611ae9816118f3565b9050919050565b6000602082019050611b056000830184611942565b92915050565b600060a082019050611b206000830188611942565b8181036020830152611b3281876116ba565b9050611b4160408301866116ab565b611b4e6060830185611942565b611b5b608083018461162f565b9695505050505050565b600060a082019050611b7a6000830188611942565b8181036020830152611b8c81876116ba565b9050611b9b6040830186611942565b611ba86060830185611942565b611bb5608083018461162f565b9695505050505050565b6000604051905081810181811067ffffffffffffffff82111715611be657611be5611e07565b5b8060405250919050565b600067ffffffffffffffff821115611c0b57611c0a611e07565b5b601f19601f8301169050602081019050919050565b6000819050602082019050919050565b600081519050919050565b600081519050919050565b6000602082019050919050565b600082825260208201905092915050565b600081905092915050565b600082825260208201905092915050565b6000611c8b82611cb0565b9050919050565b6000611c9d82611cb0565b9050919050565b60008115159050919050565b600073ffffffffffffffffffffffffffffffffffffffff82169050919050565b6000819050919050565b6000611ce582611cd0565b9050919050565b82818337600083830152505050565b60005b83811015611d19578082015181840152602081019050611cfe565b83811115611d28576000848401525b50505050565b60006002820490506001821680611d4657607f821691505b60208210811415611d5a57611d59611dd8565b5b50919050565b6000611d6b82611cd0565b91507fffffffffffffffffffffffffffffffffffffffffffffffffffffffffffffffff821415611d9e57611d9d611da9565b5b600182019050919050565b7f4e487b7100000000000000000000000000000000000000000000000000000000600052601160045260246000fd5b7f4e487b7100000000000000000000000000000000000000000000000000000000600052602260045260246000fd5b7f4e487b7100000000000000000000000000000000000000000000000000000000600052604160045260246000fd5b6000601f19601f8301169050919050565b611e5081611c80565b8114611e5b57600080fd5b50565b611e6781611ca4565b8114611e7257600080fd5b50565b611e7e81611cd0565b8114611e8957600080fd5b5056fea26469706673582212203b2fd58e92a7f9bf64a469f012bdf6f7a5aecce7e8a9537bcce4e43e19884e1e64736f6c63430008000033",
  "immutableReferences": {},
  "source": "// SPDX-License-Identifier: MIT\r\npragma solidity ^0.8.0;\r\n\r\ncontract BShiksha {\r\n    mapping(address => User) public users;\r\n    mapping(address => uint256[]) public walletIdToPostId;\r\n\r\n    struct User {\r\n        string userName;\r\n        string userEmail;\r\n        bool isProfessor;\r\n        string universityName;\r\n        address payable walletId;\r\n    }\r\n\r\n    uint256 public PostCount = 0;\r\n    mapping(uint256 => Post) public Posts;\r\n\r\n    struct Post {\r\n        uint256 id;\r\n        string postCid;\r\n        uint256 tipAmount;\r\n        uint256 viewCost;\r\n        address payable author;\r\n    }\r\n\r\n    event UserSignedUp(\r\n        string userName,\r\n        string userEmail,\r\n        bool isProfessor,\r\n        string universityName,\r\n        address payable walletId\r\n    );\r\n\r\n    event PostCreated(\r\n        uint256 id,\r\n        string postCid,\r\n        uint256 tipAmount,\r\n        uint256 viewCost,\r\n        address payable author\r\n    );\r\n\r\n    event PostTipped(\r\n        uint256 id,\r\n        string postCid,\r\n        uint256 tipAmount,\r\n        uint256 viewCost,\r\n        address payable author\r\n    );\r\n\r\n    event PostViewed(\r\n        uint256 id,\r\n        string postCid,\r\n        uint256 tipAmount,\r\n        uint256 viewCost,\r\n        address payable author\r\n    );\r\n\r\n    function uploadPost(\r\n        string memory _postCid,\r\n        uint256 _viewCost\r\n    ) public payable {\r\n        require(bytes(_postCid).length > 0, \"Post hash is required\");\r\n        require(_viewCost >= 0 && _viewCost <= 50 * 1e18, \"Set Value 0-50 ETH\");\r\n\r\n        PostCount++;\r\n        uint256 postId = PostCount;\r\n\r\n        Posts[postId] = Post(\r\n            postId,\r\n            _postCid,\r\n            0,\r\n            _viewCost,\r\n            payable(msg.sender)\r\n        );\r\n\r\n        walletIdToPostId[msg.sender].push(postId);\r\n\r\n        emit PostCreated(postId, _postCid, 0, _viewCost, payable(msg.sender));\r\n    }\r\n\r\n    // function tipPostOwner(uint256 _id) public payable {\r\n    //     require(_id > 0 && _id <= PostCount, \"Invalid post ID\");\r\n    //     address payable _author = Posts[_id].author;\r\n    //     _author.transfer(msg.value);\r\n    //     Posts[_id].tipAmount += msg.value;\r\n    //     emit PostTipped(\r\n    //         _id,\r\n    //         Posts[_id].postCid,\r\n    //         Posts[_id].tipAmount,\r\n    //         Posts[_id].viewCost,\r\n    //         _author\r\n    //     );\r\n    // }\r\n\r\n    function getPost(\r\n        uint256 postId\r\n    )\r\n        public\r\n        view\r\n        returns (\r\n            uint256 id,\r\n            string memory postCid,\r\n            uint256 tipAmount,\r\n            uint256 viewCost,\r\n            address payable author\r\n        )\r\n    {\r\n        Post memory post = Posts[postId];\r\n        return (\r\n            post.id,\r\n            post.postCid,\r\n            post.tipAmount,\r\n            post.viewCost,\r\n            post.author\r\n        );\r\n    }\r\n\r\n    function viewPost(uint256 _postId) public payable {\r\n        require(_postId > 0 && _postId <= PostCount, \"Invalid post ID\");\r\n        Post memory post = Posts[_postId];\r\n        if (msg.sender == post.author) {\r\n            return;\r\n        }\r\n        require(\r\n            msg.value >= post.viewCost,\r\n            \"Insufficient payment to view the post\"\r\n        );\r\n        sendViaCall(payable(address(post.author)), msg.value);\r\n        emit PostViewed(\r\n            _postId,\r\n            post.postCid,\r\n            post.tipAmount,\r\n            msg.value,\r\n            post.author\r\n        );\r\n    }\r\n\r\n    function sendViaCall(address payable _to, uint256 _amount) internal {\r\n        (bool sent, ) = _to.call{value: _amount}(\"\");\r\n        require(sent, \"Failed to send Ether\");\r\n    }\r\n\r\n    function getUser(\r\n        address _walletId\r\n    )\r\n        public\r\n        view\r\n        returns (\r\n            string memory userName,\r\n            string memory userEmail,\r\n            bool isProfessor,\r\n            string memory universityName,\r\n            address payable walletId\r\n        )\r\n    {\r\n        require(\r\n            users[_walletId].walletId != address(0),\r\n            \"User does not exist!!\"\r\n        );\r\n        User memory user = users[_walletId];\r\n        return (\r\n            user.userName,\r\n            user.userEmail,\r\n            user.isProfessor,\r\n            user.universityName,\r\n            user.walletId\r\n        );\r\n    }\r\n\r\n    function signUpUser(\r\n        string memory _userName,\r\n        string memory _userEmail,\r\n        bool _isProfessor,\r\n        string memory _universityName\r\n    ) public {\r\n        require(\r\n            users[msg.sender].walletId == address(0),\r\n            \"User already exists\"\r\n        );\r\n\r\n        users[msg.sender] = User({\r\n            userName: _userName,\r\n            userEmail: _userEmail,\r\n            isProfessor: _isProfessor,\r\n            universityName: _universityName,\r\n            walletId: payable(msg.sender)\r\n        });\r\n\r\n        emit UserSignedUp(\r\n            _userName,\r\n            _userEmail,\r\n            _isProfessor,\r\n            _universityName,\r\n            payable(msg.sender)\r\n        );\r\n    }\r\n\r\n    function fetchListOfPostIdsMadeByUser(address _walletId) public view returns ( uint256[] memory ) {\r\n        require(walletIdToPostId[_walletId].length > 0, \"Wallet Id does not exist\");\r\n        return walletIdToPostId[_walletId];\r\n    }\r\n}\r\n",
  "sourcePath": "D:\\coding\\blockchain\\new\\New folder\\bshiksha\\contracts\\NewPost.sol",
  "compiler": {
    "name": "solc",
    "version": "0.8.0+commit.c7dfd78e.Emscripten.clang"
  },
  "schemaVersion": "3.4.16",
  "updatedAt": "2024-06-08T02:09:29.272Z",
  "networkType": "ethereum",
  "devdoc": {
    "kind": "dev",
    "methods": {},
    "version": 1
  },
  "userdoc": {
    "kind": "user",
    "methods": {},
    "version": 1
  }
}