{
  "contractName": "BShiksha",
  "abi": [
    {
      "anonymous": false,
      "inputs": [
        {
          "indexed": false,
          "internalType": "uint256",
          "name": "id",
          "type": "uint256"
        },
        {
          "indexed": false,
          "internalType": "string",
          "name": "hash",
          "type": "string"
        },
        {
          "indexed": false,
          "internalType": "string",
          "name": "descripton",
          "type": "string"
        },
        {
          "indexed": false,
          "internalType": "uint256",
          "name": "tipAmount",
          "type": "uint256"
        },
        {
          "indexed": false,
          "internalType": "address payable",
          "name": "author",
          "type": "address"
        }
      ],
      "name": "PostCreated",
      "type": "event"
    },
    {
      "anonymous": false,
      "inputs": [
        {
          "indexed": false,
          "internalType": "uint256",
          "name": "id",
          "type": "uint256"
        },
        {
          "indexed": false,
          "internalType": "string",
          "name": "hash",
          "type": "string"
        },
        {
          "indexed": false,
          "internalType": "string",
          "name": "descripton",
          "type": "string"
        },
        {
          "indexed": false,
          "internalType": "uint256",
          "name": "tipAmount",
          "type": "uint256"
        },
        {
          "indexed": false,
          "internalType": "address payable",
          "name": "author",
          "type": "address"
        }
      ],
      "name": "PostTipped",
      "type": "event"
    },
    {
      "inputs": [],
      "name": "PostCount",
      "outputs": [
        {
          "internalType": "uint256",
          "name": "",
          "type": "uint256"
        }
      ],
      "stateMutability": "view",
      "type": "function",
      "constant": true
    },
    {
      "inputs": [
        {
          "internalType": "uint256",
          "name": "",
          "type": "uint256"
        }
      ],
      "name": "Posts",
      "outputs": [
        {
          "internalType": "uint256",
          "name": "id",
          "type": "uint256"
        },
        {
          "internalType": "string",
          "name": "hash",
          "type": "string"
        },
        {
          "internalType": "string",
          "name": "description",
          "type": "string"
        },
        {
          "internalType": "uint256",
          "name": "tipAmount",
          "type": "uint256"
        },
        {
          "internalType": "address payable",
          "name": "author",
          "type": "address"
        }
      ],
      "stateMutability": "view",
      "type": "function",
      "constant": true
    },
    {
      "inputs": [
        {
          "internalType": "uint256",
          "name": "",
          "type": "uint256"
        }
      ],
      "name": "posts",
      "outputs": [
        {
          "internalType": "uint256",
          "name": "id",
          "type": "uint256"
        },
        {
          "internalType": "string",
          "name": "hash",
          "type": "string"
        },
        {
          "internalType": "string",
          "name": "description",
          "type": "string"
        },
        {
          "internalType": "uint256",
          "name": "tipAmount",
          "type": "uint256"
        },
        {
          "internalType": "address payable",
          "name": "author",
          "type": "address"
        }
      ],
      "stateMutability": "view",
      "type": "function",
      "constant": true
    },
    {
      "inputs": [
        {
          "internalType": "address",
          "name": "",
          "type": "address"
        }
      ],
      "name": "userRoles",
      "outputs": [
        {
          "internalType": "enum BShiksha.Role",
          "name": "",
          "type": "uint8"
        }
      ],
      "stateMutability": "view",
      "type": "function",
      "constant": true
    },
    {
      "inputs": [
        {
          "internalType": "string",
          "name": "_userType",
          "type": "string"
        }
      ],
      "name": "assignUserRoles",
      "outputs": [
        {
          "internalType": "enum BShiksha.Role",
          "name": "",
          "type": "uint8"
        }
      ],
      "stateMutability": "pure",
      "type": "function",
      "constant": true
    },
    {
      "inputs": [
        {
          "internalType": "string",
          "name": "_PostHash",
          "type": "string"
        },
        {
          "internalType": "string",
          "name": "_description",
          "type": "string"
        }
      ],
      "name": "uploadPost",
      "outputs": [],
      "stateMutability": "nonpayable",
      "type": "function"
    },
    {
      "inputs": [
        {
          "internalType": "uint256",
          "name": "_id",
          "type": "uint256"
        }
      ],
      "name": "tipPostOwner",
      "outputs": [],
      "stateMutability": "payable",
      "type": "function",
      "payable": true
    }
  ],
  "bytecode": "0x6080604052600060015534801561001557600080fd5b506110d7806100256000396000f3fe6080604052600436106100705760003560e01c806358114a2d1161004e57806358114a2d1461012057806374d5e1001461015d578063a2d1eceb1461019a578063d6313c06146101c557610070565b80630b1e7f83146100755780630cb1c7ee146100b65780634fafef1a146100df575b600080fd5b34801561008157600080fd5b5061009c60048036038101906100979190610a49565b6101e1565b6040516100ad959493929190610c9b565b60405180910390f35b3480156100c257600080fd5b506100dd60048036038101906100d891906109dd565b610357565b005b3480156100eb57600080fd5b5061010660048036038101906101019190610a49565b6104f8565b604051610117959493929190610c9b565b60405180910390f35b34801561012c57600080fd5b506101476004803603810190610142919061099c565b61065e565b6040516101549190610c04565b60405180910390f35b34801561016957600080fd5b50610184600480360381019061017f9190610973565b6106cb565b6040516101919190610c04565b60405180910390f35b3480156101a657600080fd5b506101af6106eb565b6040516101bc9190610c1f565b60405180910390f35b6101df60048036038101906101da9190610a49565b6106f1565b005b600381815481106101f157600080fd5b906000526020600020906005020160009150905080600001549080600101805461021a90610f17565b80601f016020809104026020016040519081016040528092919081815260200182805461024690610f17565b80156102935780601f1061026857610100808354040283529160200191610293565b820191906000526020600020905b81548152906001019060200180831161027657829003601f168201915b5050505050908060020180546102a890610f17565b80601f01602080910402602001604051908101604052809291908181526020018280546102d490610f17565b80156103215780601f106102f657610100808354040283529160200191610321565b820191906000526020600020905b81548152906001019060200180831161030457829003601f168201915b5050505050908060030154908060040160009054906101000a900473ffffffffffffffffffffffffffffffffffffffff16905085565b600082511161036557600080fd5b600081511161037357600080fd5b600073ffffffffffffffffffffffffffffffffffffffff163373ffffffffffffffffffffffffffffffffffffffff1614156103ad57600080fd5b600160008154809291906103c090610f49565b91905055506040518060a001604052806001548152602001838152602001828152602001600081526020013373ffffffffffffffffffffffffffffffffffffffff1681525060026000600154815260200190815260200160002060008201518160000155602082015181600101908051906020019061044092919061083e565b50604082015181600201908051906020019061045d92919061083e565b506060820151816003015560808201518160040160006101000a81548173ffffffffffffffffffffffffffffffffffffffff021916908373ffffffffffffffffffffffffffffffffffffffff1602179055509050507f0e2769bd597cd7048e25b64a846e1254d4cb84b13c4aba4ad4a891baf7a399c660015483836000336040516104ec959493929190610c3a565b60405180910390a15050565b600260205280600052604060002060009150905080600001549080600101805461052190610f17565b80601f016020809104026020016040519081016040528092919081815260200182805461054d90610f17565b801561059a5780601f1061056f5761010080835404028352916020019161059a565b820191906000526020600020905b81548152906001019060200180831161057d57829003601f168201915b5050505050908060020180546105af90610f17565b80601f01602080910402602001604051908101604052809291908181526020018280546105db90610f17565b80156106285780601f106105fd57610100808354040283529160200191610628565b820191906000526020600020905b81548152906001019060200180831161060b57829003601f168201915b5050505050908060030154908060040160009054906101000a900473ffffffffffffffffffffffffffffffffffffffff16905085565b600080826040516020016106729190610bd8565b60405160208183030381529060405280519060200120905060405160200161069990610bef565b604051602081830303815290604052805190602001208114156106c05760009150506106c6565b60019150505b919050565b60006020528060005260406000206000915054906101000a900460ff1681565b60015481565b60008111801561070357506001548111155b61070c57600080fd5b60006002600083815260200190815260200160002060040160009054906101000a900473ffffffffffffffffffffffffffffffffffffffff1690508073ffffffffffffffffffffffffffffffffffffffff166108fc349081150290604051600060405180830381858888f1935050505015801561078d573d6000803e3d6000fd5b50346002600084815260200190815260200160002060030160008282546107b49190610dfa565b925050819055507f8cdd31fc6bd9c789638fdbd3ed5c788b27fa5d287f300e92f3c436ba03527db3826002600085815260200190815260200160002060010160026000868152602001908152602001600020600201600260008781526020019081526020016000206003015485604051610832959493929190610cfc565b60405180910390a15050565b82805461084a90610f17565b90600052602060002090601f01602090048101928261086c57600085556108b3565b82601f1061088557805160ff19168380011785556108b3565b828001600101855582156108b3579182015b828111156108b2578251825591602001919060010190610897565b5b5090506108c091906108c4565b5090565b5b808211156108dd5760008160009055506001016108c5565b5090565b60006108f46108ef84610d8e565b610d5d565b90508281526020810184848401111561090c57600080fd5b610917848285610ed5565b509392505050565b60008135905061092e81611073565b92915050565b600082601f83011261094557600080fd5b81356109558482602086016108e1565b91505092915050565b60008135905061096d8161108a565b92915050565b60006020828403121561098557600080fd5b60006109938482850161091f565b91505092915050565b6000602082840312156109ae57600080fd5b600082013567ffffffffffffffff8111156109c857600080fd5b6109d484828501610934565b91505092915050565b600080604083850312156109f057600080fd5b600083013567ffffffffffffffff811115610a0a57600080fd5b610a1685828601610934565b925050602083013567ffffffffffffffff811115610a3357600080fd5b610a3f85828601610934565b9150509250929050565b600060208284031215610a5b57600080fd5b6000610a698482850161095e565b91505092915050565b610a7b81610e62565b82525050565b610a8a81610eb1565b82525050565b610a9981610ec3565b82525050565b6000610aaa82610dd3565b610ab48185610dde565b9350610ac4818560208601610ee4565b610acd8161104e565b840191505092915050565b6000610ae382610dd3565b610aed8185610def565b9350610afd818560208601610ee4565b80840191505092915050565b60008154610b1681610f17565b610b208186610dde565b94506001821660008114610b3b5760018114610b4d57610b80565b60ff1983168652602086019350610b80565b610b5685610dbe565b60005b83811015610b7857815481890152600182019150602081019050610b59565b808801955050505b50505092915050565b6000610b96600783610def565b91507f666163756c7479000000000000000000000000000000000000000000000000006000830152600782019050919050565b610bd281610ea7565b82525050565b6000610be48284610ad8565b915081905092915050565b6000610bfa82610b89565b9150819050919050565b6000602082019050610c196000830184610a81565b92915050565b6000602082019050610c346000830184610bc9565b92915050565b600060a082019050610c4f6000830188610bc9565b8181036020830152610c618187610a9f565b90508181036040830152610c758186610a9f565b9050610c846060830185610a90565b610c916080830184610a72565b9695505050505050565b600060a082019050610cb06000830188610bc9565b8181036020830152610cc28187610a9f565b90508181036040830152610cd68186610a9f565b9050610ce56060830185610bc9565b610cf26080830184610a72565b9695505050505050565b600060a082019050610d116000830188610bc9565b8181036020830152610d238187610b09565b90508181036040830152610d378186610b09565b9050610d466060830185610bc9565b610d536080830184610a72565b9695505050505050565b6000604051905081810181811067ffffffffffffffff82111715610d8457610d8361101f565b5b8060405250919050565b600067ffffffffffffffff821115610da957610da861101f565b5b601f19601f8301169050602081019050919050565b60008190508160005260206000209050919050565b600081519050919050565b600082825260208201905092915050565b600081905092915050565b6000610e0582610ea7565b9150610e1083610ea7565b9250827fffffffffffffffffffffffffffffffffffffffffffffffffffffffffffffffff03821115610e4557610e44610f92565b5b828201905092915050565b6000610e5b82610e87565b9050919050565b6000610e6d82610e87565b9050919050565b6000819050610e828261105f565b919050565b600073ffffffffffffffffffffffffffffffffffffffff82169050919050565b6000819050919050565b6000610ebc82610e74565b9050919050565b6000610ece82610ea7565b9050919050565b82818337600083830152505050565b60005b83811015610f02578082015181840152602081019050610ee7565b83811115610f11576000848401525b50505050565b60006002820490506001821680610f2f57607f821691505b60208210811415610f4357610f42610ff0565b5b50919050565b6000610f5482610ea7565b91507fffffffffffffffffffffffffffffffffffffffffffffffffffffffffffffffff821415610f8757610f86610f92565b5b600182019050919050565b7f4e487b7100000000000000000000000000000000000000000000000000000000600052601160045260246000fd5b7f4e487b7100000000000000000000000000000000000000000000000000000000600052602160045260246000fd5b7f4e487b7100000000000000000000000000000000000000000000000000000000600052602260045260246000fd5b7f4e487b7100000000000000000000000000000000000000000000000000000000600052604160045260246000fd5b6000601f19601f8301169050919050565b600281106110705761106f610fc1565b5b50565b61107c81610e50565b811461108757600080fd5b50565b61109381610ea7565b811461109e57600080fd5b5056fea264697066735822122003757c60d6eb1c4427596c5875b1e86085768a409498cdb856eea5e73febda5464736f6c63430008000033",
  "immutableReferences": {},
  "source": "// SPDX-License-Identifier: MIT\r\npragma solidity ^0.8.0;\r\n\r\ncontract BShiksha {\r\n    // Enum to represent user roles\r\n    enum Role {\r\n        Faculty,\r\n        Viewer\r\n    }\r\n\r\n    // Mapping to store user addresses and their roles\r\n    mapping(address => Role) public userRoles;\r\n\r\n    function assignUserRoles(string memory _userType) public pure returns (Role) {\r\n        // Convert user type to lowercase for case-insensitive comparison\r\n        bytes32 userType = keccak256(abi.encodePacked(_userType));\r\n\r\n        // Assign roles based on user type\r\n        if (userType == keccak256(abi.encodePacked(\"faculty\"))) {\r\n            return Role.Faculty;\r\n        } else {\r\n            return Role.Viewer;\r\n        }\r\n    }\r\n\r\n    // Stores Posts\r\n    uint256 public PostCount = 0;\r\n    mapping(uint256 => Post) public Posts;\r\n\r\n    struct Post {\r\n        uint256 id;\r\n        string hash;\r\n        string description;\r\n        uint256 tipAmount;\r\n        address payable author;\r\n    }\r\n\r\n    // Array to store all posts\r\n    Post[] public posts;\r\n\r\n    // Modifier to restrict functions to Faculties only\r\n    modifier onlyFaculty() {\r\n        require(\r\n            userRoles[msg.sender] == Role.Faculty,\r\n            \"Only Faculties can create posts\"\r\n        );\r\n        _;\r\n    }\r\n\r\n    // creating an event for Post uploading\r\n    event PostCreated(\r\n        uint256 id,\r\n        string hash,\r\n        string descripton,\r\n        uint256 tipAmount,\r\n        address payable author\r\n    );\r\n\r\n    // creating an event for Post tipping\r\n    event PostTipped(\r\n        uint256 id,\r\n        string hash,\r\n        string descripton,\r\n        uint256 tipAmount,\r\n        address payable author\r\n    );\r\n\r\n    // create Posts\r\n    function uploadPost(\r\n        string memory _PostHash,\r\n        string memory _description\r\n    ) public {\r\n        // Makes sure Post hash exists\r\n        require(bytes(_PostHash).length > 0);\r\n\r\n        // Makes sure Post description exists\r\n        require(bytes(_description).length > 0);\r\n\r\n        // Makes sure uploader address exists\r\n        require(msg.sender != address(0x0));\r\n\r\n        // Increment Post count\r\n        PostCount++;\r\n\r\n        // Add Post to contract\r\n        Posts[PostCount] = Post(\r\n            PostCount,\r\n            _PostHash,\r\n            _description,\r\n            0,\r\n            payable(msg.sender)\r\n        );\r\n\r\n        // Trigger the event\r\n        emit PostCreated(\r\n            PostCount,\r\n            _PostHash,\r\n            _description,\r\n            0,\r\n            payable(msg.sender)\r\n        );\r\n    }\r\n\r\n    // Tip Posts\r\n    function tipPostOwner(uint256 _id) public payable {\r\n        // Validating the Post\r\n        require(_id > 0 && _id <= PostCount);\r\n        // Fetching the Post/post\r\n        // Post memory _Post = Posts[_id];\r\n\r\n        // Fetching address of author of Post/post\r\n        // address payable _author = _Post.author;\r\n        address payable _author = Posts[_id].author;\r\n\r\n        // Paying the author\r\n        _author.transfer(msg.value);\r\n\r\n        // Increment the tip amount\r\n        // _Post.tipAmount = _Post.tipAmount + msg.value;\r\n        Posts[_id].tipAmount += msg.value;\r\n\r\n        // Update the Post in mapping\r\n        // Posts[_id] = _Post;\r\n\r\n        // Trigger event when an Post is tipped\r\n        emit PostTipped(\r\n            _id,\r\n            Posts[_id].hash,\r\n            Posts[_id].description,\r\n            Posts[_id].tipAmount,\r\n            _author\r\n        );\r\n    }\r\n}",
  "sourcePath": "D:\\coding\\blockchain\\new\\bshiksha\\contracts\\NewPost.sol",
  "compiler": {
    "name": "solc",
    "version": "0.8.0+commit.c7dfd78e.Emscripten.clang"
  },
  "schemaVersion": "3.4.16",
  "updatedAt": "2024-04-20T15:44:15.445Z",
  "networkType": "ethereum",
  "devdoc": {
    "kind": "dev",
    "methods": {},
    "version": 1
  },
  "userdoc": {
    "kind": "user",
    "methods": {},
    "version": 1
  }
}