{
  "contractName": "BShiksha",
  "abi": [
    {
      "anonymous": false,
      "inputs": [
        {
          "indexed": false,
          "internalType": "uint256",
          "name": "id",
          "type": "uint256"
        },
        {
          "indexed": false,
          "internalType": "string",
          "name": "hash",
          "type": "string"
        },
        {
          "indexed": false,
          "internalType": "string",
          "name": "description",
          "type": "string"
        },
        {
          "indexed": false,
          "internalType": "uint256",
          "name": "tipAmount",
          "type": "uint256"
        },
        {
          "indexed": false,
          "internalType": "address payable",
          "name": "author",
          "type": "address"
        }
      ],
      "name": "PostCreated",
      "type": "event"
    },
    {
      "anonymous": false,
      "inputs": [
        {
          "indexed": false,
          "internalType": "uint256",
          "name": "id",
          "type": "uint256"
        },
        {
          "indexed": false,
          "internalType": "string",
          "name": "hash",
          "type": "string"
        },
        {
          "indexed": false,
          "internalType": "string",
          "name": "description",
          "type": "string"
        },
        {
          "indexed": false,
          "internalType": "uint256",
          "name": "tipAmount",
          "type": "uint256"
        },
        {
          "indexed": false,
          "internalType": "address payable",
          "name": "author",
          "type": "address"
        }
      ],
      "name": "PostTipped",
      "type": "event"
    },
    {
      "inputs": [],
      "name": "PostCount",
      "outputs": [
        {
          "internalType": "uint256",
          "name": "",
          "type": "uint256"
        }
      ],
      "stateMutability": "view",
      "type": "function",
      "constant": true
    },
    {
      "inputs": [
        {
          "internalType": "uint256",
          "name": "",
          "type": "uint256"
        }
      ],
      "name": "Posts",
      "outputs": [
        {
          "internalType": "uint256",
          "name": "id",
          "type": "uint256"
        },
        {
          "internalType": "string",
          "name": "hash",
          "type": "string"
        },
        {
          "internalType": "string",
          "name": "description",
          "type": "string"
        },
        {
          "internalType": "uint256",
          "name": "tipAmount",
          "type": "uint256"
        },
        {
          "internalType": "address payable",
          "name": "author",
          "type": "address"
        }
      ],
      "stateMutability": "view",
      "type": "function",
      "constant": true
    },
    {
      "inputs": [
        {
          "internalType": "uint256",
          "name": "",
          "type": "uint256"
        }
      ],
      "name": "posts",
      "outputs": [
        {
          "internalType": "uint256",
          "name": "id",
          "type": "uint256"
        },
        {
          "internalType": "string",
          "name": "hash",
          "type": "string"
        },
        {
          "internalType": "string",
          "name": "description",
          "type": "string"
        },
        {
          "internalType": "uint256",
          "name": "tipAmount",
          "type": "uint256"
        },
        {
          "internalType": "address payable",
          "name": "author",
          "type": "address"
        }
      ],
      "stateMutability": "view",
      "type": "function",
      "constant": true
    },
    {
      "inputs": [
        {
          "internalType": "address",
          "name": "",
          "type": "address"
        }
      ],
      "name": "userRoles",
      "outputs": [
        {
          "internalType": "enum BShiksha.Role",
          "name": "",
          "type": "uint8"
        }
      ],
      "stateMutability": "view",
      "type": "function",
      "constant": true
    },
    {
      "inputs": [
        {
          "internalType": "string",
          "name": "_userType",
          "type": "string"
        }
      ],
      "name": "assignUserRoles",
      "outputs": [
        {
          "internalType": "enum BShiksha.Role",
          "name": "",
          "type": "uint8"
        }
      ],
      "stateMutability": "pure",
      "type": "function",
      "constant": true
    },
    {
      "inputs": [
        {
          "internalType": "string",
          "name": "_PostHash",
          "type": "string"
        },
        {
          "internalType": "string",
          "name": "_description",
          "type": "string"
        }
      ],
      "name": "uploadPost",
      "outputs": [],
      "stateMutability": "nonpayable",
      "type": "function"
    },
    {
      "inputs": [
        {
          "internalType": "uint256",
          "name": "_id",
          "type": "uint256"
        }
      ],
      "name": "tipPostOwner",
      "outputs": [],
      "stateMutability": "payable",
      "type": "function",
      "payable": true
    }
  ],
  "bytecode": "0x6080604052600060015534801561001557600080fd5b50611221806100256000396000f3fe6080604052600436106100705760003560e01c806358114a2d1161004e57806358114a2d1461012057806374d5e1001461015d578063a2d1eceb1461019a578063d6313c06146101c557610070565b80630b1e7f83146100755780630cb1c7ee146100b65780634fafef1a146100df575b600080fd5b34801561008157600080fd5b5061009c60048036038101906100979190610b0d565b6101e1565b6040516100ad959493929190610de5565b60405180910390f35b3480156100c257600080fd5b506100dd60048036038101906100d89190610aa1565b610357565b005b3480156100eb57600080fd5b5061010660048036038101906101019190610b0d565b6105bc565b604051610117959493929190610de5565b60405180910390f35b34801561012c57600080fd5b5061014760048036038101906101429190610a60565b610722565b6040516101549190610d2e565b60405180910390f35b34801561016957600080fd5b50610184600480360381019061017f9190610a37565b61078f565b6040516101919190610d2e565b60405180910390f35b3480156101a657600080fd5b506101af6107af565b6040516101bc9190610d69565b60405180910390f35b6101df60048036038101906101da9190610b0d565b6107b5565b005b600381815481106101f157600080fd5b906000526020600020906005020160009150905080600001549080600101805461021a90611061565b80601f016020809104026020016040519081016040528092919081815260200182805461024690611061565b80156102935780601f1061026857610100808354040283529160200191610293565b820191906000526020600020905b81548152906001019060200180831161027657829003601f168201915b5050505050908060020180546102a890611061565b80601f01602080910402602001604051908101604052809291908181526020018280546102d490611061565b80156103215780601f106102f657610100808354040283529160200191610321565b820191906000526020600020905b81548152906001019060200180831161030457829003601f168201915b5050505050908060030154908060040160009054906101000a900473ffffffffffffffffffffffffffffffffffffffff16905085565b60006001811115610391577f4e487b7100000000000000000000000000000000000000000000000000000000600052602160045260246000fd5b6000803373ffffffffffffffffffffffffffffffffffffffff1673ffffffffffffffffffffffffffffffffffffffff16815260200190815260200160002060009054906101000a900460ff166001811115610415577f4e487b7100000000000000000000000000000000000000000000000000000000600052602160045260246000fd5b14610455576040517f08c379a000000000000000000000000000000000000000000000000000000000815260040161044c90610d49565b60405180910390fd5b600082511161046357600080fd5b600081511161047157600080fd5b6001600081548092919061048490611093565b91905055506040518060a001604052806001548152602001838152602001828152602001600081526020013373ffffffffffffffffffffffffffffffffffffffff16815250600260006001548152602001908152602001600020600082015181600001556020820151816001019080519060200190610504929190610902565b506040820151816002019080519060200190610521929190610902565b506060820151816003015560808201518160040160006101000a81548173ffffffffffffffffffffffffffffffffffffffff021916908373ffffffffffffffffffffffffffffffffffffffff1602179055509050507f0e2769bd597cd7048e25b64a846e1254d4cb84b13c4aba4ad4a891baf7a399c660015483836000336040516105b0959493929190610d84565b60405180910390a15050565b60026020528060005260406000206000915090508060000154908060010180546105e590611061565b80601f016020809104026020016040519081016040528092919081815260200182805461061190611061565b801561065e5780601f106106335761010080835404028352916020019161065e565b820191906000526020600020905b81548152906001019060200180831161064157829003601f168201915b50505050509080600201805461067390611061565b80601f016020809104026020016040519081016040528092919081815260200182805461069f90611061565b80156106ec5780601f106106c1576101008083540402835291602001916106ec565b820191906000526020600020905b8154815290600101906020018083116106cf57829003601f168201915b5050505050908060030154908060040160009054906101000a900473ffffffffffffffffffffffffffffffffffffffff16905085565b600080826040516020016107369190610d02565b60405160208183030381529060405280519060200120905060405160200161075d90610d19565b6040516020818303038152906040528051906020012081141561078457600091505061078a565b60019150505b919050565b60006020528060005260406000206000915054906101000a900460ff1681565b60015481565b6000811180156107c757506001548111155b6107d057600080fd5b60006002600083815260200190815260200160002060040160009054906101000a900473ffffffffffffffffffffffffffffffffffffffff1690508073ffffffffffffffffffffffffffffffffffffffff166108fc349081150290604051600060405180830381858888f19350505050158015610851573d6000803e3d6000fd5b50346002600084815260200190815260200160002060030160008282546108789190610f44565b925050819055507f8cdd31fc6bd9c789638fdbd3ed5c788b27fa5d287f300e92f3c436ba03527db38260026000858152602001908152602001600020600101600260008681526020019081526020016000206002016002600087815260200190815260200160002060030154856040516108f6959493929190610e46565b60405180910390a15050565b82805461090e90611061565b90600052602060002090601f0160209004810192826109305760008555610977565b82601f1061094957805160ff1916838001178555610977565b82800160010185558215610977579182015b8281111561097657825182559160200191906001019061095b565b5b5090506109849190610988565b5090565b5b808211156109a1576000816000905550600101610989565b5090565b60006109b86109b384610ed8565b610ea7565b9050828152602081018484840111156109d057600080fd5b6109db84828561101f565b509392505050565b6000813590506109f2816111bd565b92915050565b600082601f830112610a0957600080fd5b8135610a198482602086016109a5565b91505092915050565b600081359050610a31816111d4565b92915050565b600060208284031215610a4957600080fd5b6000610a57848285016109e3565b91505092915050565b600060208284031215610a7257600080fd5b600082013567ffffffffffffffff811115610a8c57600080fd5b610a98848285016109f8565b91505092915050565b60008060408385031215610ab457600080fd5b600083013567ffffffffffffffff811115610ace57600080fd5b610ada858286016109f8565b925050602083013567ffffffffffffffff811115610af757600080fd5b610b03858286016109f8565b9150509250929050565b600060208284031215610b1f57600080fd5b6000610b2d84828501610a22565b91505092915050565b610b3f81610fac565b82525050565b610b4e81610ffb565b82525050565b610b5d8161100d565b82525050565b6000610b6e82610f1d565b610b788185610f28565b9350610b8881856020860161102e565b610b9181611198565b840191505092915050565b6000610ba782610f1d565b610bb18185610f39565b9350610bc181856020860161102e565b80840191505092915050565b60008154610bda81611061565b610be48186610f28565b94506001821660008114610bff5760018114610c1157610c44565b60ff1983168652602086019350610c44565b610c1a85610f08565b60005b83811015610c3c57815481890152600182019150602081019050610c1d565b808801955050505b50505092915050565b6000610c5a602583610f28565b91507f4f6e6c7920666163756c7479206d656d626572732063616e206372656174652060008301527f706f7374730000000000000000000000000000000000000000000000000000006020830152604082019050919050565b6000610cc0600783610f39565b91507f666163756c7479000000000000000000000000000000000000000000000000006000830152600782019050919050565b610cfc81610ff1565b82525050565b6000610d0e8284610b9c565b915081905092915050565b6000610d2482610cb3565b9150819050919050565b6000602082019050610d436000830184610b45565b92915050565b60006020820190508181036000830152610d6281610c4d565b9050919050565b6000602082019050610d7e6000830184610cf3565b92915050565b600060a082019050610d996000830188610cf3565b8181036020830152610dab8187610b63565b90508181036040830152610dbf8186610b63565b9050610dce6060830185610b54565b610ddb6080830184610b36565b9695505050505050565b600060a082019050610dfa6000830188610cf3565b8181036020830152610e0c8187610b63565b90508181036040830152610e208186610b63565b9050610e2f6060830185610cf3565b610e3c6080830184610b36565b9695505050505050565b600060a082019050610e5b6000830188610cf3565b8181036020830152610e6d8187610bcd565b90508181036040830152610e818186610bcd565b9050610e906060830185610cf3565b610e9d6080830184610b36565b9695505050505050565b6000604051905081810181811067ffffffffffffffff82111715610ece57610ecd611169565b5b8060405250919050565b600067ffffffffffffffff821115610ef357610ef2611169565b5b601f19601f8301169050602081019050919050565b60008190508160005260206000209050919050565b600081519050919050565b600082825260208201905092915050565b600081905092915050565b6000610f4f82610ff1565b9150610f5a83610ff1565b9250827fffffffffffffffffffffffffffffffffffffffffffffffffffffffffffffffff03821115610f8f57610f8e6110dc565b5b828201905092915050565b6000610fa582610fd1565b9050919050565b6000610fb782610fd1565b9050919050565b6000819050610fcc826111a9565b919050565b600073ffffffffffffffffffffffffffffffffffffffff82169050919050565b6000819050919050565b600061100682610fbe565b9050919050565b600061101882610ff1565b9050919050565b82818337600083830152505050565b60005b8381101561104c578082015181840152602081019050611031565b8381111561105b576000848401525b50505050565b6000600282049050600182168061107957607f821691505b6020821081141561108d5761108c61113a565b5b50919050565b600061109e82610ff1565b91507fffffffffffffffffffffffffffffffffffffffffffffffffffffffffffffffff8214156110d1576110d06110dc565b5b600182019050919050565b7f4e487b7100000000000000000000000000000000000000000000000000000000600052601160045260246000fd5b7f4e487b7100000000000000000000000000000000000000000000000000000000600052602160045260246000fd5b7f4e487b7100000000000000000000000000000000000000000000000000000000600052602260045260246000fd5b7f4e487b7100000000000000000000000000000000000000000000000000000000600052604160045260246000fd5b6000601f19601f8301169050919050565b600281106111ba576111b961110b565b5b50565b6111c681610f9a565b81146111d157600080fd5b50565b6111dd81610ff1565b81146111e857600080fd5b5056fea264697066735822122056fda278f24d71641d61f06c4a5d41f9a3630f64d971d885cb016fb707a0eb4264736f6c63430008000033",
  "immutableReferences": {},
  "source": "// SPDX-License-Identifier: MIT\r\npragma solidity ^0.8.0;\r\n\r\ncontract BShiksha {\r\n    // Enum to represent user roles\r\n    enum Role {\r\n        Faculty,\r\n        Viewer\r\n    }\r\n\r\n    // Mapping to store user addresses and their roles\r\n    mapping(address => Role) public userRoles;\r\n\r\n    function assignUserRoles(string memory _userType) public pure returns (Role) {\r\n        // Convert user type to lowercase for case-insensitive comparison\r\n        bytes32 userType = keccak256(abi.encodePacked(_userType));\r\n\r\n        // Assign roles based on user type\r\n        if (userType == keccak256(abi.encodePacked(\"faculty\"))) {\r\n            return Role.Faculty;\r\n        } else {\r\n            return Role.Viewer;\r\n        }\r\n    }\r\n\r\n    // Stores Posts\r\n    uint256 public PostCount = 0;\r\n    mapping(uint256 => Post) public Posts;\r\n\r\n    struct Post {\r\n        uint256 id;\r\n        string hash;\r\n        string description;\r\n        uint256 tipAmount;\r\n        address payable author;\r\n    }\r\n\r\n    // Array to store all posts\r\n    Post[] public posts;\r\n\r\n    // Modifier to restrict functions to faculty members only\r\n    modifier onlyFacultyMember() {\r\n        require(\r\n            userRoles[msg.sender] == Role.Faculty,\r\n            \"Only faculty members can create posts\"\r\n        );\r\n        _;\r\n    }\r\n\r\n    // creating an event for Post uploading\r\n    event PostCreated(\r\n        uint256 id,\r\n        string hash,\r\n        string description,\r\n        uint256 tipAmount,\r\n        address payable author\r\n    );\r\n\r\n    // creating an event for Post tipping\r\n    event PostTipped(\r\n        uint256 id,\r\n        string hash,\r\n        string description,\r\n        uint256 tipAmount,\r\n        address payable author\r\n    );\r\n\r\n    // create Posts\r\n    function uploadPost(\r\n        string memory _PostHash,\r\n        string memory _description\r\n    ) public onlyFacultyMember {\r\n        // Makes sure Post hash exists\r\n        require(bytes(_PostHash).length > 0);\r\n\r\n        // Makes sure Post description exists\r\n        require(bytes(_description).length > 0);\r\n\r\n        // Increment Post count\r\n        PostCount++;\r\n\r\n        // Add Post to contract\r\n        Posts[PostCount] = Post(\r\n            PostCount,\r\n            _PostHash,\r\n            _description,\r\n            0,\r\n            payable(msg.sender)\r\n        );\r\n\r\n        // Trigger the event\r\n        emit PostCreated(\r\n            PostCount,\r\n            _PostHash,\r\n            _description,\r\n            0,\r\n            payable(msg.sender)\r\n        );\r\n    }\r\n\r\n    // Tip Posts\r\n    function tipPostOwner(uint256 _id) public payable {\r\n        // Validating the Post\r\n        require(_id > 0 && _id <= PostCount);\r\n\r\n        // Fetching the author of Post/post\r\n        address payable _author = Posts[_id].author;\r\n\r\n        // Paying the author\r\n        _author.transfer(msg.value);\r\n\r\n        // Increment the tip amount\r\n        Posts[_id].tipAmount += msg.value;\r\n\r\n        // Trigger event when a Post is tipped\r\n        emit PostTipped(\r\n            _id,\r\n            Posts[_id].hash,\r\n            Posts[_id].description,\r\n            Posts[_id].tipAmount,\r\n            _author\r\n        );\r\n    }\r\n}\r\n",
  "sourcePath": "D:\\Btech_CSE\\Final_Year_Project\\Final Project\\Development\\bshiksha\\contracts\\NewPost.sol",
  "compiler": {
    "name": "solc",
    "version": "0.8.0+commit.c7dfd78e.Emscripten.clang"
  },
  "schemaVersion": "3.4.16",
  "updatedAt": "2024-04-26T08:17:54.219Z",
  "networkType": "ethereum",
  "devdoc": {
    "kind": "dev",
    "methods": {},
    "version": 1
  },
  "userdoc": {
    "kind": "user",
    "methods": {},
    "version": 1
  }
}