{
  "contractName": "BShiksha",
  "abi": [
    {
      "anonymous": false,
      "inputs": [
        {
          "indexed": false,
          "internalType": "uint256",
          "name": "id",
          "type": "uint256"
        },
        {
          "indexed": false,
          "internalType": "string",
          "name": "title",
          "type": "string"
        },
        {
          "indexed": false,
          "internalType": "string",
          "name": "hash",
          "type": "string"
        },
        {
          "indexed": false,
          "internalType": "string",
          "name": "description",
          "type": "string"
        },
        {
          "indexed": false,
          "internalType": "uint256",
          "name": "tipAmount",
          "type": "uint256"
        },
        {
          "indexed": false,
          "internalType": "uint256",
          "name": "viewCost",
          "type": "uint256"
        },
        {
          "indexed": false,
          "internalType": "address payable",
          "name": "author",
          "type": "address"
        }
      ],
      "name": "PostCreated",
      "type": "event"
    },
    {
      "anonymous": false,
      "inputs": [
        {
          "indexed": false,
          "internalType": "uint256",
          "name": "id",
          "type": "uint256"
        },
        {
          "indexed": false,
          "internalType": "string",
          "name": "title",
          "type": "string"
        },
        {
          "indexed": false,
          "internalType": "string",
          "name": "hash",
          "type": "string"
        },
        {
          "indexed": false,
          "internalType": "string",
          "name": "description",
          "type": "string"
        },
        {
          "indexed": false,
          "internalType": "uint256",
          "name": "tipAmount",
          "type": "uint256"
        },
        {
          "indexed": false,
          "internalType": "uint256",
          "name": "viewCost",
          "type": "uint256"
        },
        {
          "indexed": false,
          "internalType": "address payable",
          "name": "author",
          "type": "address"
        }
      ],
      "name": "PostTipped",
      "type": "event"
    },
    {
      "anonymous": false,
      "inputs": [
        {
          "indexed": false,
          "internalType": "uint256",
          "name": "id",
          "type": "uint256"
        },
        {
          "indexed": false,
          "internalType": "string",
          "name": "title",
          "type": "string"
        },
        {
          "indexed": false,
          "internalType": "string",
          "name": "hash",
          "type": "string"
        },
        {
          "indexed": false,
          "internalType": "string",
          "name": "description",
          "type": "string"
        },
        {
          "indexed": false,
          "internalType": "uint256",
          "name": "tipAmount",
          "type": "uint256"
        },
        {
          "indexed": false,
          "internalType": "uint256",
          "name": "viewCost",
          "type": "uint256"
        },
        {
          "indexed": false,
          "internalType": "address payable",
          "name": "author",
          "type": "address"
        }
      ],
      "name": "PostViewed",
      "type": "event"
    },
    {
      "anonymous": false,
      "inputs": [
        {
          "indexed": false,
          "internalType": "string",
          "name": "userName",
          "type": "string"
        },
        {
          "indexed": false,
          "internalType": "string",
          "name": "userEmail",
          "type": "string"
        },
        {
          "indexed": false,
          "internalType": "bool",
          "name": "isProfessor",
          "type": "bool"
        },
        {
          "indexed": false,
          "internalType": "string",
          "name": "universityName",
          "type": "string"
        },
        {
          "indexed": false,
          "internalType": "address payable",
          "name": "walletId",
          "type": "address"
        }
      ],
      "name": "UserSignedUp",
      "type": "event"
    },
    {
      "inputs": [],
      "name": "PostCount",
      "outputs": [
        {
          "internalType": "uint256",
          "name": "",
          "type": "uint256"
        }
      ],
      "stateMutability": "view",
      "type": "function",
      "constant": true
    },
    {
      "inputs": [
        {
          "internalType": "uint256",
          "name": "",
          "type": "uint256"
        }
      ],
      "name": "Posts",
      "outputs": [
        {
          "internalType": "uint256",
          "name": "id",
          "type": "uint256"
        },
        {
          "internalType": "string",
          "name": "title",
          "type": "string"
        },
        {
          "internalType": "string",
          "name": "hash",
          "type": "string"
        },
        {
          "internalType": "string",
          "name": "description",
          "type": "string"
        },
        {
          "internalType": "uint256",
          "name": "tipAmount",
          "type": "uint256"
        },
        {
          "internalType": "uint256",
          "name": "viewCost",
          "type": "uint256"
        },
        {
          "internalType": "address payable",
          "name": "author",
          "type": "address"
        }
      ],
      "stateMutability": "view",
      "type": "function",
      "constant": true
    },
    {
      "inputs": [
        {
          "internalType": "address",
          "name": "",
          "type": "address"
        }
      ],
      "name": "users",
      "outputs": [
        {
          "internalType": "string",
          "name": "userName",
          "type": "string"
        },
        {
          "internalType": "string",
          "name": "userEmail",
          "type": "string"
        },
        {
          "internalType": "bool",
          "name": "isProfessor",
          "type": "bool"
        },
        {
          "internalType": "string",
          "name": "universityName",
          "type": "string"
        },
        {
          "internalType": "address payable",
          "name": "walletId",
          "type": "address"
        }
      ],
      "stateMutability": "view",
      "type": "function",
      "constant": true
    },
    {
      "inputs": [
        {
          "internalType": "string",
          "name": "_postTitle",
          "type": "string"
        },
        {
          "internalType": "string",
          "name": "_postHash",
          "type": "string"
        },
        {
          "internalType": "string",
          "name": "_postDescription",
          "type": "string"
        },
        {
          "internalType": "uint256",
          "name": "_viewCost",
          "type": "uint256"
        }
      ],
      "name": "uploadPost",
      "outputs": [],
      "stateMutability": "payable",
      "type": "function",
      "payable": true
    },
    {
      "inputs": [
        {
          "internalType": "uint256",
          "name": "_id",
          "type": "uint256"
        }
      ],
      "name": "tipPostOwner",
      "outputs": [],
      "stateMutability": "payable",
      "type": "function",
      "payable": true
    },
    {
      "inputs": [
        {
          "internalType": "uint256",
          "name": "postId",
          "type": "uint256"
        }
      ],
      "name": "getPost",
      "outputs": [
        {
          "internalType": "uint256",
          "name": "id",
          "type": "uint256"
        },
        {
          "internalType": "string",
          "name": "title",
          "type": "string"
        },
        {
          "internalType": "string",
          "name": "hash",
          "type": "string"
        },
        {
          "internalType": "string",
          "name": "description",
          "type": "string"
        },
        {
          "internalType": "uint256",
          "name": "tipAmount",
          "type": "uint256"
        },
        {
          "internalType": "uint256",
          "name": "viewCost",
          "type": "uint256"
        },
        {
          "internalType": "address payable",
          "name": "author",
          "type": "address"
        }
      ],
      "stateMutability": "view",
      "type": "function",
      "constant": true
    },
    {
      "inputs": [
        {
          "internalType": "uint256",
          "name": "_postId",
          "type": "uint256"
        }
      ],
      "name": "viewPost",
      "outputs": [],
      "stateMutability": "payable",
      "type": "function",
      "payable": true
    },
    {
      "inputs": [
        {
          "internalType": "address",
          "name": "_walletId",
          "type": "address"
        }
      ],
      "name": "getUser",
      "outputs": [
        {
          "internalType": "string",
          "name": "userName",
          "type": "string"
        },
        {
          "internalType": "string",
          "name": "userEmail",
          "type": "string"
        },
        {
          "internalType": "bool",
          "name": "isProfessor",
          "type": "bool"
        },
        {
          "internalType": "string",
          "name": "universityName",
          "type": "string"
        },
        {
          "internalType": "address payable",
          "name": "walletId",
          "type": "address"
        }
      ],
      "stateMutability": "view",
      "type": "function",
      "constant": true
    },
    {
      "inputs": [
        {
          "internalType": "string",
          "name": "_userName",
          "type": "string"
        },
        {
          "internalType": "string",
          "name": "_userEmail",
          "type": "string"
        },
        {
          "internalType": "bool",
          "name": "_isProfessor",
          "type": "bool"
        },
        {
          "internalType": "string",
          "name": "_universityName",
          "type": "string"
        }
      ],
      "name": "signUpUser",
      "outputs": [],
      "stateMutability": "nonpayable",
      "type": "function"
    }
  ],
  "bytecode": "0x6080604052600060015534801561001557600080fd5b50612410806100256000396000f3fe6080604052600436106100865760003560e01c8063a2d1eceb11610059578063a2d1eceb1461016e578063a7b0c26a14610199578063a87430ba146101c2578063d6313c0614610203578063fb9f30b81461021f57610086565b806303c0f7d21461008b57806340731c24146100a75780634fafef1a146100ea5780636f77926b1461012d575b600080fd5b6100a560048036038101906100a091906119f9565b61023b565b005b3480156100b357600080fd5b506100ce60048036038101906100c991906119f9565b6105c7565b6040516100e19796959493929190611fd3565b60405180910390f35b3480156100f657600080fd5b50610111600480360381019061010c91906119f9565b61085b565b6040516101249796959493929190611fd3565b60405180910390f35b34801561013957600080fd5b50610154600480360381019061014f919061187a565b610a55565b604051610165959493929190611dac565b60405180910390f35b34801561017a57600080fd5b50610183610dcf565b6040516101909190611f34565b60405180910390f35b3480156101a557600080fd5b506101c060048036038101906101bb91906118a3565b610dd5565b005b3480156101ce57600080fd5b506101e960048036038101906101e4919061187a565b611028565b6040516101fa959493929190611dac565b60405180910390f35b61021d600480360381019061021891906119f9565b611223565b005b6102396004803603810190610234919061194e565b6113d5565b005b60008111801561024d57506001548111155b61028c576040517f08c379a000000000000000000000000000000000000000000000000000000000815260040161028390611e14565b60405180910390fd5b6000600260008381526020019081526020016000206040518060e0016040529081600082015481526020016001820180546102c69061227c565b80601f01602080910402602001604051908101604052809291908181526020018280546102f29061227c565b801561033f5780601f106103145761010080835404028352916020019161033f565b820191906000526020600020905b81548152906001019060200180831161032257829003601f168201915b505050505081526020016002820180546103589061227c565b80601f01602080910402602001604051908101604052809291908181526020018280546103849061227c565b80156103d15780601f106103a6576101008083540402835291602001916103d1565b820191906000526020600020905b8154815290600101906020018083116103b457829003601f168201915b505050505081526020016003820180546103ea9061227c565b80601f01602080910402602001604051908101604052809291908181526020018280546104169061227c565b80156104635780601f1061043857610100808354040283529160200191610463565b820191906000526020600020905b81548152906001019060200180831161044657829003601f168201915b5050505050815260200160048201548152602001600582015481526020016006820160009054906101000a900473ffffffffffffffffffffffffffffffffffffffff1673ffffffffffffffffffffffffffffffffffffffff1673ffffffffffffffffffffffffffffffffffffffff168152505090508060c0015173ffffffffffffffffffffffffffffffffffffffff163373ffffffffffffffffffffffffffffffffffffffff16141561051657506105c4565b8060a0015134101561055d576040517f08c379a000000000000000000000000000000000000000000000000000000000815260040161055490611e54565b60405180910390fd5b61056b8160c001513461167f565b7f034dc2d2ca5bdf717536388a6ad72597d7a27c4a2283649f0c188c79a0957d91828260200151836040015184606001518560800151348760c001516040516105ba9796959493929190611fd3565b60405180910390a1505b50565b60006060806060600080600080600260008a81526020019081526020016000206040518060e00160405290816000820154815260200160018201805461060c9061227c565b80601f01602080910402602001604051908101604052809291908181526020018280546106389061227c565b80156106855780601f1061065a57610100808354040283529160200191610685565b820191906000526020600020905b81548152906001019060200180831161066857829003601f168201915b5050505050815260200160028201805461069e9061227c565b80601f01602080910402602001604051908101604052809291908181526020018280546106ca9061227c565b80156107175780601f106106ec57610100808354040283529160200191610717565b820191906000526020600020905b8154815290600101906020018083116106fa57829003601f168201915b505050505081526020016003820180546107309061227c565b80601f016020809104026020016040519081016040528092919081815260200182805461075c9061227c565b80156107a95780601f1061077e576101008083540402835291602001916107a9565b820191906000526020600020905b81548152906001019060200180831161078c57829003601f168201915b5050505050815260200160048201548152602001600582015481526020016006820160009054906101000a900473ffffffffffffffffffffffffffffffffffffffff1673ffffffffffffffffffffffffffffffffffffffff1673ffffffffffffffffffffffffffffffffffffffff16815250509050806000015181602001518260400151836060015184608001518560a001518660c00151975097509750975097509750975050919395979092949650565b60026020528060005260406000206000915090508060000154908060010180546108849061227c565b80601f01602080910402602001604051908101604052809291908181526020018280546108b09061227c565b80156108fd5780601f106108d2576101008083540402835291602001916108fd565b820191906000526020600020905b8154815290600101906020018083116108e057829003601f168201915b5050505050908060020180546109129061227c565b80601f016020809104026020016040519081016040528092919081815260200182805461093e9061227c565b801561098b5780601f106109605761010080835404028352916020019161098b565b820191906000526020600020905b81548152906001019060200180831161096e57829003601f168201915b5050505050908060030180546109a09061227c565b80601f01602080910402602001604051908101604052809291908181526020018280546109cc9061227c565b8015610a195780601f106109ee57610100808354040283529160200191610a19565b820191906000526020600020905b8154815290600101906020018083116109fc57829003601f168201915b5050505050908060040154908060050154908060060160009054906101000a900473ffffffffffffffffffffffffffffffffffffffff16905087565b6060806000606060008073ffffffffffffffffffffffffffffffffffffffff166000808873ffffffffffffffffffffffffffffffffffffffff1673ffffffffffffffffffffffffffffffffffffffff16815260200190815260200160002060040160009054906101000a900473ffffffffffffffffffffffffffffffffffffffff1673ffffffffffffffffffffffffffffffffffffffff161415610b2e576040517f08c379a0000000000000000000000000000000000000000000000000000000008152600401610b2590611f14565b60405180910390fd5b60008060008873ffffffffffffffffffffffffffffffffffffffff1673ffffffffffffffffffffffffffffffffffffffff1681526020019081526020016000206040518060a0016040529081600082018054610b899061227c565b80601f0160208091040260200160405190810160405280929190818152602001828054610bb59061227c565b8015610c025780601f10610bd757610100808354040283529160200191610c02565b820191906000526020600020905b815481529060010190602001808311610be557829003601f168201915b50505050508152602001600182018054610c1b9061227c565b80601f0160208091040260200160405190810160405280929190818152602001828054610c479061227c565b8015610c945780601f10610c6957610100808354040283529160200191610c94565b820191906000526020600020905b815481529060010190602001808311610c7757829003601f168201915b505050505081526020016002820160009054906101000a900460ff16151515158152602001600382018054610cc89061227c565b80601f0160208091040260200160405190810160405280929190818152602001828054610cf49061227c565b8015610d415780601f10610d1657610100808354040283529160200191610d41565b820191906000526020600020905b815481529060010190602001808311610d2457829003601f168201915b505050505081526020016004820160009054906101000a900473ffffffffffffffffffffffffffffffffffffffff1673ffffffffffffffffffffffffffffffffffffffff1673ffffffffffffffffffffffffffffffffffffffff1681525050905080600001518160200151826040015183606001518460800151955095509550955095505091939590929450565b60015481565b600073ffffffffffffffffffffffffffffffffffffffff166000803373ffffffffffffffffffffffffffffffffffffffff1673ffffffffffffffffffffffffffffffffffffffff16815260200190815260200160002060040160009054906101000a900473ffffffffffffffffffffffffffffffffffffffff1673ffffffffffffffffffffffffffffffffffffffff1614610ea5576040517f08c379a0000000000000000000000000000000000000000000000000000000008152600401610e9c90611eb4565b60405180910390fd5b6040518060a0016040528085815260200184815260200183151581526020018281526020013373ffffffffffffffffffffffffffffffffffffffff168152506000803373ffffffffffffffffffffffffffffffffffffffff1673ffffffffffffffffffffffffffffffffffffffff1681526020019081526020016000206000820151816000019080519060200190610f3e929190611730565b506020820151816001019080519060200190610f5b929190611730565b5060408201518160020160006101000a81548160ff0219169083151502179055506060820151816003019080519060200190610f98929190611730565b5060808201518160040160006101000a81548173ffffffffffffffffffffffffffffffffffffffff021916908373ffffffffffffffffffffffffffffffffffffffff1602179055509050507fdd3c553ab9875abd1ac8f977d700e4081431605a11587a93ceebd4da49e3ca7d848484843360405161101a959493929190611dac565b60405180910390a150505050565b600060205280600052604060002060009150905080600001805461104b9061227c565b80601f01602080910402602001604051908101604052809291908181526020018280546110779061227c565b80156110c45780601f10611099576101008083540402835291602001916110c4565b820191906000526020600020905b8154815290600101906020018083116110a757829003601f168201915b5050505050908060010180546110d99061227c565b80601f01602080910402602001604051908101604052809291908181526020018280546111059061227c565b80156111525780601f1061112757610100808354040283529160200191611152565b820191906000526020600020905b81548152906001019060200180831161113557829003601f168201915b5050505050908060020160009054906101000a900460ff169080600301805461117a9061227c565b80601f01602080910402602001604051908101604052809291908181526020018280546111a69061227c565b80156111f35780601f106111c8576101008083540402835291602001916111f3565b820191906000526020600020905b8154815290600101906020018083116111d657829003601f168201915b5050505050908060040160009054906101000a900473ffffffffffffffffffffffffffffffffffffffff16905085565b60008111801561123557506001548111155b611274576040517f08c379a000000000000000000000000000000000000000000000000000000000815260040161126b90611e14565b60405180910390fd5b60006002600083815260200190815260200160002060060160009054906101000a900473ffffffffffffffffffffffffffffffffffffffff1690508073ffffffffffffffffffffffffffffffffffffffff166108fc349081150290604051600060405180830381858888f193505050501580156112f5573d6000803e3d6000fd5b503460026000848152602001908152602001600020600401600082825461131c9190612178565b925050819055507f4cc6fc4d0f7a1c30341dd42d0b86597c13a3f0df5e035b8b2ad6fc1cb689272f8260026000858152602001908152602001600020600101600260008681526020019081526020016000206002016002600087815260200190815260200160002060030160026000888152602001908152602001600020600401546002600089815260200190815260200160002060050154876040516113c99796959493929190612057565b60405180910390a15050565b6000835111611419576040517f08c379a000000000000000000000000000000000000000000000000000000000815260040161141090611e74565b60405180910390fd5b600082511161145d576040517f08c379a000000000000000000000000000000000000000000000000000000000815260040161145490611ed4565b60405180910390fd5b6000811015801561147757506802b5e3af16b18800008111155b6114b6576040517f08c379a00000000000000000000000000000000000000000000000000000000081526004016114ad90611e94565b60405180910390fd5b600034116114f9576040517f08c379a00000000000000000000000000000000000000000000000000000000081526004016114f090611ef4565b60405180910390fd5b6001600081548092919061150c906122ae565b9190505550600060015490506040518060e00160405280828152602001868152602001858152602001848152602001600081526020018381526020013373ffffffffffffffffffffffffffffffffffffffff168152506002600083815260200190815260200160002060008201518160000155602082015181600101908051906020019061159b929190611730565b5060408201518160020190805190602001906115b8929190611730565b5060608201518160030190805190602001906115d5929190611730565b506080820151816004015560a0820151816005015560c08201518160060160006101000a81548173ffffffffffffffffffffffffffffffffffffffff021916908373ffffffffffffffffffffffffffffffffffffffff1602179055509050507f4f42357ee7b75fb57983e74a99615ff960e8965d9263ff34af5e6bbe8051148281868686600087336040516116709796959493929190611f4f565b60405180910390a15050505050565b60008273ffffffffffffffffffffffffffffffffffffffff16826040516116a590611d97565b60006040518083038185875af1925050503d80600081146116e2576040519150601f19603f3d011682016040523d82523d6000602084013e6116e7565b606091505b505090508061172b576040517f08c379a000000000000000000000000000000000000000000000000000000000815260040161172290611e34565b60405180910390fd5b505050565b82805461173c9061227c565b90600052602060002090601f01602090048101928261175e57600085556117a5565b82601f1061177757805160ff19168380011785556117a5565b828001600101855582156117a5579182015b828111156117a4578251825591602001919060010190611789565b5b5090506117b291906117b6565b5090565b5b808211156117cf5760008160009055506001016117b7565b5090565b60006117e66117e18461210c565b6120db565b9050828152602081018484840111156117fe57600080fd5b61180984828561223a565b509392505050565b60008135905061182081612395565b92915050565b600081359050611835816123ac565b92915050565b600082601f83011261184c57600080fd5b813561185c8482602086016117d3565b91505092915050565b600081359050611874816123c3565b92915050565b60006020828403121561188c57600080fd5b600061189a84828501611811565b91505092915050565b600080600080608085870312156118b957600080fd5b600085013567ffffffffffffffff8111156118d357600080fd5b6118df8782880161183b565b945050602085013567ffffffffffffffff8111156118fc57600080fd5b6119088782880161183b565b935050604061191987828801611826565b925050606085013567ffffffffffffffff81111561193657600080fd5b6119428782880161183b565b91505092959194509250565b6000806000806080858703121561196457600080fd5b600085013567ffffffffffffffff81111561197e57600080fd5b61198a8782880161183b565b945050602085013567ffffffffffffffff8111156119a757600080fd5b6119b38782880161183b565b935050604085013567ffffffffffffffff8111156119d057600080fd5b6119dc8782880161183b565b92505060606119ed87828801611865565b91505092959194509250565b600060208284031215611a0b57600080fd5b6000611a1984828501611865565b91505092915050565b611a2b816121e0565b82525050565b611a3a816121f2565b82525050565b611a4981612228565b82525050565b6000611a5a82612151565b611a648185612167565b9350611a74818560208601612249565b611a7d81612384565b840191505092915050565b60008154611a958161227c565b611a9f8186612167565b94506001821660008114611aba5760018114611acc57611aff565b60ff1983168652602086019350611aff565b611ad58561213c565b60005b83811015611af757815481890152600182019150602081019050611ad8565b808801955050505b50505092915050565b6000611b15600f83612167565b91507f496e76616c696420706f737420494400000000000000000000000000000000006000830152602082019050919050565b6000611b55601483612167565b91507f4661696c656420746f2073656e642045746865720000000000000000000000006000830152602082019050919050565b6000611b95602583612167565b91507f496e73756666696369656e74207061796d656e7420746f20766965772074686560008301527f20706f73740000000000000000000000000000000000000000000000000000006020830152604082019050919050565b6000611bfb601583612167565b91507f506f7374206861736820697320726571756972656400000000000000000000006000830152602082019050919050565b6000611c3b601283612167565b91507f5365742056616c756520302d35302045544800000000000000000000000000006000830152602082019050919050565b6000611c7b601383612167565b91507f5573657220616c726561647920657869737473000000000000000000000000006000830152602082019050919050565b6000611cbb601c83612167565b91507f506f7374206465736372697074696f6e206973207265717569726564000000006000830152602082019050919050565b6000611cfb602083612167565b91507f506f7374206372656174696f6e2072657175697265732061207061796d656e746000830152602082019050919050565b6000611d3b60008361215c565b9150600082019050919050565b6000611d55601583612167565b91507f5573657220646f6573206e6f74206578697374212100000000000000000000006000830152602082019050919050565b611d918161221e565b82525050565b6000611da282611d2e565b9150819050919050565b600060a0820190508181036000830152611dc68188611a4f565b90508181036020830152611dda8187611a4f565b9050611de96040830186611a31565b8181036060830152611dfb8185611a4f565b9050611e0a6080830184611a22565b9695505050505050565b60006020820190508181036000830152611e2d81611b08565b9050919050565b60006020820190508181036000830152611e4d81611b48565b9050919050565b60006020820190508181036000830152611e6d81611b88565b9050919050565b60006020820190508181036000830152611e8d81611bee565b9050919050565b60006020820190508181036000830152611ead81611c2e565b9050919050565b60006020820190508181036000830152611ecd81611c6e565b9050919050565b60006020820190508181036000830152611eed81611cae565b9050919050565b60006020820190508181036000830152611f0d81611cee565b9050919050565b60006020820190508181036000830152611f2d81611d48565b9050919050565b6000602082019050611f496000830184611d88565b92915050565b600060e082019050611f64600083018a611d88565b8181036020830152611f768189611a4f565b90508181036040830152611f8a8188611a4f565b90508181036060830152611f9e8187611a4f565b9050611fad6080830186611a40565b611fba60a0830185611d88565b611fc760c0830184611a22565b98975050505050505050565b600060e082019050611fe8600083018a611d88565b8181036020830152611ffa8189611a4f565b9050818103604083015261200e8188611a4f565b905081810360608301526120228187611a4f565b90506120316080830186611d88565b61203e60a0830185611d88565b61204b60c0830184611a22565b98975050505050505050565b600060e08201905061206c600083018a611d88565b818103602083015261207e8189611a88565b905081810360408301526120928188611a88565b905081810360608301526120a68187611a88565b90506120b56080830186611d88565b6120c260a0830185611d88565b6120cf60c0830184611a22565b98975050505050505050565b6000604051905081810181811067ffffffffffffffff8211171561210257612101612355565b5b8060405250919050565b600067ffffffffffffffff82111561212757612126612355565b5b601f19601f8301169050602081019050919050565b60008190508160005260206000209050919050565b600081519050919050565b600081905092915050565b600082825260208201905092915050565b60006121838261221e565b915061218e8361221e565b9250827fffffffffffffffffffffffffffffffffffffffffffffffffffffffffffffffff038211156121c3576121c26122f7565b5b828201905092915050565b60006121d9826121fe565b9050919050565b60006121eb826121fe565b9050919050565b60008115159050919050565b600073ffffffffffffffffffffffffffffffffffffffff82169050919050565b6000819050919050565b60006122338261221e565b9050919050565b82818337600083830152505050565b60005b8381101561226757808201518184015260208101905061224c565b83811115612276576000848401525b50505050565b6000600282049050600182168061229457607f821691505b602082108114156122a8576122a7612326565b5b50919050565b60006122b98261221e565b91507fffffffffffffffffffffffffffffffffffffffffffffffffffffffffffffffff8214156122ec576122eb6122f7565b5b600182019050919050565b7f4e487b7100000000000000000000000000000000000000000000000000000000600052601160045260246000fd5b7f4e487b7100000000000000000000000000000000000000000000000000000000600052602260045260246000fd5b7f4e487b7100000000000000000000000000000000000000000000000000000000600052604160045260246000fd5b6000601f19601f8301169050919050565b61239e816121ce565b81146123a957600080fd5b50565b6123b5816121f2565b81146123c057600080fd5b50565b6123cc8161221e565b81146123d757600080fd5b5056fea26469706673582212202400b9471601aa430d141cc2a204909f9d7f0e601410556a72778e77ba08813864736f6c63430008000033",
  "immutableReferences": {},
  "source": "// SPDX-License-Identifier: MIT\r\npragma solidity ^0.8.0;\r\n\r\ncontract BShiksha {\r\n    mapping(address => User) public users;\r\n\r\n    struct User {\r\n        string userName;\r\n        string userEmail;\r\n        bool isProfessor;\r\n        string universityName;\r\n        address payable walletId;\r\n    }\r\n\r\n    uint256 public PostCount = 0;\r\n    mapping(uint256 => Post) public Posts;\r\n\r\n    struct Post {\r\n        uint256 id;\r\n        string title;\r\n        string hash;\r\n        string description;\r\n        uint256 tipAmount;\r\n        uint256 viewCost;\r\n        address payable author;\r\n    }\r\n\r\n    event UserSignedUp(\r\n        string userName,\r\n        string userEmail,\r\n        bool isProfessor,\r\n        string universityName,\r\n        address payable walletId\r\n    );\r\n\r\n    event PostCreated(\r\n        uint256 id,\r\n        string title,\r\n        string hash,\r\n        string description,\r\n        uint256 tipAmount,\r\n        uint256 viewCost,\r\n        address payable author\r\n    );\r\n\r\n    event PostTipped(\r\n        uint256 id,\r\n        string title,\r\n        string hash,\r\n        string description,\r\n        uint256 tipAmount,\r\n        uint256 viewCost,\r\n        address payable author\r\n    );\r\n\r\n    event PostViewed(\r\n        uint256 id,\r\n        string title,\r\n        string hash,\r\n        string description,\r\n        uint256 tipAmount,\r\n        uint256 viewCost,\r\n        address payable author\r\n    );\r\n\r\n    function uploadPost (\r\n        string memory _postTitle,\r\n        string memory _postHash,\r\n        string memory _postDescription,\r\n        uint256 _viewCost\r\n    ) public payable {\r\n        require(bytes(_postHash).length > 0, \"Post hash is required\");\r\n        require(bytes(_postDescription).length > 0, \"Post description is required\");\r\n        require(_viewCost >= 0 && _viewCost <= 50 * 1e18, \"Set Value 0-50 ETH\");\r\n        require(msg.value > 0, \"Post creation requires a payment\");\r\n\r\n        // Increment PostCount only after all validations\r\n        PostCount++;\r\n        uint256 postId = PostCount;\r\n\r\n        Posts[postId] = Post(\r\n            postId,\r\n            _postTitle,\r\n            _postHash,\r\n            _postDescription,\r\n            0,\r\n            _viewCost,\r\n            payable(msg.sender)\r\n        );\r\n\r\n        emit PostCreated(\r\n            postId,\r\n            _postTitle,\r\n            _postHash,\r\n            _postDescription,\r\n            0,\r\n            _viewCost,\r\n            payable(msg.sender)\r\n        );\r\n    }\r\n\r\n    function tipPostOwner(uint256 _id) public payable {\r\n        require(_id > 0 && _id <= PostCount, \"Invalid post ID\");\r\n        address payable _author = Posts[_id].author;\r\n        _author.transfer(msg.value);\r\n        Posts[_id].tipAmount += msg.value;\r\n        emit PostTipped(\r\n            _id,\r\n            Posts[_id].title,\r\n            Posts[_id].hash,\r\n            Posts[_id].description,\r\n            Posts[_id].tipAmount,\r\n            Posts[_id].viewCost,\r\n            _author\r\n        );\r\n    }\r\n\r\n    function getPost(uint256 postId) public view returns (uint256 id, string memory title, string memory hash, string memory description, uint256 tipAmount, uint256 viewCost, address payable author) {\r\n        Post memory post = Posts[postId];\r\n        return (post.id, post.title, post.hash, post.description, post.tipAmount, post.viewCost, post.author);\r\n    }\r\n\r\n    function viewPost(uint256 _postId) public payable {\r\n        require(_postId > 0 && _postId <= PostCount, \"Invalid post ID\");\r\n        Post memory post = Posts[_postId];\r\n        if(msg.sender == post.author) {\r\n            return;\r\n        }\r\n        require(msg.value >= post.viewCost, \"Insufficient payment to view the post\");\r\n        sendViaCall(payable(address(post.author)), msg.value);\r\n        emit PostViewed(\r\n            _postId,\r\n            post.title,\r\n            post.hash,\r\n            post.description,\r\n            post.tipAmount,\r\n            msg.value, \r\n            post.author\r\n        );\r\n    }\r\n\r\n    function sendViaCall(address payable _to, uint256 _amount) internal {\r\n        (bool sent, ) = _to.call{value: _amount}(\"\");\r\n        require(sent, \"Failed to send Ether\");\r\n    }\r\n\r\n    function getUser(\r\n        address _walletId\r\n    )\r\n        public\r\n        view\r\n        returns (\r\n            string memory userName,\r\n            string memory userEmail,\r\n            bool isProfessor,\r\n            string memory universityName,\r\n            address payable walletId\r\n        )\r\n    {\r\n        require(\r\n            users[_walletId].walletId != address(0),\r\n            \"User does not exist!!\"\r\n        );\r\n        User memory user = users[_walletId];\r\n        return (\r\n            user.userName,\r\n            user.userEmail,\r\n            user.isProfessor,\r\n            user.universityName,\r\n            user.walletId\r\n        );\r\n    }\r\n\r\n    function signUpUser(\r\n        string memory _userName,\r\n        string memory _userEmail,\r\n        bool _isProfessor,\r\n        string memory _universityName\r\n    ) public {\r\n        require(\r\n            users[msg.sender].walletId == address(0),\r\n            \"User already exists\"\r\n        );\r\n\r\n        users[msg.sender] = User({\r\n            userName: _userName,\r\n            userEmail: _userEmail,\r\n            isProfessor: _isProfessor,\r\n            universityName: _universityName,\r\n            walletId: payable(msg.sender)\r\n        });\r\n\r\n        emit UserSignedUp(\r\n        _userName,\r\n        _userEmail,\r\n        _isProfessor,\r\n        _universityName,\r\n        payable(msg.sender)\r\n    );\r\n    }\r\n}\r\n",
  "sourcePath": "D:\\Btech_CSE\\Final_Year_Project\\Final Project\\bshiksha-shonky\\contracts\\NewPost.sol",
  "compiler": {
    "name": "solc",
    "version": "0.8.0+commit.c7dfd78e.Emscripten.clang"
  },
  "schemaVersion": "3.4.16",
  "updatedAt": "2024-05-27T12:21:40.666Z",
  "networkType": "ethereum",
  "devdoc": {
    "kind": "dev",
    "methods": {},
    "version": 1
  },
  "userdoc": {
    "kind": "user",
    "methods": {},
    "version": 1
  }
}