{
  "contractName": "BShiksha",
  "abi": [
    {
      "anonymous": false,
      "inputs": [
        {
          "indexed": false,
          "internalType": "uint256",
          "name": "id",
          "type": "uint256"
        },
        {
          "indexed": false,
          "internalType": "string",
          "name": "hash",
          "type": "string"
        },
        {
          "indexed": false,
          "internalType": "string",
          "name": "description",
          "type": "string"
        },
        {
          "indexed": false,
          "internalType": "uint256",
          "name": "tipAmount",
          "type": "uint256"
        },
        {
          "indexed": false,
          "internalType": "uint256",
          "name": "viewCost",
          "type": "uint256"
        },
        {
          "indexed": false,
          "internalType": "address payable",
          "name": "author",
          "type": "address"
        }
      ],
      "name": "PostCreated",
      "type": "event"
    },
    {
      "anonymous": false,
      "inputs": [
        {
          "indexed": false,
          "internalType": "uint256",
          "name": "id",
          "type": "uint256"
        },
        {
          "indexed": false,
          "internalType": "string",
          "name": "hash",
          "type": "string"
        },
        {
          "indexed": false,
          "internalType": "string",
          "name": "description",
          "type": "string"
        },
        {
          "indexed": false,
          "internalType": "uint256",
          "name": "tipAmount",
          "type": "uint256"
        },
        {
          "indexed": false,
          "internalType": "uint256",
          "name": "viewCost",
          "type": "uint256"
        },
        {
          "indexed": false,
          "internalType": "address payable",
          "name": "author",
          "type": "address"
        }
      ],
      "name": "PostTipped",
      "type": "event"
    },
    {
      "anonymous": false,
      "inputs": [
        {
          "indexed": false,
          "internalType": "uint256",
          "name": "id",
          "type": "uint256"
        },
        {
          "indexed": false,
          "internalType": "string",
          "name": "hash",
          "type": "string"
        },
        {
          "indexed": false,
          "internalType": "string",
          "name": "description",
          "type": "string"
        },
        {
          "indexed": false,
          "internalType": "uint256",
          "name": "tipAmount",
          "type": "uint256"
        },
        {
          "indexed": false,
          "internalType": "uint256",
          "name": "viewCost",
          "type": "uint256"
        },
        {
          "indexed": false,
          "internalType": "address payable",
          "name": "author",
          "type": "address"
        }
      ],
      "name": "PostViewed",
      "type": "event"
    },
    {
      "inputs": [],
      "name": "PostCount",
      "outputs": [
        {
          "internalType": "uint256",
          "name": "",
          "type": "uint256"
        }
      ],
      "stateMutability": "view",
      "type": "function",
      "constant": true
    },
    {
      "inputs": [
        {
          "internalType": "uint256",
          "name": "",
          "type": "uint256"
        }
      ],
      "name": "Posts",
      "outputs": [
        {
          "internalType": "uint256",
          "name": "id",
          "type": "uint256"
        },
        {
          "internalType": "string",
          "name": "hash",
          "type": "string"
        },
        {
          "internalType": "string",
          "name": "description",
          "type": "string"
        },
        {
          "internalType": "uint256",
          "name": "tipAmount",
          "type": "uint256"
        },
        {
          "internalType": "uint256",
          "name": "viewCost",
          "type": "uint256"
        },
        {
          "internalType": "address payable",
          "name": "author",
          "type": "address"
        }
      ],
      "stateMutability": "view",
      "type": "function",
      "constant": true
    },
    {
      "inputs": [
        {
          "internalType": "uint256",
          "name": "",
          "type": "uint256"
        }
      ],
      "name": "posts",
      "outputs": [
        {
          "internalType": "uint256",
          "name": "id",
          "type": "uint256"
        },
        {
          "internalType": "string",
          "name": "hash",
          "type": "string"
        },
        {
          "internalType": "string",
          "name": "description",
          "type": "string"
        },
        {
          "internalType": "uint256",
          "name": "tipAmount",
          "type": "uint256"
        },
        {
          "internalType": "uint256",
          "name": "viewCost",
          "type": "uint256"
        },
        {
          "internalType": "address payable",
          "name": "author",
          "type": "address"
        }
      ],
      "stateMutability": "view",
      "type": "function",
      "constant": true
    },
    {
      "inputs": [
        {
          "internalType": "address",
          "name": "",
          "type": "address"
        }
      ],
      "name": "userRoles",
      "outputs": [
        {
          "internalType": "enum BShiksha.Role",
          "name": "",
          "type": "uint8"
        }
      ],
      "stateMutability": "view",
      "type": "function",
      "constant": true
    },
    {
      "inputs": [
        {
          "internalType": "string",
          "name": "_userType",
          "type": "string"
        }
      ],
      "name": "assignUserRoles",
      "outputs": [
        {
          "internalType": "enum BShiksha.Role",
          "name": "",
          "type": "uint8"
        }
      ],
      "stateMutability": "pure",
      "type": "function",
      "constant": true
    },
    {
      "inputs": [
        {
          "internalType": "uint256",
          "name": "_postId",
          "type": "uint256"
        },
        {
          "internalType": "string",
          "name": "_PostHash",
          "type": "string"
        },
        {
          "internalType": "string",
          "name": "_description",
          "type": "string"
        },
        {
          "internalType": "uint256",
          "name": "_viewCost",
          "type": "uint256"
        }
      ],
      "name": "uploadPost",
      "outputs": [
        {
          "internalType": "uint256",
          "name": "",
          "type": "uint256"
        }
      ],
      "stateMutability": "nonpayable",
      "type": "function"
    },
    {
      "inputs": [
        {
          "internalType": "uint256",
          "name": "_id",
          "type": "uint256"
        }
      ],
      "name": "tipPostOwner",
      "outputs": [],
      "stateMutability": "payable",
      "type": "function",
      "payable": true
    },
    {
      "inputs": [
        {
          "internalType": "uint256",
          "name": "postId",
          "type": "uint256"
        }
      ],
      "name": "getPost",
      "outputs": [
        {
          "internalType": "uint256",
          "name": "id",
          "type": "uint256"
        },
        {
          "internalType": "string",
          "name": "hash",
          "type": "string"
        },
        {
          "internalType": "string",
          "name": "description",
          "type": "string"
        },
        {
          "internalType": "uint256",
          "name": "tipAmount",
          "type": "uint256"
        },
        {
          "internalType": "uint256",
          "name": "viewCost",
          "type": "uint256"
        },
        {
          "internalType": "address payable",
          "name": "author",
          "type": "address"
        }
      ],
      "stateMutability": "view",
      "type": "function",
      "constant": true
    },
    {
      "inputs": [
        {
          "internalType": "uint256",
          "name": "_postId",
          "type": "uint256"
        }
      ],
      "name": "viewPost",
      "outputs": [],
      "stateMutability": "payable",
      "type": "function",
      "payable": true
    }
  ],
  "bytecode": "0x6080604052600060015534801561001557600080fd5b50611a38806100256000396000f3fe6080604052600436106100865760003560e01c80634fafef1a116100595780634fafef1a1461016857806358114a2d146101aa57806374d5e100146101e7578063a2d1eceb14610224578063d6313c061461024f57610086565b806303c0f7d21461008b5780630b1e7f83146100a75780633132613c146100e957806340731c2414610126575b600080fd5b6100a560048036038101906100a091906110e7565b61026b565b005b3480156100b357600080fd5b506100ce60048036038101906100c991906110e7565b6104eb565b6040516100e0969594939291906115d5565b60405180910390f35b3480156100f557600080fd5b50610110600480360381019061010b9190611110565b610667565b60405161011d919061154b565b60405180910390f35b34801561013257600080fd5b5061014d600480360381019061014891906110e7565b61093b565b60405161015f969594939291906115d5565b60405180910390f35b34801561017457600080fd5b5061018f600480360381019061018a91906110e7565b610b32565b6040516101a1969594939291906115d5565b60405180910390f35b3480156101b657600080fd5b506101d160048036038101906101cc91906110a6565b610c9e565b6040516101de91906114b0565b60405180910390f35b3480156101f357600080fd5b5061020e6004803603810190610209919061107d565b610d0b565b60405161021b91906114b0565b60405180910390f35b34801561023057600080fd5b50610239610d2b565b604051610246919061154b565b60405180910390f35b610269600480360381019061026491906110e7565b610d31565b005b6000811015801561027e57506001548111155b61028757600080fd5b6000600260008381526020019081526020016000206040518060c0016040529081600082015481526020016001820180546102c190611878565b80601f01602080910402602001604051908101604052809291908181526020018280546102ed90611878565b801561033a5780601f1061030f5761010080835404028352916020019161033a565b820191906000526020600020905b81548152906001019060200180831161031d57829003601f168201915b5050505050815260200160028201805461035390611878565b80601f016020809104026020016040519081016040528092919081815260200182805461037f90611878565b80156103cc5780601f106103a1576101008083540402835291602001916103cc565b820191906000526020600020905b8154815290600101906020018083116103af57829003601f168201915b5050505050815260200160038201548152602001600482015481526020016005820160009054906101000a900473ffffffffffffffffffffffffffffffffffffffff1673ffffffffffffffffffffffffffffffffffffffff1673ffffffffffffffffffffffffffffffffffffffff168152505090508060800151341015610488576040517f08c379a000000000000000000000000000000000000000000000000000000000815260040161047f906114eb565b60405180910390fd5b6104968160a0015134610e97565b7fa66971644db93c1ee0222b8a1339ec43ae2b2bde38db5e569e3ddc4b287dbc0c82826020015183604001518460600151348660a001516040516104df969594939291906115d5565b60405180910390a15050565b600381815481106104fb57600080fd5b906000526020600020906006020160009150905080600001549080600101805461052490611878565b80601f016020809104026020016040519081016040528092919081815260200182805461055090611878565b801561059d5780601f106105725761010080835404028352916020019161059d565b820191906000526020600020905b81548152906001019060200180831161058057829003601f168201915b5050505050908060020180546105b290611878565b80601f01602080910402602001604051908101604052809291908181526020018280546105de90611878565b801561062b5780601f106106005761010080835404028352916020019161062b565b820191906000526020600020905b81548152906001019060200180831161060e57829003601f168201915b5050505050908060030154908060040154908060050160009054906101000a900473ffffffffffffffffffffffffffffffffffffffff16905086565b60008060018111156106a2577f4e487b7100000000000000000000000000000000000000000000000000000000600052602160045260246000fd5b6000803373ffffffffffffffffffffffffffffffffffffffff1673ffffffffffffffffffffffffffffffffffffffff16815260200190815260200160002060009054906101000a900460ff166001811115610726577f4e487b7100000000000000000000000000000000000000000000000000000000600052602160045260246000fd5b14610766576040517f08c379a000000000000000000000000000000000000000000000000000000000815260040161075d9061152b565b60405180910390fd5b600084511161077457600080fd5b600083511161078257600080fd5b6000821015801561079c57506802b5e3af16b18800008211155b6107db576040517f08c379a00000000000000000000000000000000000000000000000000000000081526004016107d29061150b565b60405180910390fd5b600160008154809291906107ee906118aa565b91905055506040518060c00160405280868152602001858152602001848152602001600081526020018381526020013373ffffffffffffffffffffffffffffffffffffffff1681525060026000878152602001908152602001600020600082015181600001556020820151816001019080519060200190610870929190610f48565b50604082015181600201908051906020019061088d929190610f48565b50606082015181600301556080820151816004015560a08201518160050160006101000a81548173ffffffffffffffffffffffffffffffffffffffff021916908373ffffffffffffffffffffffffffffffffffffffff1602179055509050507f8f18cd88b13c06184c3a67d9b79c75dc1e11607408671185f1abce809c68b6498585856000863360405161092696959493929190611566565b60405180910390a16001549050949350505050565b6000606080600080600080600260008981526020019081526020016000206040518060c00160405290816000820154815260200160018201805461097e90611878565b80601f01602080910402602001604051908101604052809291908181526020018280546109aa90611878565b80156109f75780601f106109cc576101008083540402835291602001916109f7565b820191906000526020600020905b8154815290600101906020018083116109da57829003601f168201915b50505050508152602001600282018054610a1090611878565b80601f0160208091040260200160405190810160405280929190818152602001828054610a3c90611878565b8015610a895780601f10610a5e57610100808354040283529160200191610a89565b820191906000526020600020905b815481529060010190602001808311610a6c57829003601f168201915b5050505050815260200160038201548152602001600482015481526020016005820160009054906101000a900473ffffffffffffffffffffffffffffffffffffffff1673ffffffffffffffffffffffffffffffffffffffff1673ffffffffffffffffffffffffffffffffffffffff16815250509050806000015181602001518260400151836060015184608001518560a001519650965096509650965096505091939550919395565b6002602052806000526040600020600091509050806000015490806001018054610b5b90611878565b80601f0160208091040260200160405190810160405280929190818152602001828054610b8790611878565b8015610bd45780601f10610ba957610100808354040283529160200191610bd4565b820191906000526020600020905b815481529060010190602001808311610bb757829003601f168201915b505050505090806002018054610be990611878565b80601f0160208091040260200160405190810160405280929190818152602001828054610c1590611878565b8015610c625780601f10610c3757610100808354040283529160200191610c62565b820191906000526020600020905b815481529060010190602001808311610c4557829003601f168201915b5050505050908060030154908060040154908060050160009054906101000a900473ffffffffffffffffffffffffffffffffffffffff16905086565b60008082604051602001610cb2919061146f565b604051602081830303815290604052805190602001209050604051602001610cd99061149b565b60405160208183030381529060405280519060200120811415610d00576000915050610d06565b60019150505b919050565b60006020528060005260406000206000915054906101000a900460ff1681565b60015481565b60008110158015610d4457506001548111155b610d4d57600080fd5b60006002600083815260200190815260200160002060050160009054906101000a900473ffffffffffffffffffffffffffffffffffffffff1690508073ffffffffffffffffffffffffffffffffffffffff166108fc349081150290604051600060405180830381858888f19350505050158015610dce573d6000803e3d6000fd5b5034600260008481526020019081526020016000206003016000828254610df5919061175b565b925050819055507f1f2ee66b193fcb0910db6c9747a0c479aaf007650b1f6085fbb42555e8006b308260026000858152602001908152602001600020600101600260008681526020019081526020016000206002016002600087815260200190815260200160002060030154600260008881526020019081526020016000206004015486604051610e8b96959493929190611644565b60405180910390a15050565b60008273ffffffffffffffffffffffffffffffffffffffff1682604051610ebd90611486565b60006040518083038185875af1925050503d8060008114610efa576040519150601f19603f3d011682016040523d82523d6000602084013e610eff565b606091505b5050905080610f43576040517f08c379a0000000000000000000000000000000000000000000000000000000008152600401610f3a906114cb565b60405180910390fd5b505050565b828054610f5490611878565b90600052602060002090601f016020900481019282610f765760008555610fbd565b82601f10610f8f57805160ff1916838001178555610fbd565b82800160010185558215610fbd579182015b82811115610fbc578251825591602001919060010190610fa1565b5b509050610fca9190610fce565b5090565b5b80821115610fe7576000816000905550600101610fcf565b5090565b6000610ffe610ff9846116e4565b6116b3565b90508281526020810184848401111561101657600080fd5b611021848285611836565b509392505050565b600081359050611038816119d4565b92915050565b600082601f83011261104f57600080fd5b813561105f848260208601610feb565b91505092915050565b600081359050611077816119eb565b92915050565b60006020828403121561108f57600080fd5b600061109d84828501611029565b91505092915050565b6000602082840312156110b857600080fd5b600082013567ffffffffffffffff8111156110d257600080fd5b6110de8482850161103e565b91505092915050565b6000602082840312156110f957600080fd5b600061110784828501611068565b91505092915050565b6000806000806080858703121561112657600080fd5b600061113487828801611068565b945050602085013567ffffffffffffffff81111561115157600080fd5b61115d8782880161103e565b935050604085013567ffffffffffffffff81111561117a57600080fd5b6111868782880161103e565b925050606061119787828801611068565b91505092959194509250565b6111ac816117c3565b82525050565b6111bb81611812565b82525050565b6111ca81611824565b82525050565b60006111db82611729565b6111e5818561173f565b93506111f5818560208601611845565b6111fe816119af565b840191505092915050565b600061121482611729565b61121e8185611750565b935061122e818560208601611845565b80840191505092915050565b6000815461124781611878565b611251818661173f565b9450600182166000811461126c576001811461127e576112b1565b60ff19831686526020860193506112b1565b61128785611714565b60005b838110156112a95781548189015260018201915060208101905061128a565b808801955050505b50505092915050565b60006112c760148361173f565b91507f4661696c656420746f2073656e642045746865720000000000000000000000006000830152602082019050919050565b600061130760258361173f565b91507f496e73756666696369656e74207061796d656e7420746f20766965772074686560008301527f20706f73740000000000000000000000000000000000000000000000000000006020830152604082019050919050565b600061136d60128361173f565b91507f5365742056616c756520302d35302045544800000000000000000000000000006000830152602082019050919050565b60006113ad60258361173f565b91507f4f6e6c7920666163756c7479206d656d626572732063616e206372656174652060008301527f706f7374730000000000000000000000000000000000000000000000000000006020830152604082019050919050565b6000611413600083611734565b9150600082019050919050565b600061142d600783611750565b91507f666163756c7479000000000000000000000000000000000000000000000000006000830152600782019050919050565b61146981611808565b82525050565b600061147b8284611209565b915081905092915050565b600061149182611406565b9150819050919050565b60006114a682611420565b9150819050919050565b60006020820190506114c560008301846111b2565b92915050565b600060208201905081810360008301526114e4816112ba565b9050919050565b60006020820190508181036000830152611504816112fa565b9050919050565b6000602082019050818103600083015261152481611360565b9050919050565b60006020820190508181036000830152611544816113a0565b9050919050565b60006020820190506115606000830184611460565b92915050565b600060c08201905061157b6000830189611460565b818103602083015261158d81886111d0565b905081810360408301526115a181876111d0565b90506115b060608301866111c1565b6115bd6080830185611460565b6115ca60a08301846111a3565b979650505050505050565b600060c0820190506115ea6000830189611460565b81810360208301526115fc81886111d0565b9050818103604083015261161081876111d0565b905061161f6060830186611460565b61162c6080830185611460565b61163960a08301846111a3565b979650505050505050565b600060c0820190506116596000830189611460565b818103602083015261166b818861123a565b9050818103604083015261167f818761123a565b905061168e6060830186611460565b61169b6080830185611460565b6116a860a08301846111a3565b979650505050505050565b6000604051905081810181811067ffffffffffffffff821117156116da576116d9611980565b5b8060405250919050565b600067ffffffffffffffff8211156116ff576116fe611980565b5b601f19601f8301169050602081019050919050565b60008190508160005260206000209050919050565b600081519050919050565b600081905092915050565b600082825260208201905092915050565b600081905092915050565b600061176682611808565b915061177183611808565b9250827fffffffffffffffffffffffffffffffffffffffffffffffffffffffffffffffff038211156117a6576117a56118f3565b5b828201905092915050565b60006117bc826117e8565b9050919050565b60006117ce826117e8565b9050919050565b60008190506117e3826119c0565b919050565b600073ffffffffffffffffffffffffffffffffffffffff82169050919050565b6000819050919050565b600061181d826117d5565b9050919050565b600061182f82611808565b9050919050565b82818337600083830152505050565b60005b83811015611863578082015181840152602081019050611848565b83811115611872576000848401525b50505050565b6000600282049050600182168061189057607f821691505b602082108114156118a4576118a3611951565b5b50919050565b60006118b582611808565b91507fffffffffffffffffffffffffffffffffffffffffffffffffffffffffffffffff8214156118e8576118e76118f3565b5b600182019050919050565b7f4e487b7100000000000000000000000000000000000000000000000000000000600052601160045260246000fd5b7f4e487b7100000000000000000000000000000000000000000000000000000000600052602160045260246000fd5b7f4e487b7100000000000000000000000000000000000000000000000000000000600052602260045260246000fd5b7f4e487b7100000000000000000000000000000000000000000000000000000000600052604160045260246000fd5b6000601f19601f8301169050919050565b600281106119d1576119d0611922565b5b50565b6119dd816117b1565b81146119e857600080fd5b50565b6119f481611808565b81146119ff57600080fd5b5056fea26469706673582212205b0c01631bc17f7158347bee6ec33615b50082abcdff8297c4b3944177a3b50664736f6c63430008000033",
  "immutableReferences": {},
  "source": "// SPDX-License-Identifier: MIT\r\npragma solidity ^0.8.0;\r\n\r\ncontract BShiksha {\r\n    enum Role {\r\n        Faculty,\r\n        Viewer\r\n    }\r\n    mapping(address => Role) public userRoles;\r\n\r\n    function assignUserRoles(string memory _userType) public pure returns (Role) {\r\n        bytes32 userType = keccak256(abi.encodePacked(_userType));\r\n        if (userType == keccak256(abi.encodePacked(\"faculty\"))) {\r\n            return Role.Faculty;\r\n        } else {\r\n            return Role.Viewer;\r\n        }\r\n    }\r\n\r\n    uint256 public PostCount = 0;\r\n    mapping(uint256 => Post) public Posts;\r\n\r\n    struct Post {\r\n        uint256 id;\r\n        string hash;\r\n        string description;\r\n        uint256 tipAmount;\r\n        uint256 viewCost;\r\n        address payable author;\r\n    }\r\n\r\n    Post[] public posts;\r\n\r\n    modifier onlyFacultyMember() {\r\n        require(\r\n            userRoles[msg.sender] == Role.Faculty,\r\n            \"Only faculty members can create posts\"\r\n        );\r\n        _;\r\n    }\r\n\r\n    event PostCreated(\r\n        uint256 id,\r\n        string hash,\r\n        string description,\r\n        uint256 tipAmount,\r\n        uint256 viewCost,\r\n        address payable author\r\n    );\r\n\r\n    event PostTipped(\r\n        uint256 id,\r\n        string hash,\r\n        string description,\r\n        uint256 tipAmount,\r\n        uint256 viewCost,\r\n        address payable author\r\n    );\r\n\r\n    event PostViewed(\r\n        uint256 id,\r\n        string hash,\r\n        string description,\r\n        uint256 tipAmount,\r\n        uint256 viewCost,\r\n        address payable author\r\n    );\r\n\r\n    function uploadPost (\r\n        uint256 _postId,\r\n        string memory _PostHash,\r\n        string memory _description,\r\n        uint256 _viewCost\r\n    ) public onlyFacultyMember returns (uint256) {\r\n        require(bytes(_PostHash).length > 0);\r\n        require(bytes(_description).length > 0);\r\n        require(_viewCost  >= 0 && _viewCost  <= 50 * 1e18, \"Set Value 0-50 ETH\");\r\n\r\n        PostCount++;\r\n\r\n        Posts[_postId] = Post(\r\n            _postId,\r\n            _PostHash,\r\n            _description,\r\n            0,\r\n            _viewCost,\r\n            payable(msg.sender)\r\n        );\r\n\r\n        emit PostCreated(\r\n            _postId,\r\n            _PostHash,\r\n            _description,\r\n            0,\r\n            _viewCost,\r\n            payable(msg.sender)\r\n        );\r\n\r\n        return PostCount;\r\n    }\r\n\r\n    function tipPostOwner(uint256 _id) public payable {\r\n        require(_id >= 0 && _id <= PostCount);\r\n        address payable _author = Posts[_id].author;\r\n        _author.transfer(msg.value);\r\n        Posts[_id].tipAmount += msg.value;\r\n        emit PostTipped(\r\n            _id,\r\n            Posts[_id].hash,\r\n            Posts[_id].description,\r\n            Posts[_id].tipAmount,\r\n            Posts[_id].viewCost,\r\n            _author\r\n        );\r\n    }\r\n\r\n    function getPost(uint256 postId) public view returns (uint256 id, string memory hash, string memory description, uint256 tipAmount, uint256 viewCost, address payable author) {\r\n        Post memory post = Posts[postId];\r\n        return (post.id, post.hash, post.description, post.tipAmount, post.viewCost, post.author);\r\n    }\r\n\r\n    function viewPost(uint256 _postId) public payable {\r\n        require(_postId >= 0 && _postId <= PostCount);\r\n        Post memory post = Posts[_postId];\r\n        require(msg.value >= post.viewCost, \"Insufficient payment to view the post\");\r\n        sendViaCall(payable(address(post.author)), msg.value);\r\n        emit PostViewed(\r\n            _postId,\r\n            post.hash,\r\n            post.description,\r\n            post.tipAmount,\r\n            msg.value, \r\n            post.author\r\n        );\r\n    }\r\n\r\n    function sendViaCall(address payable _to, uint256 _amount) internal {\r\n        (bool sent, ) = _to.call{value: _amount}(\"\");\r\n        require(sent, \"Failed to send Ether\");\r\n    }\r\n}",
  "sourcePath": "D:\\coding\\blockchain\\new\\bshiksha\\contracts\\NewPost.sol",
  "compiler": {
    "name": "solc",
    "version": "0.8.0+commit.c7dfd78e.Emscripten.clang"
  },
  "schemaVersion": "3.4.16",
  "updatedAt": "2024-04-30T22:11:51.038Z",
  "networkType": "ethereum",
  "devdoc": {
    "kind": "dev",
    "methods": {},
    "version": 1
  },
  "userdoc": {
    "kind": "user",
    "methods": {},
    "version": 1
  }
}